:0400000027EF00F0F6
:100008005182FACF01F0FBCF02F0F2AC0EEF00F014
:1000180010EF00F021EF00F00E01C3A116EF00F081
:1000280018EF00F021EF00F0CBA11DEF00F01FEF5B
:1000380000F021EF00F0ECEC0EF002C0FBFF01C075
:0A004800FAFF51921100D1EF0DF004
:100F00000000400100001450800B1D6E145014248A
:100F1000236E13AE8EEF07F090EF07F091EF07F01E
:100F200023802350D8B497EF07F099EF07F0ACEF88
:100F300007F02328D8A49FEF07F0A1EF07F0A9EF4F
:100F400007F0000E116E000E126E000E136E000EF2
:100F5000146E138EB4EF07F0000E116E000E126EB9
:100F6000000E136E000E146E1850800B1D1A1850D0
:100F70001824226E17AEBFEF07F0C1EF07F0C2EFE3
:100F800007F022802250D8B4C8EF07F0CAEF07F06C
:100F9000DDEF07F02228D8A4D0EF07F0D2EF07F05A
:100FA000DAEF07F0000E156E000E166E000E176ECB
:100FB000000E186E178EE5EF07F0000E156E000E8E
:100FC000166E000E176E000E186E2250D8B4EBEF9E
:100FD00007F0EDEF07F0F5EF07F02350D8A4F3EF9B
:100FE00007F0F5EF07F0FFEF07F0000E116E000EAF
:100FF000126E000E136E000E146E97EF09F017506C
:101000001102F3CF28F0F4CF29F028501E6E1F6A8A
:10101000206A216A2950246E256A266A276A16509A
:101020001202F3CF28F0F4CF29F028501E26000E2C
:101030001F222022212229502426000E252226228A
:10104000272215501302F3CF28F0F4CF29F02850AF
:101050001E26000E1F222022212229502426000EA7
:1010600025222622272220C021F01FC020F01EC0EA
:101070001FF01E6A15501202F3CF28F0F4CF29F0AA
:1010800028501E2629501F22000E2022000E212249
:1010900016501102F3CF28F0F4CF29F028501E2665
:1010A00029501F22000E2022000E212220C021F0F4
:1010B0001FC020F01EC01FF01E6A15501102F3CF92
:1010C00028F0F4CF29F028501E2629501F22000EA8
:1010D0002022000E212217501202F3CF28F0F4CF65
:1010E00029F02850242629502522000E2622000E01
:1010F000272216501302F3CF28F0F4CF29F02850FE
:10110000242629502522000E2622000E27221750C1
:101110001302F3CF28F0F4CF29F02850196E29508C
:101120001A6E1B6A1C6A1BC01CF01AC01BF019C087
:101130001AF0196A195024261A5025221B5026220B
:101140001C5027221EC019F01FC01AF020C01BF02F
:1011500021C01CF0190EB2EF08F0D8901C321B32DF
:101160001A321932E82EADEF08F0195024261A5021
:1011700025221B5026221C50272220C021F01FC0F0
:1011800020F01EC01FF01E6A225023C019F01A6AF8
:101190001926000E1A22820E1924286EFF0E1A201C
:1011A000296EE8EF08F0D890243625362636273603
:1011B00021AEDDEF08F0DFEF08F0E0EF08F024806B
:1011C000D8901E361F36203621362806D8A029068C
:1011D00026AEEDEF08F0EFEF08F0D3EF08F0000EC9
:1011E000226E21AEF6EF08F0F8EF08F01CEF09F0E0
:1011F000FF0E1E14196EFF0E1F141A6EFF0E201420
:101200001B6E7F0E21141C6E19501A101B101C101F
:10121000D8B40DEF09F00FEF09F013EF09F0010E4C
:10122000226E1CEF09F024A018EF09F01AEF09F064
:101230001CEF09F00FEF09F02250D8B422EF09F0AB
:1012400024EF09F048EF09F0010E2426000E2522B4
:101250002622272227A02FEF09F031EF09F048EFCF
:1012600009F024C019F025C01AF026C01BF027C0D1
:101270001CF01C341C321B321A32193219C024F0F3
:101280001AC025F01BC026F01CC027F0284A292AC6
:1012900029BE53EF09F0295008E12828D8A053EFC0
:1012A00009F055EF09F05FEF09F0000E246E000E13
:1012B000256E800E266E7F0E276E8DEF09F029BEFB
:1012C0006CEF09F0295006E12804D8B06AEF09F064
:1012D0006CEF09F078EF09F0000E246E000E256E19
:1012E000000E266E000E276E000E1D6E8DEF09F0AB
:1012F00028C023F0FF0E2416FF0E25167F0E26169B
:10130000000E271623A087EF09F089EF09F08AEF76
:1013100009F0268ED8902330276E1D50271224C046
:1013200011F025C012F026C013F027C014F01200EF
:10133000000E456E49EC0FF0968A190E73EC0FF013
:101340008DB2A5EF09F0A9EF09F0386A382AAAEFA3
:1013500009F0386A8DB0AFEF09F0B3EF09F0396AE0
:10136000392AB4EF09F0396AD890393438103A6E16
:101370003AC045F04550D8A4C0EF09F0C2EF09F0DB
:10138000E9EF09F0000E3E6E000E3D6ED8903D3440
:10139000D96E3E34DA6E000ED926020EDA22D890CB
:1013A0003D34E16E3E34E26E000EE126010EE22293
:1013B000DECFE6FFDDCFE5FF3D4A3E2A3E5009E1A4
:1013C000640E3D5CD8A0E7EF09F0E9EF09F0C6EF45
:1013D00009F04504D8A4EFEF09F0F1EF09F018EF98
:1013E0000AF0000E406E000E3F6ED8903F34D96E6A
:1013F0004034DA6E000ED926030EDA22D8903F343C
:10140000E16E4034E26E000EE126010EE222DECFF4
:10141000E6FFDDCFE5FF3F4A402A405009E1640E78
:101420003F5CD8A016EF0AF018EF0AF0F5EF09F0CC
:10143000020E4518D8A41FEF0AF021EF0AF048EF7A
:101440000AF0000E426E000E416ED8904134D96E03
:101450004234DA6E000ED926040EDA22D8904134D6
:10146000E16E4234E26E000EE126010EE222DECF92
:10147000E6FFDDCFE5FF414A422A425009E1640E12
:10148000415CD8A046EF0AF048EF0AF025EF0AF0D9
:10149000030E4518D8A44FEF0AF051EF0AF0D7EF2A
:1014A0000AF0000E446E000E436ED8904334D96E9D
:1014B0004434DA6E000ED926050EDA22D890433471
:1014C000E16E4434E26E000EE126010EE222DECF30
:1014D000E6FFDDCFE5FF434A442A445009E1640EAC
:1014E000435CD8A076EF0AF078EF0AF055EF0AF0E7
:1014F000D7EF0AF08DB27FEF0AF083EF0AF0386A77
:10150000382A84EF0AF0386A8DB089EF0AF08CEF40
:101510000AF0010E8DEF0AF0000E38243A6E62ECEC
:101520000FF003C048F004C049F048C034F049C08F
:1015300035F09AEC0EF034C046F035C047F0000E9E
:101540003C6E000E3B6E46C003F047C004F0056AD7
:10155000066AC8EC0EF0D8903B34D96E3C34DA6E93
:10156000000ED926010EDA22DECF03F0DDCF04F023
:1015700006EC0FF003C04AF004C04BF04B504D6E28
:101580004AC04CF0849A4D503BEC0FF04C503BEC71
:101590000FF0848A3B4A3C2A3C5009E1640E3B5CD4
:1015A000D8A0D5EF0AF0D7EF0AF0A3EF0AF0455024
:1015B0003A18D8B4DEEF0AF0E0EF0AF07AEF0AF05A
:1015C000A0EF09F027EF00F00B6E0B50D8B4EBEF53
:1015D0000AF0EDEF0AF00FEF0BF006BEF4EF0AF0A1
:1015E000F2EF0AF00FEF0BF003C007F004C008F0B1
:1015F00005C009F006C00AF0071E081E091E0A1ED3
:10160000072A000E082209220A2207C00DF008C08E
:101610000EF009C00FF00AC010F017EF0BF003C076
:101620000DF004C00EF005C00FF006C010F003501E
:10163000041005100610D8A420EF0BF022EF0BF0D9
:101640002CEF0BF0000E036E000E046E000E056E04
:10165000000E066EBDEF0BF0960E0C6E36EF0BF023
:101660000C2AD89010320F320E320D32000E0D14AB
:10167000076E000E0E14086E000E0F14096EFE0E9B
:1016800010140A6E0750081009100A10D8A44BEF66
:101690000BF04DEF0BF030EF0BF05BEF0BF00C2A83
:1016A000010E0D26000E0E220F221022D8901032AD
:1016B0000F320E320D32000E0D14076E000E0E1496
:1016C000086E000E0F14096EFF0E10140A6E0750FC
:1016D000081009100A10D8A470EF0BF072EF0BF08D
:1016E0004FEF0BF07AEF0BF00C06D8900D360E365C
:1016F0000F3610360FBE7FEF0BF081EF0BF089EF46
:101700000BF0020E0C6087EF0BF089EF0BF074EF1B
:101710000BF00CB08EEF0BF090EF0BF091EF0BF0A5
:101720000F9ED8900C320CC007F0086A096A0A6A4A
:1017300007C00AF0096A086A076A07500D120850C4
:101740000E1209500F120A5010120B50D8B4ABEF02
:101750000BF0ADEF0BF0B5EF0BF006BEB4EF0BF0F6
:10176000B2EF0BF0B5EF0BF0108E0DC003F00EC012
:1017700004F00FC005F010C006F012002C342D3418
:10178000336E3350D8A4C7EF0BF0C9EF0BF0D3EF93
:101790000BF0000E2A6E000E2B6E000E2C6E000E4B
:1017A0002D6E40EF0CF02AC02EF02BC02FF02CC075
:1017B00030F02DC031F0200EE3EF0BF0D890313235
:1017C00030322F322E32E82EDEEF0BF02E50326EFA
:1017D0002C8EFF0E2A16FF0E2B16FF0E2C16000E57
:1017E0002D16960E335E33BEFAEF0BF0F8EF0BF0CA
:1017F00010EF0CF03350800A970FD8B002EF0CF0C6
:1018000004EF0CF006EF0CF0C9EF0BF0D8902D327E
:101810002C322B322A32333E06EF0CF028EF0CF03C
:101820001F0E336416EF0CF018EF0CF020EF0CF0E5
:10183000C9EF0BF0D8902A362B362C362D363306CE
:101840003350D8A426EF0CF028EF0CF01AEF0CF070
:101850003250D8B42EEF0CF030EF0CF038EF0CF023
:101860002D1E2C1E2B1E2A6C000E2B222C222D220C
:101870002AC02AF02BC02BF02CC02CF02DC02DF04C
:1018800012000002200240025F027F029E02BC02A0
:10189000D902F60212032C0346035E0374038A0383
:1018A0009D03AF03C003CE03DB03E603EF03F603A0
:1018B000FB03FE03FF03FE03FB03F603EF03E60354
:1018C000DB03CE03C003AF039D038A0374035E03EF
:1018D00046032C031203F602D902BC029E027F02C9
:1018E0005F02400220020002DF01BF01A00180016F
:1018F0006101430126010901ED00D300B900A100F7
:101900008B007500620050003F0031002400190078
:10191000100009000400010000000100040009009B
:1019200010001900240031003F00500062007500D3
:101930008B00A100B900D300ED000901260143018D
:1019400061018001A001BF01DF01140029003D00F9
:10195000520066007B008F00A400B800CD00E100BB
:10196000F6000A011E01330147015C017001850187
:101970009901AE01C201D701EB0100021402280255
:101980003D02510266027A028F02A302B802CC0223
:10199000E102F50209031E03320347035B037003F0
:1019A00084039903AD03C203D603EB03FF03EB03E8
:1019B000D603C203AD039903840370035B0347039B
:1019C00032031E030903F502E102CC02B802A302AE
:1019D0008F027A02660251023D02280214020002BE
:1019E000EB01D701C201AE019901850170015C01D3
:1019F000470133011E010A01F600E100CD00B800E5
:101A0000A4008F007B00660052003D0029001400F6
:101A100000000000000000000000000000000000C6
:101A200000000000000000000000000000000000B6
:101A300000000000000000000000000000000000A6
:101A40000000000000000000000000000000000096
:101A50000000000000000000000000000000000086
:101A60000000000000000000000000000000000076
:101A7000000000000000FF03FF03FF03FF03FF035C
:101A8000FF03FF03FF03FF03FF03FF03FF03FF0346
:101A9000FF03FF03FF03FF03FF03FF03FF03FF0336
:101AA000FF03FF03FF03FF03FF03FF03FF03FF0326
:101AB000FF03FF03FF03FF03FF03FF03FF03FF0316
:101AC000FF03FF03FF03FF03FF03FF03FF03FF0306
:101AD000FF03FF03FF03FF03FF0300000B001600DB
:101AE00021002C00370042004D00580063006E00BA
:101AF000790084008F009A00A500B000BB00C600EA
:101B0000D100DC00E700F200FD00080113011E0116
:101B1000290134013F014A01550160016B01760141
:101B200081018C019701A201AD01B801C301CE0171
:101B3000D901E401EF01FA01050210021B0226029D
:101B400031023C02470252025D02680273027E02C9
:101B5000890294029F02AA02B502C002CB02D602F9
:101B6000E102EC02F70202030D03180323032E0324
:101B7000390344034F035A03650370037B03860351
:101B800091039C03A703B203BD03C803D303DE0381
:101B9000E903F403FF03FF03FF03FF03FF03FF0356
:101BA000FF03DA0EF66E1A0EF76E000EF86E05EEF3
:101BB00000F010EEC8F00900F5CFEEFFE550E1505F
:101BC000FAE1120EF66E1A0EF76E000EF86E04EEC3
:101BD00000F010EEC8F00900F5CFEEFFE550E1503F
:101BE000FAE14A0EF66E190EF76E000EF86E03EE6D
:101BF00000F010EEC8F00900F5CFEEFFE550E1501F
:101C0000FAE1820EF66E180EF76E000EF86E02EE16
:101C100000F010EEC8F00900F5CFEEFFE550E150FE
:101C2000FAE101EE00F0C80EEE6AE806FDE100EE12
:101C300046F0080EEE6AE806FDE15190519200016F
:101C400098EF09F0000E876E000E866E000E836E10
:101C5000200E846E000E856E070E8C6E8868DF0E77
:101C6000896EFC0E8A6E8B680F012669FA0E216F51
:101C70001969070E2E6FFC0E116F000E256F000EF6
:101C80002D6F000E186F000E106F000E206F000EEB
:101C90002C6F000E0F6F000E176F000E1F6F000EDF
:101CA000246F0E6916691E692369070E2B6F0D6973
:101CB00015691D6922690F0E2A6F0F0E0E01F76F4D
:101CC000100EB76F100EF86F120EB86F1200000EE4
:101CD0006A6E000E6B6E000E6C6E000E6D6E000E66
:101CE000686E000E696E000E666E000E0F015F6F6B
:101CF000000E5D6F000E5E6F000E596F000E5A6F82
:101D0000000E5B6F000E656E000E586F000E566F72
:101D1000070E576FC40E606E000E5C6F0E01CB9104
:101D2000C381F60E036E1E0E046E000E056E6CEC83
:101D30000FF012009A0E156E990E166E990E176E10
:101D40003E0E186E34C003F035C004F0056A066A12
:101D5000000EE4EC0AF003C011F004C012F005C05C
:101D600013F006C014F083EC07F011C02AF012C083
:101D70002BF013C02CF014C02DF0BEEC0BF02AC0D9
:101D800036F02BC037F036C034F037C035F01200D3
:101D9000000E076E000E086E000E096E000E0A6E31
:101DA000DCEF0EF000D000D000D000D0010E0726EE
:101DB000000E082209220A220350075C045008582A
:101DC0000550095806500A58D8A0E9EF0EF0EBEF7D
:101DD0000EF0D2EF0EF012000E01CB914E504F10CC
:101DE0005010D8B4F6EF0EF0F8EF0EF005EF0FF04C
:101DF00002D805EF0FF00500FA6E4E50FD6E4F5001
:101E0000FE6E5050FF6EFA501200120003C005F033
:101E100004C006F0D89005360636D890053606364A
:101E2000000E0510076E900E0610086E07C003F036
:101E300008C004F01200100E0E01B76F120EB86F3A
:101E40000F0EF76F100EF86F400E956E000E966E27
:101E5000010E936E8A90969A1200000E0E01E16FA9
:101E6000000EE26F000EE36F000EE46F000EE56FF0
:101E7000000EE66F1200036E03C092FF0E01CDA1AB
:101E800044EF0FF046EF0FF03EEF0FF0CD91925080
:101E9000120079EC0FF02DEC0FF01BEC0FF022ECA0
:101EA0000EF056EC0FF067EC0EF01200600E0E0113
:101EB000D86F000EDA6F000EDC6F060EDE6F000EBC
:101EC000DD6F12006450066E056A63500524036ED0
:101ED000000E0620046E120003C04EF004C04FF046
:101EE00005C050F01200036E03C05FFF608E60807B
:081EF0001200F29A1200120028
:020000040020DA
:10000000FF0FFF0FFF0FFF0FFF0FFF0FFF0FFF0F80
:020000040030CA
:0C0000008CFFFFFF9FFFFFFFFFFFFFFFD3
:00000001FF
