:04000000C0EF01F05C
:100008005382FACF07F0FBCF08F0D9CF09F0DACF47
:100018000AF0F3CF0BF0F4CF0CF00E01C2A917EFE2
:1000280000F019EF00F027EF00F0CAA91EEF00F06A
:1000380020EF00F027EF00F012EC19F0010E00019C
:10004800BC6FB2EF01F0F2AC2CEF00F02EEF00F035
:10005800B2EF01F0C6A533EF00F035EF00F044EF42
:1000680001F0CEA53AEF00F03CEF00F044EF01F0CC
:10007800FCEC1BF05050465C51504758D8A047EF55
:1000880000F049EF00F07DEF00F04E50445C4F5017
:100098004558D8B052EF00F054EF00F07DEF00F073
:1000A800010E4D6E000E4C6E000E4B6E8394520482
:1000B800D8A461EF00F063EF00F078EF00F0000ED5
:1000C800526E4A2A8382020E4A646DEF00F06FEF87
:1000D80000F074EF00F0010E526E8392000E4A6E2B
:1000E800000E496E7DEF00F0010E526E839274EFA0
:1000F80000F05050465C51504758D8B086EF00F099
:1001080088EF00F0BCEF00F04E50445C4F5045586B
:10011800D8A091EF00F093EF00F0BCEF00F0000ED4
:100128004D6E010E4C6E000E4B6E83925204D8A495
:10013800A0EF00F0A2EF00F0B7EF00F0000E526E53
:1001480083844A2A030E4A64ACEF00F0AEEF00F055
:10015800B3EF00F0010E526E8394000E4A6E000E4B
:10016800496EBCEF00F0010E526E8394B3EF00F0BD
:100178005050465C51504758D8A0C5EF00F0C7EF23
:1001880000F0EEEF00F04E50445C4F504558D8A0B8
:10019800D0EF00F0D2EF00F0EEEF00F0000E4D6E61
:1001A800000E4C6E010E4B6E5204D8A4DEEF00F028
:1001B800E0EF00F0E8EF00F0000E526E83828384D7
:1001C800000E496EEEEF00F0010E526E839283949A
:1001D800E4EF00F05050465C51504758D8B0F7EF64
:1001E80000F0F9EF00F006EF01F04D04D8A4FFEF9E
:1001F80000F001EF01F006EF01F0010E526E83925C
:10020800000E4D6E4E50445C4F504558D8B00FEF1D
:1002180001F011EF01F01EEF01F04C04D8A417EF24
:1002280001F019EF01F01EEF01F0010E526E8394F8
:10023800000E4C6E5050465C51504758D8B027EFCE
:1002480001F029EF01F0B2EF01F04E50445C4F503D
:100258004558D8B032EF01F034EF01F0B2EF01F0B9
:100268004B04D8A43AEF01F03CEF01F0B2EF01F0F3
:10027800010E526E83928394000E4B6EB2EF01F022
:10028800C6A349EF01F04BEF01F09DEF01F0CEA3BB
:1002980050EF01F052EF01F09DEF01F043EC1CF03C
:1002A8005250D8A45AEF01F05CEF01F070EF01F062
:1002B8004950020D000EF324D96E020EF420DA6EB6
:1002C800DECF01F0DDCF02F04CEC1BF001C0B6F040
:1002D80002C0B7F082EF01F04950020D000EF3247E
:1002E800D96E030EF420DA6EDECF01F0DDCF02F016
:1002F8004CEC1BF001C0B6F002C0B7F083900001CF
:10030800B751486EB6C0BBF04850E2EC1BF0000194
:10031800BB51E2EC1BF08380492A620E496497EFD7
:1003280001F099EF01F0B2EF01F0000E496EB2EF63
:1003380001F0C6A1A2EF01F0A4EF01F0B2EF01F0C5
:10034800CEA1A9EF01F0ABEF01F0B2EF01F007EC9D
:100358001CF0010E0001BA6FB2EF01F00CC0F4FFFF
:100368000BC0F3FF0AC0DAFF09C0D9FF08C0FBFFC2
:0C03780007C0FAFF53921100CFEF17F0FE
:100F00000001400100543A253364256343202052F8
:100F1000483A2533642563202020202020202020EB
:100F2000202020202020202020202020202020548D
:100F30004C3A25336425634352484C3A25336425A3
:030F40006300004B
:100F44003750800B0001606F37503724626F36AE24
:100F5400AEEF07F0B0EF07F0B1EF07F06281625136
:100F6400D8B4B7EF07F0B9EF07F0CEEF07F0622976
:100F7400D8A4BFEF07F0C1EF07F0C9EF07F0000EE8
:100F8400346E000E356E000E366E000E376E368EE1
:100F9400000E376ED6EF07F0000E346E000E356E7D
:100FA400000E366E000E376E3B50800B616F605141
:100FB4006119D8B4E0EF07F0E2EF07F0E3EF07F0D0
:100FC400608D3B503B24616F3AAEEBEF07F0EDEFE1
:100FD40007F0EEEF07F061816151D8B4F4EF07F048
:100FE400F6EF07F00BEF08F06129D8A4FCEF07F047
:100FF400FEEF07F006EF08F0000E386E000E396EB3
:10100400000E3A6E000E3B6E3A8E000E3B6E13EFEE
:1010140008F0000E386E000E396E000E3A6E000EA7
:101024003B6E6251615DD8B01AEF08F01CEF08F016
:1010340043EF08F060AD21EF08F023EF08F025EF4F
:1010440008F0800E601B62C063F061C062F063C090
:1010540061F034C063F038C034F063C038F035C098
:1010640063F039C035F063C039F036C063F03AC07C
:1010740036F063C03AF037C063F03BC037F063C06A
:101084003BF0000E636F625161C03CF03D6A3C5E10
:10109400000E3D5A3DBE58EF08F03D5009E11A0ECE
:1010A4003C5CD8A058EF08F05AEF08F091EF08F034
:1010B4003450351036103710D8A463EF08F066EFBB
:1010C40008F0010E67EF08F0000E636F000E346E37
:1010D400000E356E000E366E000E376E61C062F083
:1010E4009AEF08F063A179EF08F07BEF08F081EF45
:1010F40008F0D89063310109636F83EF08F0D8904A
:10110400633334A088EF08F08AEF08F08BEF08F01F
:10111400638F37343732363235323432622B615191
:10112400625DD8A098EF08F09AEF08F074EF08F029
:1011340060BD9FEF08F0A1EF08F0E1EF08F0625105
:10114400D8A4A7EF08F0A9EF08F0B3EF08F0000E59
:10115400346E000E356E000E366E000E376E02EFE2
:101164000AF038503426395035223A5036223B5052
:10117400372237A0C0EF08F0C2EF08F06EEF09F095
:1011840063A1C7EF08F0C9EF08F0CFEF08F0D890DB
:1011940063310109636FD1EF08F0D890633334A051
:1011A400D6EF08F0D8EF08F0D9EF08F0638F3734A2
:1011B4003732363235323432622B6EEF09F0385022
:1011C400345C395035583A5036583750800A3C6EA2
:1011D4003B50800A3C58D8B0F2EF08F0F4EF08F026
:1011E4001FEF09F03450385C3C6E355039583D6E71
:1011F40036503A583E6E37503B583F6EFF0E3C24F3
:10120400346EFF0E3D20356EFF0E3E20366EFF0E0F
:101214003F20376E800E601B636D6351D8A415EFB9
:1012240009F017EF09F027EF09F0010E3426000E3C
:1012340035223622372227EF09F03850345E3950F0
:10124400355A3A50365A3B50375A345035103610C6
:101254003710D8A430EF09F032EF09F067EF09F046
:101264006351D8A438EF09F03AEF09F067EF09F0B9
:10127400000E346E000E356E000E366E000E376EA4
:1012840002EF0AF0D890343635363636373663AF47
:101294004EEF09F050EF09F051EF09F0348063A1EB
:1012A40056EF09F058EF09F05CEF09F0D880633786
:1012B4005EEF09F0D89063376251D8B464EF09F057
:1012C40066EF09F067EF09F0620736AE6CEF09F0DC
:1012D4006EEF09F044EF09F0000E616F63AF75EF34
:1012E40009F077EF09F08FEF09F063C03CF07F0E4F
:1012F4003C16D8B480EF09F082EF09F086EF09F0CC
:10130400010E616F8FEF09F034A08BEF09F08DEFC0
:1013140009F08FEF09F082EF09F06151D8B495EF2D
:1013240009F097EF09F0C2EF09F0010E3426000E20
:1013340035223622372237A0A2EF09F0A4EF09F0B4
:10134400C2EF09F034C03CF035C03DF036C03EF089
:1013540037C03FF03F343F323E323D323C323CC036
:1013640034F03DC035F03EC036F03FC037F062295E
:10137400D8B4BFEF09F0C1EF09F0C2EF09F0622B56
:101384006229D8B4C8EF09F0CAEF09F0D2EF09F026
:101394006251D8A4D0EF09F0D2EF09F0E4EF09F0DC
:1013A400000E346E000E356E000E366E000E376E73
:1013B4006251D8A4E0EF09F0E2EF09F0E4EF09F09C
:1013C400000E606F62A1E9EF09F0EBEF09F0EEEFB8
:1013D40009F0368EEFEF09F0369ED8906231376E01
:1013E40060AFF7EF09F0F9EF09F0FAEF09F0378E83
:1013F40034C034F035C035F036C036F037C037F07D
:1014040012001E50800B276E1E501E242D6E1DAE22
:101414000EEF0AF010EF0AF011EF0AF02D802D50B4
:10142400D8B417EF0AF019EF0AF02CEF0AF02D28C0
:10143400D8A41FEF0AF021EF0AF029EF0AF0000EFA
:101444001B6E000E1C6E000E1D6E000E1E6E1D8E99
:1014540034EF0AF0000E1B6E000E1C6E000E1D6EA3
:10146400000E1E6E2250800B271A225022242C6E4E
:1014740021AE3FEF0AF041EF0AF042EF0AF02C8070
:101484002C50D8B448EF0AF04AEF0AF05DEF0AF0A6
:101494002C28D8A450EF0AF052EF0AF05AEF0AF0C1
:1014A400000E1F6E000E206E000E216E000E226EC6
:1014B400218E65EF0AF0000E1F6E000E206E000EE6
:1014C400216E000E226E2C50D8B46BEF0AF06DEF33
:1014D4000AF075EF0AF02D50D8A473EF0AF075EFF7
:1014E4000AF07FEF0AF0000E1B6E000E1C6E000E59
:1014F4001D6E000E1E6E17EF0CF021501B02F3CF71
:1015040032F0F4CF33F03250286E296A2A6A2B6AFB
:1015140033502E6E2F6A306A316A20501C02F3CF8A
:1015240032F0F4CF33F032502826000E29222A223A
:101534002B2233502E26000E2F22302231221F5010
:101544001D02F3CF32F0F4CF33F032502826000ED0
:1015540029222A222B2233502E26000E2F2230221B
:1015640031222AC02BF029C02AF028C029F0286A89
:101574001F501C02F3CF32F0F4CF33F03250282640
:1015840033502922000E2A22000E2B2220501B0247
:10159400F3CF32F0F4CF33F03250282633502922DF
:1015A400000E2A22000E2B222AC02BF029C02AF07A
:1015B40028C029F0286A1F501B02F3CF32F0F4CF61
:1015C40033F03250282633502922000E2A22000EEE
:1015D4002B2221501C02F3CF32F0F4CF33F03250DF
:1015E4002E2633502F22000E3022000E312220509E
:1015F4001D02F3CF32F0F4CF33F032502E263350A5
:101604002F22000E3022000E312221501D02F3CF72
:1016140032F0F4CF33F03250236E3350246E256A07
:10162400266A25C026F024C025F023C024F0236AAE
:1016340023502E2624502F2225503022265031228A
:1016440028C023F029C024F02AC025F02BC026F09E
:10165400190E32EF0BF0D890263225322432233281
:10166400E82E2DEF0BF023502E2624502F22255048
:101674003022265031222AC02BF029C02AF028C05B
:1016840029F0286A2C502DC023F0246A2326000E4A
:101694002422820E2324326EFF0E2420336E68EF40
:1016A4000BF0D8902E362F36303631362BAE5DEF18
:1016B4000BF05FEF0BF060EF0BF02E80D890283624
:1016C40029362A362B363206D8A0330630AE6DEFD3
:1016D4000BF06FEF0BF053EF0BF0000E2C6E2BAEF4
:1016E40076EF0BF078EF0BF09CEF0BF0FF0E281465
:1016F400236EFF0E2914246EFF0E2A14256E7F0E0E
:101704002B14266E2350241025102610D8B48DEFE8
:101714000BF08FEF0BF093EF0BF0010E2C6E9CEFA0
:101724000BF02EA098EF0BF09AEF0BF09CEF0BF060
:101734008FEF0BF02C50D8B4A2EF0BF0A4EF0BF00A
:10174400C8EF0BF0010E2E26000E2F22302231227C
:1017540031A0AFEF0BF0B1EF0BF0C8EF0BF02EC0E0
:1017640023F02FC024F030C025F031C026F02634F9
:10177400263225322432233223C02EF024C02FF007
:1017840025C030F026C031F0324A332A33BED3EFBD
:101794000BF0335008E13228D8A0D3EF0BF0D5EF8B
:1017A4000BF0DFEF0BF0000E2E6E000E2F6E800E8E
:1017B400306E7F0E316E0DEF0CF033BEECEF0BF09C
:1017C400335006E13204D8B0EAEF0BF0ECEF0BF043
:1017D400F8EF0BF0000E2E6E000E2F6E000E306E22
:1017E400000E316E000E276E0DEF0CF032C02DF09E
:1017F400FF0E2E16FF0E2F167F0E3016000E31161A
:101804002DA007EF0CF009EF0CF00AEF0CF0308E6E
:10181400D8902D30316E275031122EC01BF02FC0BE
:101824001CF030C01DF031C01EF012009CEC1BF007
:10183400968AF28EF28C5A0E0001AF6F330EB06F9F
:10184400000EB16F5E0EAC6F370EAD6F000EAE6F53
:1018540020EEACF000EE29F0050EDBCFEBFFE8063E
:10186400FCE20BEC17F00001BC05D8A43CEF0CF033
:101874003EEF0CF0ADEF0CF0000EBC6F8FB045EFF7
:101884000CF047EF0CF05DEF0CF0FB0E5026FF0E52
:10189400512251BE59EF0CF0515007E1140E505C27
:1018A400D8B057EF0CF059EF0CF05DEF0CF0000ED0
:1018B400516E780E506E8FB262EF0CF064EF0CF044
:1018C4007AEF0CF0050E5026000E512251BE74EF33
:1018D4000CF0515009E1790E505CD8A074EF0CF073
:1018E40076EF0CF07AEF0CF0000E516E140E506E81
:1018F4008FB47FEF0CF081EF0CF090EF0CF0FB0E47
:101904004E26FF0E4F224FBE8CEF0CF08AEF0CF0E8
:1019140090EF0CF0000E4F6E640E4E6E8FB695EF86
:101924000CF097EF0CF0ADEF0CF0050E4E26000E08
:101934004F224FBEA7EF0CF04F5009E1650E4E5CED
:10194400D8A0A7EF0CF0A9EF0CF0ADEF0CF0000E4F
:101954004F6E000E4E6EBA05D8A4B3EF0CF0B5EF7F
:101964000CF001EF0DF0000EBA6F010EF66F200EB1
:10197400876F010E886F050E896F0F0E8A6F46C040
:101984008BF047C08CF0000E8E6FDF0E8D6F44C05D
:101994008FF045C090F0000E926F250E916F50C0ED
:1019A40093F051C094F0000E966FDF0E956F4EC009
:1019B40097F04FC098F0000E9A6F250E996FC0EC07
:1019C40018F0200E216E010E226E20EEACF000EE17
:1019D40023F0050EDBCFEBFFE806FCE28FEC18F0FA
:1019E400000E226E020E216E20EEACF000EE23F00B
:1019F400050EDBCFEBFFE806FCE22FEC1AF000014A
:101A0400F605D8A408EF0DF00AEF0DF035EF0CF051
:101A1400000EF66F1B0E35EC1BF00DC0D7F00EC098
:101A2400D8F03C0E35EC1BF0140E35EC1BF00DC059
:101A3400D5F00EC0D6F0000E1F6E400E206E4E0E76
:101A4400216E430E226ED7C00DF0D8C00EF00F6A7F
:101A5400106A000ED2EC10F00DC01BF00EC01CF08A
:101A64000FC01DF010C01EF003EC0AF01BC0A8F05C
:101A74001CC0A9F01DC0AAF01EC0ABF0000E386E49
:101A8400800E396E720E3A6EC20E3B6E070E1F6EDA
:101A9400200E206E800E216E3A0E226EA8C01BF01E
:101AA400A9C01CF0AAC01DF0ABC01EF003EC0AF0E4
:101AB4001BC034F01CC035F01DC036F01EC037F01A
:101AC400A2EC07F034C064F035C065F036C066F0AF
:101AD40037C067F0E1EC14F064C046F065C047F02D
:101AE400000E1F6E000E206EFA0E216E420E226E44
:101AF400D5C00DF0D6C00EF00F6A106A000ED2ECFD
:101B040010F00DC01BF00EC01CF00FC01DF010C073
:101B14001EF003EC0AF01BC0A8F01CC0A9F01DC005
:101B2400AAF01EC0ABF0000E386E000E396E480EDF
:101B34003A6EC10E3B6E070E1F6E200E206E800E95
:101B4400216E3A0E226EA8C01BF0A9C01CF0AAC0D8
:101B54001DF0ABC01EF003EC0AF01BC034F01CC037
:101B640035F01DC036F01EC037F0A2EC07F034C0CB
:101B740064F035C065F036C066F037C067F0E1EC5C
:101B840014F064C044F065C045F035EF0CF0C0EFCC
:101B940001F03CC0D9FF3DC0DAFFDECFF6FFDDCF58
:101BA400F7FF000EF86E0800F550250AD8A4DDEF03
:101BB4000DF0DFEF0DF042EF0FF03CC0D9FF3DC058
:101BC400DAFFDE2A000EDD22000E416E000E406EAA
:101BD40040C042F041C043F00001B469B5693CC063
:101BE400D9FF3DC0DAFFDECFF6FFDDCFF7FF000EF1
:101BF400F86E0800F5502A0AD8A403EF0EF005EF9A
:101C04000EF02EEF0EF03CC0D9FF3DC0DAFFDE2A05
:101C1400000EDD223EC0D9FF3FC0DAFFDFCF72F0F5
:101C2400020EDE26DFCF73F0000EDD2272C0D9FF74
:101C340073C0DAFFDECF40F0DDCF41F041BE27EFC5
:101C44000EF025EF0EF067EF0EF04280406C411E5F
:101C5400D8B0412A67EF0EF03CC0D9FF3DC0DAFF8F
:101C6400DECF14F0DDCF15F070EC12F014C040F0AC
:101C740015C041F045EF0EF03CC0D9FF3DC0DAFF7E
:101C8400DE2A000EDD22D00E0001726FFF0E736F8C
:101C94003CC0D9FF3DC0DAFFDECFF6FFDDCFF7FF52
:101CA400000EF86E0800F550746F756B725174274E
:101CB40073517523755109E10A0E745DD8A065EF5F
:101CC4000EF067EF0EF03EEF0EF03CC0D9FF3DC0C2
:101CD400DAFFDECFF6FFDDCFF7FF000EF86E080067
:101CE400F550630AD8A479EF0EF07BEF0EF0A2EF63
:101CF4000EF03CC0D9FF3DC0DAFFDE2A000EDD2223
:101D04003EC0D9FF3FC0DAFFDFCF72F0020EDE26FD
:101D1400DFCF73F0000EDD2272C0D9FF73C0DAFF8B
:101D2400DF507E6F3AC016F03BC017F07EC018F04B
:101D3400D8EC15F016C03AF017C03BF05FEF0FF087
:101D44003CC0D9FF3DC0DAFFDECFF6FFDDCFF7FFA1
:101D5400000EF86E0800F550640AD8B4B4EF0EF023
:101D6400B6EF0EF0CAEF0EF03CC0D9FF3DC0DAFF6B
:101D7400DECFF6FFDDCFF7FF000EF86E0800F5505A
:101D8400690AD8A4C8EF0EF0CAEF0EF00AEF0FF0FC
:101D94003CC0D9FF3DC0DAFFDE2A000EDD223EC082
:101DA400D9FF3FC0DAFFDFCF72F0020EDE26DFCFAD
:101DB40073F0000EDD2272C0D9FF73C0DAFFDECFEC
:101DC40076F0DDCF77F0000E77BFFF0E786F796F76
:101DD4007A6F7B6F7C6F7D6F3AC028F03BC029F02F
:101DE40076C02AF077C02BF078C02CF079C02DF0A3
:101DF4007AC02EF07BC02FF07CC030F07DC031F073
:101E040060EC0FF028C03AF029C03BF05FEF0FF010
:101E14003CC0D9FF3DC0DAFFDECFF6FFDDCFF7FFD0
:101E2400000EF86E0800F550250AD8A41CEF0FF038
:101E34001EEF0FF035EF0FF03CC0D9FF3DC0DAFFC5
:101E4400DE2A000EDD22000E0E6E250E0D6E3AC047
:101E54000FF03BC010F042EC16F0000E3B6E010E8A
:101E64003A6E5FEF0FF03CC0D9FF3DC0DAFFDE2AC7
:101E7400000EDD22000E3B6E000E3A6E5FEF0FF097
:101E84003CC0D9FF3DC0DAFFDECFF6FFDDCFF7FF60
:101E9400000EF86E0800F5500D6E0E6A3AC00FF091
:101EA4003BC010F042EC16F03CC0D9FF3DC0DAFF55
:101EB400DE2A000EDD222FEF0FF012002AC068F098
:101EC4002BC069F02CC06AF02DC06BF02EC06CF0F2
:101ED4002FC06DF030C06EF031C06FF000016FBFE5
:101EE40076EF0FF079EF0FF0010E7AEF0FF0000E9E
:101EF400666F676B66516711D8B483EF0FF085EF97
:101F04000FF095EF0FF06F1F6E1F6D1F6C1F6B1F8F
:101F14006A1F691F686D000E69236A236B236C2393
:101F24006D236E236F23B5BF9AEF0FF09CEF0FF074
:101F34009DEF0FF04292B5BFAAEF0FF0B55106E145
:101F4400B405D8B0A8EF0FF0AAEF0FF0B0EF0FF080
:101F5400000E636F010E626FB4EF0FF0B4C062F055
:101F6400B5C063F040C064F041C065F066516711CC
:101F7400D8A4BFEF0FF0C1EF0FF0C8EF0FF042A4E9
:101F8400C6EF0FF0C8EF0FF0CBEF0FF06407D8A047
:101F94006507000E716F1F0E706F000E01011F6F39
:101FA40051EF10F07007D8A07107000E7025D96E9C
:101FB400010E7121DA6E68C00DF069C00EF06AC0BE
:101FC4000FF06BC010F06CC011F06DC012F06EC059
:101FD40013F06FC014F00A0E156E000E166E000E8C
:101FE400176E000E186E000E196E000E1A6E000E9B
:101FF4001B6E000E1C6E25EC13F00DC032F00EC0EB
:1020040033F00FC034F010C035F011C036F012C0F8
:1020140037F013C038F014C039F032C01FF034C0A8
:1020240020F0F3EC19F01F50300FDF6E000162074F
:10203400D8A063076407D8A0650768C00DF069C01D
:102044000EF06AC00FF06BC010F06CC011F06DC0E0
:1020540012F06EC013F06FC014F00A0E156E000E6D
:10206400166E000E176E000E186E000E196E000E1E
:102074001A6E000E1B6E000E1C6EACEC11F00DC03F
:1020840068F00EC069F00FC06AF010C06BF011C0A8
:102094006CF012C06DF013C06EF014C06FF000014C
:1020A40071BF5DEF10F0715108E17005D8A05DEFCC
:1020B40010F05FEF10F08FEF10F0685169116A11A2
:1020C4006B116C116D116E116F11D8A46CEF10F0BF
:1020D4006EEF10F0D4EF0FF063BF7BEF10F063519D
:1020E40006E16205D8B079EF10F07BEF10F0D4EF81
:1020F4000FF065BF86EF10F0655108E16405D8A0C4
:1021040086EF10F088EF10F08FEF10F042B28DEFF1
:1021140010F08FEF10F0D4EF0FF066516711D8A4D0
:1021240096EF10F098EF10F09FEF10F042A49DEF9F
:1021340010F09FEF10F0BDEF10F07007D8A07107FA
:1021440066516711D8A4A9EF10F0ABEF10F0B1EF0E
:1021540010F0000E616F2B0E606FB5EF10F0000EE3
:10216400616F2D0E606F000E7025D96E010E712106
:10217400DA6E60C0DFFF28C01DF029C01EF0000E1B
:1021840070251F6E010E7121206E64C021F065C0A0
:1021940022F06EEC17F01DC028F01EC029F01200CA
:1021A400156E1550D8B4D9EF10F0DBEF10F0FDEF39
:1021B40010F010BEE2EF10F0E0EF10F0FDEF10F0C1
:1021C4000DC011F00EC012F00FC013F010C014F0C7
:1021D400111E121E131E141E112A000E1222132287
:1021E400142211C017F012C018F013C019F014C053
:1021F4001AF005EF11F00DC017F00EC018F00FC063
:1022040019F010C01AF00D500E100F101010D8A4B1
:102214000EEF11F010EF11F01AEF11F0000E0D6E29
:10222400000E0E6E000E0F6E000E106EABEF11F06E
:10223400960E166E24EF11F0162AD8901A3219321F
:1022440018321732000E1714116E000E1814126E85
:10225400000E1914136EFE0E1A14146E115012107F
:1022640013101410D8A439EF11F03BEF11F01EEF46
:1022740011F049EF11F0162A010E1726000E18224C
:1022840019221A22D8901A32193218321732000E33
:102294001714116E000E1814126E000E1914136E1A
:1022A400FF0E1A14146E1150121013101410D8A427
:1022B4005EEF11F060EF11F03DEF11F068EF11F0F7
:1022C4001606D8901736183619361A3619BE6DEF19
:1022D40011F06FEF11F077EF11F0020E166075EF49
:1022E40011F077EF11F062EF11F016B07CEF11F0FE
:1022F4007EEF11F07FEF11F0199ED890163216C0C0
:1023040011F0126A136A146A11C014F0136A126A83
:10231400116A115017121250181213501912145036
:102324001A121550D8B499EF11F09BEF11F0A3EFE6
:1023340011F010BEA2EF11F0A0EF11F0A3EF11F015
:102344001A8E17C00DF018C00EF019C00FF01AC085
:1023540010F01200000E1E6E1CBEB5EF11F0B3EFAC
:1023640011F0C7EF11F01C1E1B1E1A1E191E181E99
:10237400171E161E156C000E16221722182219227B
:102384001A221B221C22010E1E6E14BECEEF11F067
:10239400CCEF11F0E0EF11F0141E131E121E111EEB
:1023A400101E0F1E0E1E0D6C000E0E220F22102288
:1023B4001122122213221422010E1E1A20EE1FF0E3
:1023C400070EDE6AE806FDE2155016101710181005
:1023D40019101A101B101C10D8B4F3EF11F0F5EFFC
:1023E40011F047EF12F0010E1D6E03EF12F0D890BA
:1023F400153616361736183619361A361B361C3665
:102404001D2A1CAE08EF12F00AEF12F0F9EF11F0DA
:10241400D8901F36203621362236233624362536E8
:10242400263615500D5C16500E5817500F5818507C
:102434001058195011581A5012581B5013581C5048
:102444001458D8A028EF12F02AEF12F03BEF12F044
:1024540015500D5E16500E5A17500F5A1850105A38
:102464001950115A1A50125A1B50135A1C50145A0C
:102474001F80D8901C321B321A321932183217328C
:10248400163215321D2E0AEF12F01E50D8B44DEF3D
:1024940012F04FEF12F05FEF12F0261E251E241EDD
:1024A400231E221E211E201E1F6C000E202221220C
:1024B400222223222422252226221FC00DF020C0FE
:1024C4000EF021C00FF022C010F023C011F024C080
:1024D40012F025C013F026C014F01200000E1D6E79
:1024E400000E1C6E000E1B6E000E1A6E7CEF12F0B6
:1024F400144A152A14C0F6FF15C0F7FF000EF86E33
:102504000800F550200AD8B48AEF12F08CEF12F0CC
:102514007AEF12F0F70E166EFF0E176E14C0F6FF68
:1025240015C0F7FF000EF86E0800F550186E196A12
:102534001650182617501922195009E1050E185C77
:10254400D8A0A7EF12F0A9EF12F07AEF12F0B3EFD0
:1025540012F0000E1B6E010E1A6E144A152AECEFCF
:1025640012F014C0F6FF15C0F7FF000EF86E080055
:10257400F550166E176A1750000AD8B4C4EF12F05B
:10258400ECEF12F016502B0AD8B4AFEF12F0060A93
:10259400D8B4ABEF12F0ECEF12F01CC00DF01DC07C
:1025A4000EF0000E106E0A0E0F6E89EC1BF014C0B4
:1025B400F6FF15C0F7FF000EF86E0800F5500D5E2B
:1025C400000E0E5A300E0D241C6E000E0E201D6ED1
:1025D400AFEF12F0D00E166EFF0E176E14C0F6FF9A
:1025E40015C0F7FF000EF86E0800F550186E196A52
:1025F4001650182617501922195009E10A0E185CB2
:10260400D8A007EF13F009EF13F0CFEF12F01A5030
:102614001B10D8A410EF13F012EF13F020EF13F0F7
:102624001CC016F01DC017F0161E171E164A172AD6
:1026340016C014F017C015F024EF13F01CC014F0EA
:102644001DC015F01200000E1E6E14BE2EEF13F006
:102654002CEF13F040EF13F0141E131E121E111E64
:10266400101E0F1E0E1E0D6C000E0E220F221022C5
:102674001122122213221422010E1E6E1CBE47EFD9
:1026840013F045EF13F057EF13F01C1E1B1E1A1E18
:10269400191E181E171E161E156C000E1622172260
:1026A400182219221A221B221C2215501610171048
:1026B400181019101A101B101C10D8B464EF13F062
:1026C40066EF13F0AEEF13F0010E1D6E74EF13F00E
:1026D400D890153616361736183619361A361B366C
:1026E4001C361D2A1CAE79EF13F07BEF13F06AEF52
:1026F40013F015500D5C16500E5817500F58185003
:102704001058195011581A5012581B5013581C5075
:102714001458D8A090EF13F092EF13F0A2EF13F037
:1027240015500D5E16500E5A17500F5A1850105A65
:102734001950115A1A50125A1B50135A1C50145A39
:10274400D8901C321B321A32193218321732163210
:1027540015321D2E7BEF13F01E50D8B4B4EF13F0D6
:10276400B6EF13F0C6EF13F0141E131E121E111E43
:10277400101E0F1E0E1E0D6C000E0E220F221022B4
:1027840011221222132214220DC00DF00EC00EF0DD
:102794000FC00FF010C010F011C011F012C012F0F1
:1027A40013C013F014C014F01200FD0E116EFF0ECE
:1027B400126EF00E0F14136E000E1014146E0D0E24
:1027C4001312000E141211501316125014160DC0C9
:1027D400D9FF0EC0DAFF13C0DEFF14C0DDFFF90E0F
:1027E400116EFF0E126EF00E0F14136E000E101405
:1027F400146E090E1312000E1412115013161250F7
:10280400141620EE02F00D50D9260E50DA2213C011
:10281400DEFF14C0DDFFFD0E116EFF0E126E0FC041
:1028240013F010C014F0133A143AF00E14161350A7
:102834000F0B1412F00E1316F00E1316000E1416CE
:102844000D0E1312000E14121150131612501416FA
:1028540020EE04F00D50D9260E50DA2213C0DEFF0C
:1028640014C0DDFFF90E116EFF0E126E0FC013F0CF
:1028740010C014F0133A143AF00E141613500F0B40
:102884001412F00E1316F00E1316000E1416090E81
:102894001312000E1412115013161250141620EEB7
:1028A40006F00D50D9260E50DA2213C0DEFF14C0F4
:1028B400DDFF1200FC0E116EFF0E126EF00E0F14EF
:1028C400136E000E1014146E0C0E1312000E14125C
:1028D40011501316125014160DC0D9FF0EC0DAFF92
:1028E40013C0DEFF14C0DDFFF80E116EFF0E126E72
:1028F400F00E0F14136E000E1014146E080E131243
:10290400000E1412115013161250141620EE02F079
:102914000D50D9260E50DA2213C0DEFF14C0DDFF9D
:10292400FC0E116EFF0E126E0FC013F010C014F0E7
:10293400133A143AF00E141613500F0B1412F00E2F
:102944001316F00E1316000E14160C0E1312000EAE
:102954001412115013161250141620EE04F00D50D8
:10296400D9260E50DA2213C0DEFF14C0DDFFF80EA4
:10297400116EFF0E126E0FC013F010C014F0133A54
:10298400143AF00E141613500F0B1412F00E131603
:10299400F00E1316000E1416080E1312000E141265
:1029A400115013161250141620EE06F00D50D926AD
:1029B4000E50DA2213C0DEFF14C0DDFF1200000146
:1029C400663567356D6F6D51D8A4EBEF14F0EDEFFC
:1029D40014F0F7EF14F0000E646F000E656F000E34
:1029E400666F000E676F64EF15F064C068F065C031
:1029F40069F066C06AF067C06BF0200E07EF15F04F
:102A0400D8906B336A3369336833E82E02EF15F0DC
:102A140068516C6F668FFF0E6417FF0E6517FF0E0B
:102A24006617000E6717960E6D5F6DBF1EEF15F0EB
:102A34001CEF15F034EF15F06D51800A970FD8B0E4
:102A440026EF15F028EF15F02AEF15F0EDEF14F04E
:102A5400D89067336633653364336D3F2AEF15F0DE
:102A64004CEF15F01F0E6D653AEF15F03CEF15F0C5
:102A740044EF15F0EDEF14F0D890643765376637FE
:102A840067376D076D51D8A44AEF15F04CEF15F078
:102A94003EEF15F06C51D8B452EF15F054EF15F029
:102AA4005CEF15F0671F661F651F646D000E6523DC
:102AB4006623672364C064F065C065F066C066F091
:102AC40067C067F01200000E876E000E866E010E5E
:102AD400836E000E846E0F0E856E070E8C6EF80EDC
:102AE400886EC00E896E1F0E8A6E8B680F01266970
:102AF400F00E216F9F0E196F070E2E6F1169000ED5
:102B0400256F000E2D6F000E186F000E106F000E53
:102B1400206F000E2C6F000E0F6F000E176F000E4B
:102B24001F6F000E246F0E6916691E692369070E54
:102B34002B6F0D6915691D6922690F0E2A6F1A9191
:102B44001A931A951A971B811B831B851B871C914B
:102B54001C931C951C97AC0E0D6E380E0E6E000E59
:102B64000F6E3CEC1CF0AA0E0D6E380E0E6E000EAD
:102B74000F6E35EC1CF0A80E0D6E380E0E6E000EA6
:102B84000F6E2EEC1CF0A60E0D6E380E0E6E000E9F
:102B94000F6E27EC1CF00E01C2890D0EB76F0F0EDD
:102BA400F46F100EF36F0E0EB86F12004050411008
:102BB400D8A4DFEF15F0E1EF15F0E7EF15F040C012
:102BC4001CF041C01DF0EDEF15F0FF0E40241C6E0B
:102BD400FF0E41201D6E42A0F2EF15F0F4EF15F048
:102BE400FDEF15F018C00DF00E6A16C00FF017C0F7
:102BF40010F042EC16F01DBE02EF16F004EF16F0D2
:102C040006EF16F00AEF16F0000E1D6E000E1C6E95
:102C1400000E1B6E000E1A6E1CEF16F0000E0E6EE8
:102C2400200E0D6E16C00FF017C010F042EC16F017
:102C34001A4A1B2A1C501A5C1B50800A196E1D501C
:102C4400800A1958D8A029EF16F02BEF16F010EFD0
:102C540016F042B030EF16F032EF16F03BEF16F0FC
:102C640018C00DF00E6A16C00FF017C010F042EC39
:102C740016F0010E1A24166E000E1B20176E120099
:102C84000F501010D8B449EF16F04BEF16F054EF74
:102C940016F00F501010D8A452EF16F054EF16F09F
:102CA40059EF16F00D504FEC1CF0A6EF16F020EE85
:102CB40009F00F50D9261050DA22DE50DE10D8B4B5
:102CC40066EF16F068EF16F083EF16F020EE09F0C9
:102CD4000F50D9261050DA2210EE03F00F50E126DF
:102CE4001050E222DE50E65CE650800A156EDE509B
:102CF400800A1558D8B081EF16F083EF16F0A6EFCE
:102D040016F020EE03F00F50D9261050DA22DECF51
:102D140011F0DDCF12F00FC0D9FF10C0DAFFDECF03
:102D240013F0DDCF14F011501324D96E1250142077
:102D3400DA6E0DC0DFFF20EE03F00F50D9261050DD
:102D4400DA22DE2A000EDD22120002000400060050
:102D540008000A000C000E001000120014001600F7
:102D640018001B001D001F00210023002500270060
:102D740029002B002D002F003100330035003700CF
:102D840039003B003D003F0041004300450047003F
:102D940049004B004E0050005200540056005800A9
:102DA4005A005C005E00600062006400660064001B
:102DB400620060005E005C005A0058005600540037
:102DC400520050004E004B004900470045004300AC
:102DD40041003F003D003B0039003700350033001F
:102DE40031002F002D002B0029002700250023008F
:102DF40021001F001D001B00180016001400120003
:102E040010000E000C000A00080006000400020076
:102E14000000000E226E330E216E20EE29F000EE2B
:102E240023F0050EDBCFEBFFE806FCE22FEC1AF0F3
:102E3400000E226E320E216E20EE29F000EE23F0F9
:102E4400050EDBCFEBFFE806FCE22FEC1AF0000ED8
:102E5400226E280E216E20EE29F000EE23F0050EDE
:102E6400DBCFEBFFE806FCE22FEC1AF0000E226E3B
:102E74000C0E216E20EE29F000EE23F0050EDBCFC0
:102E8400EBFFE806FCE22FEC1AF0000E226E010EB6
:102E9400216E20EE29F000EE23F0050EDBCFEBFFD0
:102EA400E806FCE22FEC1AF0100E0D6E270E0E6EE3
:102EB400000E0F6E000E106E20EE2CF002D86DEF97
:102EC40017F00500FA6EDE50FD6EDE50FE6EDE5029
:102ED400FF6EFA501200120042A073EF17F075EF64
:102EE40017F07FEF17F01FC016F020C017F01DC0B9
:102EF40018F01EC019F0D1EC19F022BE84EF17F0BF
:102F040086EF17F08CEF17F021C026F022C027F0CF
:102F140090EF17F0000E276E000E266E000E256E41
:102F2400000E246EA2EF17F0000E0E6E200E0D6E32
:102F34001DC00FF01EC010F042EC16F0244A252AE2
:102F44002650245C2550800A236E2750800A23587B
:102F5400D8A0AFEF17F0B1EF17F096EF17F042B02B
:102F6400B6EF17F0B8EF17F0C2EF17F01FC016F066
:102F740020C017F01DC018F01EC019F0D1EC19F0D4
:102F84001FC00DF020C00EF04BEC1AF026500D249B
:102F94001D6E27500E201E6E12004E0EF66E2D0E64
:102FA400F76E000EF86E02EE00F010EEC8F00900A5
:102FB400F5CFEEFFE550E150FAE1950EF66E380ECE
:102FC400F76E000EF86E00EEF2F010EE05F0090058
:102FD400F5CFEEFFE550E150FAE1900EF66E380EB3
:102FE400F76E000EF86E00EE4EF010EE05F00900DC
:102FF400F5CFEEFFE550E150FAE103EE00F0C80E24
:10300400EE6AE806FDE101EE00F0400EEE6AE80625
:10301400FDE100EEB2F0270EEE6AE806FDE100EEF7
:1030240040F00E0EEE6AE806FDE153905392000163
:1030340018EF0CF0000E206E52EF18F002D83AEFA1
:1030440018F00500FA6E1750FD6E1850FE6E1950F8
:10305400FF6EFA502050020DF3CF1EF0F4CF1FF094
:103064001E501524D96E1F501620DA6EDF50120040
:10307400640E0D6E000E0E6E000E0F6E000E106EBE
:1030840020EE1AF002D851EF18F00500FA6EDE5067
:10309400FD6EDE50FE6EDE50FF6EFA501200202AE6
:1030A4001D50205CD8A059EF18F05BEF18F020EF0A
:1030B40018F0120081C085F082C086F0000E000175
:1030C400B36F000EB26F7AEF18F07FC03AF080C091
:1030D4003BF0850E3C6E000E3D6E83C03EF084C016
:1030E4003FF0CBEC0DF03A500001B2273B50B32334
:1030F40085C0F6FF86C0F7FF000EF86E0800F55095
:103104000009D8A488EF18F08AEF18F067EF18F0D8
:10311400B2C07FF0B3C080F01200B3EF18F0C50E58
:103124000D6E000E0E6E21C0D9FF22C0DAFFDF50F3
:10313400296E29500F6E106AD7EC13F0C50E156E68
:10314400000E166E20EE23F000EE17F0050EDBCF16
:10315400EBFFE806FCE2040E1D6E1CEC18F0214A9D
:10316400222A21C0D9FF22C0DAFFDF50D8A4BDEF44
:1031740018F0BFEF18F091EF18F012008B0E000159
:103184009B6F000E9C6F87C09DF088C09EF0000E60
:10319400A16F000EA06F000EA76F000EA66F9D0E0C
:1031A4007F6F000E806F89C081F08AC082F09B0E11
:1031B400836F000E846F5CEC18F00001A05187252A
:1031C400D96EA1518821DA6E000EDF6E1200010E55
:1031D400136E200E0D180E10D8B4F3EF18F0F5EF9F
:1031E40018F00EEF19F0F70E0F6EFF0E106E0DC0F3
:1031F40011F00EC012F00F5011261050122212506E
:1032040009E1050E115CD8A00AEF19F00CEF19F0D2
:103214000EEF19F0000E136E13C00DF00E6A1200BB
:103224000F011AA118EF19F01AEF19F01CEF19F099
:10323400B7EC1AF00F011AA322EF19F024EF19F0DA
:1032440026EF19F09CEC1AF00F011AA52CEF19F0D7
:103254002EEF19F030EF19F081EC1AF00F011AA7D4
:1032640036EF19F038EF19F03AEF19F066EC1AF06E
:103274001200000E6A6E000E6B6E000E6C6E000E75
:103284006D6E000E686E000E696E000E666E000EA6
:103294000F015F6F000E5D6F000E5E6F000E596FC1
:1032A400000E5A6F000E5B6F000E656E000E586FB5
:1032B400000E566F3F0E576F840E606EC80E5C6F23
:1032C4001200000ECA6E000ECB6E040ECC6EFC0E05
:1032D400C86E370EC76E0E01CE95C750C8CF10F01A
:1032E400116A10C011F0106A10100001EE6F115035
:1032F400EF6F0E01C685A00E0D6E380E0E6E000E19
:103304000F6E12EC1CF0310EC96E1200000ED06E5E
:10331400000ED16E040ED26EF80ECE6E6E0ECD6E11
:103324000E01CE91CD50CECF10F0116A10C011F025
:10333400106A10100001F06F1150F16F0E01C68178
:10334400A40E0D6E380E0E6E000E0F6E20EC1CF0E7
:10335400310ECF6E1200000E116E000E126E000EB2
:10336400136E000E146EC1EF19F0050EE82EFED791
:1033740000F0010E1126000E1222132214220D5009
:10338400115C0E5012580F50135810501458D8A0F6
:10339400CEEF19F0D0EF19F0B7EF19F01200000ECC
:1033A4001C6E000E1B6EE2EF19F01AC00DF00E6ACF
:1033B40018C00FF019C010F042EC16F01B4A1C2A7A
:1033C4001B501624D96E1C501720DA6EDF501A6E6B
:1033D4001A50D8A4F0EF19F0F2EF19F0D7EF19F062
:1033E400120020BE00EF1AF0205006E11F04D8B0EE
:1033F400FEEF19F000EF1AF00EEF1AF01FC021F0E3
:1034040020C022F0211E221E214A222A21C01FF0A0
:1034140022C020F012EF1AF01FC01FF020C020F0CD
:103424001200D00E0F6EFF0E106E0DC011F00EC004
:1034340012F00F5011261050122212500AE10A0EF7
:10344400115CD8A028EF1AF02BEF1AF0010E2CEF24
:103454001AF0000E0D6E0E6A1200CD0E0D6E000EE7
:103464000E6E21C00FF022C010F05CEC14F0CD0EF3
:10347400156E000E166E20EE23F000EE17F0050E0A
:10348400DBCFEBFFE806FCE2040E1D6E1CEC18F02B
:1034940012000DC00FF00EC010F053EF1AF00D4AD9
:1034A4000E2A0DC0D9FF0EC0DAFFDF50D8A45DEF9D
:1034B4001AF05FEF1AF051EF1AF00F500D5C0D6E19
:1034C40010500E580E6E12000001DF51E011E11190
:1034D400D8B46FEF1AF071EF1AF07EEF1AF002D839
:1034E4007EEF1AF00500FA6EDF51FD6EE051FE6EBC
:1034F400E151FF6EFA5012000F011A9712000001F9
:10350400E251E311E411D8B48AEF1AF08CEF1AF007
:1035140099EF1AF002D899EF1AF00500FA6EE25109
:10352400FD6EE351FE6EE451FF6EFA5012000F017E
:103534001A9512000001E551E611E711D8B4A5EF80
:103544001AF0A7EF1AF0B4EF1AF002D8B4EF1AF099
:103554000500FA6EE551FD6EE651FE6EE751FF6E11
:10356400FA5012000F011A9312000001E851E911F8
:10357400EA11D8B4C0EF1AF0C2EF1AF0CFEF1AF084
:1035840002D8CFEF1AF00500FA6EE851FD6EE9514A
:10359400FE6EEA51FF6EFA5012000F011A911200EA
:1035A4000001DC51DD11DE11D8B4DBEF1AF0DDEFE0
:1035B4001AF0EAEF1AF002D8EAEF1AF00500FA6EF0
:1035C400DC51FD6EDD51FE6EDE51FF6EFA501200CD
:1035D40012000001D951DA11DB11D8B4F4EF1AF05A
:1035E400F6EF1AF003EF1BF002D803EF1BF005000F
:1035F400FA6ED951FD6EDA51FE6EDB51FF6EFA5050
:10360400120012000001EB51EC11ED11D8B40DEFD2
:103614001BF00FEF1BF01CEF1BF002D81CEF1BF08C
:103624000500FA6EEB51FD6EEC51FE6EED51FF6E2E
:10363400FA5012001200030EBF6E200EBE6E000E72
:10364400C06E070EBC6E000EBB6E0E01CE93C68319
:10365400A20E0D6E380E0E6E000E0F6E19EC1CF0DD
:10366400F20EBD6E1200116E11C05FFF608E609C81
:10367400608060B040EF1BF042EF1BF03BEF1BF0AB
:103684006450106E0F6A63500F240D6E000E1020EC
:103694000E6E120001C003F002C004F0D89003368D
:1036A4000436D89003360436000E0310056E900ECF
:1036B4000410066E05C001F006C002F01200C9A491
:1036C40066EF1BF068EF1BF070EF1BF0C99002501F
:1036D400C86E01C0C7FFC98074EF1BF00250C86EEA
:1036E40001C0C7FF1200CFA47AEF1BF07CEF1BF0E0
:1036F40084EF1BF0CF900250CE6E01C0CDFFCF807F
:1037040088EF1BF00250CE6E01C0CDFF12000D50A9
:103714000F02F3CF11F0F4CF12F00D501002F3505A
:1037240012260E500F02F350122611C00DF012C0D3
:103734000EF012004DEC1CF0D4EC1BF0C2EC1BF0AC
:1037440065EC15F0F0EC1BF03BEC19F063EC19F0B0
:103754001DEC1BF088EC19F012000F6E0F380F0BE4
:103764000F0B8E6E0FC00DF0070E0D16050E0E6EAC
:10377400D8900D360E2EBAEF1BF00D508F6E12003E
:103784000D0E0E01B76F0E0EB86F0F0EF46F100E04
:10379400F36F400E956E010E966E010E936E899A2C
:1037A400969A1200000E0E01E16F000EE26F000EF9
:1037B400E36F000EE46F000EE56F000EE66F12007B
:1037C400016E01C092FF0E01CDA1EBEF1BF0EDEFF6
:1037D4001BF0E5EF1BF0CD9192501200600E0E012C
:1037E400D86F000EDA6F000EDC6F080EDE6F000E6D
:1037F400DD6F12000E01CE95EEC001F0EFC002F0B5
:1038040061EC1BF0D2EC1AF012000E01CE91F0C064
:1038140001F0F1C002F075EC1BF004EC1BF0120097
:103824000DC0DCF00EC0DDF00FC0DEF012000DC0E4
:10383400D9F00EC0DAF00FC0DBF012000DC0EBF0CF
:103844000EC0ECF00FC0EDF012000DC0DFF00EC0A2
:10385400E0F00FC0E1F012000DC0E2F00EC0E3F0A2
:103864000FC0E4F012000DC0E5F00EC0E6F00FC08A
:10387400E7F012000DC0E8F00EC0E9F00FC0EAF066
:1038840012000E01CE93EBEC1AF012004600190060
:10389400010720803A01F29A12001200120012006D
:0A38A40012001200120012001200C0
:020000040020DA
:10000000FF0FFF0FFF0FFF0FFF0FFF0FFF0FFF0F80
:020000040030CA
:0C0000008CFFFFFF9FFFFFFFFFFFFFFFD3
:00000001FF
