:040000003EEF00F0DF
:100008000A82FACF02F0FBCF03F0F2AC0EEF00F059
:1000180010EF00F038EF00F00E01C6A316EF00F065
:1000280018EF00F038EF00F0CEA31DEF00F01FEF3F
:1000380000F038EF00F0E5EC00F08DB226EF00F0AC
:1000480028EF00F038EF00F083B02DEF00F030EF2C
:1000580000F0010E31EF00F0000EFF0A016E835030
:100068000118FE0B0118836E03C0FBFF02C0FAFFE4
:100078000A921100E0EF00F0000E876E000E866E07
:10008800000E836E000E846E000E856E070E8C6E59
:10009800FE0E886E89688A688B680F012669216957
:1000A8001969070E2E6FFC0E116F000E256F000EDA
:1000B8002D6F000E186F000E106F000E206F000ECF
:1000C8002C6F000E0F6F000E176F000E1F6F000EC3
:1000D800246F0E6916691E692369070E2B6F0D6957
:1000E80015691D6922690F0E2A6F1200040EBF6E72
:1000F800000EBE6E000EC06E780EBC6E000EBB6E9B
:100108000E01CE93C683DC0E046E010E056E000E42
:10011800066ED9EC00F0F00EBD6E12000750081004
:100128000910D8B49AEF00F09CEF00F0A9EF00F0A6
:1001380002D8A9EF00F00500FA6E0750FD6E0850CE
:10014800FE6E0950FF6EFA5012001200000E0E01EA
:10015800E16F000EE26F000EE36F000EE46F000E19
:10016800E56F000EE66F1200520E0E01D86F000EFA
:10017800DA6F000EDC6F020EDE6F000EDD6F12000C
:10018800ECEC00F0AAEC00F040EC00F0B8EC00F069
:100198007AEC00F01200C4EC00F0F28EF28CEAEC7B
:1001A80000F0D5EF00F03EEF00F004C007F005C006
:1001B80008F006C009F012000A900A920001CFEF79
:1001C80000F00E01CE9392EC00F01200BD8E1200EA
:0601D800F29A1200120071
:020000040020DA
:10000000FF0FFF0FFF0FFF0FFF0FFF0FFF0FFF0F80
:020000040030CA
:0C000000DCFFFFFF9FFFFFFFFFFFFFFF83
:00000001FF
