:0400000027EF00F0F6
:100008005C82FACF01F0FBCF02F0F2AC0EEF00F009
:1000180010EF00F021EF00F00E01C3A116EF00F081
:1000280018EF00F021EF00F0CBA11DEF00F01FEF5B
:1000380000F021EF00F08FEC34F002C0FBFF01C0AC
:0A004800FAFF5C92110098EF33F00C
:100F00000000000000DCCFD1350000000000C0155B
:100F10003F6042A20D70A5EC363BAAB83F4F387631
:100F20003F3CAA38338CBEBF350072313F18723156
:100F30003F4CBB31330EEADDB555B38A38610B3611
:100F4000BBABAA2A3E42F1533E55326C3E05A38B01
:100F50003EABAAAA3EB76DDB3E9A99193F6042A20A
:100F60000DCAF249710000804B0000803F0000C0B4
:100F70003F00AAB83FC623F6B80040763F4F55540D
:100F8000204F462052414E474500204F686D730068
:100F900025376C7500523A20000084C0B8F185C036
:100FA000B9F186C0BAF187C0BBF1B8C160F1B9C16F
:100FB00061F1BAC162F1BBC163F188C0B8F189C007
:100FC000B9F18AC0BAF18BC0BBF1B8C17CF1B9C12B
:100FD0007DF1BAC17EF1BBC17FF1FF0E0101601549
:100FE000A86FFF0E6115A96FFF0E6215AA6F7F0E25
:100FF0006315AB6FFF0E7C15906FFF0E7D15916F23
:10100000FF0E7E15926F7F0E7F15936F9051911199
:1010100092119311D8A40FEF08F011EF08F01CEF14
:1010200008F0000E0001846F000E856F800E866F41
:101030003F0E876F5AEF1CF0800E621909E13F0ED8
:10104000631960116111D8A428EF08F02AEF08F0A5
:1010500035EF08F0000E0001846F000E856F800EE2
:10106000866F3F0E876F5AEF1CF0ABBF46EF08F05C
:10107000A805000EA959800EAA597F0EAB59D8B009
:1010800044EF08F046EF08F057EF08F093BF55EF34
:1010900008F09005000E9159800E92597F0E9359D9
:1010A000D8A055EF08F057EF08F073EF08F084C0B0
:1010B00003F085C004F086C005F087C006F088C044
:1010C00007F089C008F08AC009F08BC00AF0C1ECB3
:1010D00021F003C084F004C085F005C086F006C08E
:1010E00087F05AEF1CF0000E506F000E516F000E8B
:1010F000526F000E536F63BF82EF08F080EF08F06D
:101100002DEF09F093BF8EEF08F0800E925D4B0E2D
:101110009359D8A08EEF08F090EF08F09AEF08F0FE
:10112000020E506F000E516F000E526F000E536F83
:101130002DEF09F093BFA6EF08F0800E925D3F0EF1
:101140009359D8A0A6EF08F0A8EF08F02DEF09F00A
:10115000170E4D6E90C14EF091C14FF092C150F0FC
:1011600093C151F04D66B7EF08F0BFEF08F051346E
:10117000513250324F324E324D2EB2EF08F0810EC6
:101180004E240101A06FFF0E4F20A16FFF0E5020D3
:10119000A26FFF0E5120A36FA05117084D6E90C192
:1011A0004EF091C14FF092C150F093C151F04D6695
:1011B000DCEF08F0E4EF08F05134513250324F3296
:1011C0004E324D2ED7EF08F04EC0ACF14FC0ADF10E
:1011D00050C0AEF151C0AFF10101A05117084D6EE2
:1011E000ACC14EF0ADC14FF0AEC150F0AFC151F047
:1011F0004D2A00EF09F0D8904E364F365036513612
:101200004D2EFBEF08F090514E180DE191514F1803
:101210000AE19251501807E193515118D8A413EFE5
:1012200009F015EF09F02DEF09F0010EAC154D6E28
:10123000000EAD154E6E000EAE154F6E000EAF15C2
:10124000506E4D500208506F000E4E54516F000EFC
:101250004F54526F000E5054536F800E921909E193
:101260007F0E931990119111D8A439EF09F03BEF3B
:1012700009F0A7EF09F0800EAA1909E13F0EAB199A
:10128000A811A911D8A447EF09F049EF09F054EFCC
:1012900009F0000E0001846F000E856F800E866FCE
:1012A0003F0E876F5AEF1CF0ABBF63EF09F0A80544
:1012B000000EA959800EAA593F0EAB59D8A063EF72
:1012C00009F065EF09F081EF09F07FBF6CEF09F0DD
:1012D0006AEF09F077EF09F0000E0001846F000E4D
:1012E000856F000E866F000E876F5AEF1CF088C066
:1012F00084F089C085F08AC086F08BC087F05AEFF1
:101300001CF07FBF88EF09F086EF09F09CEF09F031
:1013100088C003F089C004F08AC005F08BC006F0D5
:101320003CEC34F003C084F004C085F005C086F0C6
:1013300006C087F05AEF1CF0000E0001846F000E0B
:10134000856F000E866F000E876F5AEF1CF0800EBF
:10135000921909E13F0E931990119111D8A4B3EF9E
:1013600009F0B5EF09F0E2EF09F07FBFBCEF09F03B
:10137000BAEF09F0D8EF09F0000E346E000E356EAA
:10138000800E366E3F0E376E84C038F085C039F05F
:1013900086C03AF087C03BF036EC26F034C084F0CB
:1013A00035C085F036C086F037C087F05AEF1CF0A4
:1013B00084C084F085C085F086C086F087C087F041
:1013C0005AEF1CF0400E7F197C117D117E11D8A4BC
:1013D000ECEF09F0EEEF09F00AEF0AF084C013F029
:1013E00085C014F086C015F087C016F084C017F0D1
:1013F00085C018F086C019F087C01AF021EC24F0DF
:1014000013C084F014C085F015C086F016C087F0B4
:101410005AEF1CF03F0E7F197C117D117E11D8A46C
:1014200014EF0AF016EF0AF031EF0AF063BF1BEF7A
:101430000AF01DEF0AF031EF0AF084C040F085C0D9
:1014400041F086C042F087C043F061EC1FF040C01D
:1014500084F041C085F042C086F043C087F05AEF67
:101460001CF084C003F085C004F086C005F087C07E
:1014700006F0AAEC34F003C070F104C071F105C0AD
:1014800072F106C073F1800E0101AA190BE17F0E03
:10149000AB19A811A911D8B450EF0AF052EF0AF015
:1014A0006BEF0AF0A851A911AA11AB11D8B45BEFE8
:1014B0000AF05DEF0AF06BEF0AF0800EAA1909E15D
:1014C0003F0EAB19A811A911D8A469EF0AF06BEF70
:1014D0000AF02BEF0BF070C1B4F171C1B5F172C11C
:1014E000B6F173C1B7F17FBF7AEF0AF078EF0AF077
:1014F00094EF0AF0000E346E000E356E800E366EDC
:101500003F0E376EB4C138F0B5C139F0B6C13AF00C
:10151000B7C13BF036EC26F034C0B4F135C0B5F1BC
:1015200036C0B6F137C0B7F1010163BF9CEF0AF0D6
:101530009AEF0AF021EF0BF0000EA8254D6E000E79
:10154000A9214E6E800EAA214F6EC00EAB21506EA7
:1015500050514D10516E51514E10526E52514F100C
:10156000536E53515010546E51505210531054102A
:10157000D8A4BDEF0AF0BFEF0AF004EF0BF0000EA5
:101580000001BB6F210EBA6FB4C130F0B5C131F0AC
:10159000B6C132F0B7C133F0B4C12CF0B5C12DF0F3
:1015A000B6C12EF0B7C12FF0BBEC33F02CC034F035
:1015B0002DC035F02EC036F02FC037F0B4C130F05A
:1015C000B5C131F0B6C132F0B7C133F0B4C12CF0BF
:1015D000B5C12DF0B6C12EF0B7C12FF0BBEC33F082
:1015E0002CC038F02DC039F02EC03AF02FC03BF09F
:1015F00036EC26F034C0B4F135C0B5F136C0B6F1E2
:1016000037C0B7F121EF0BF05005511152115311B2
:10161000D8A40DEF0BF00FEF0BF021EF0BF0B4C1DE
:1016200003F0B5C104F0B6C105F0B7C106F03CEC5B
:1016300034F003C0B4F104C0B5F105C0B6F106C082
:10164000B7F1B4C184F0B5C185F0B6C186F0B7C1B9
:1016500087F05AEF1CF0000E846F000E856F800E2D
:10166000866F3F0E876F63BF3AEF0BF038EF0BF0DA
:101670009DEF0BF05051511152115311D8A443EF6B
:101680000BF045EF0BF08AEF0BF0000E0001BB6F83
:10169000210EBA6F84C030F085C031F086C032F0C0
:1016A00087C033F084C02CF085C02DF086C02EF0AA
:1016B00087C02FF0BBEC33F02CC034F02DC035F0D8
:1016C0002EC036F02FC037F084C030F085C031F026
:1016D00086C032F087C033F084C02CF085C02DF076
:1016E00086C02EF087C02FF0BBEC33F02CC038F052
:1016F0002DC039F02EC03AF02FC03BF036EC26F06A
:1017000034C084F035C085F036C086F037C087F02D
:101710005AEF1CF05005511152115311D8A493EFF8
:101720000BF095EF0BF09DEF0BF0000E846F000EA9
:10173000856F800E866FBF0E876F93BFACEF0BF087
:101740009005000E9159000E92594D0E9359D8A054
:10175000ACEF0BF0AEEF0BF033EF0EF0ABBFC0EF22
:101760000BF0F80EA85DFF0EA9597F0EAA593F0E87
:10177000AB59D8B0BEEF0BF0C0EF0BF033EF0CF06D
:101780007FBFC5EF0BF0C7EF0BF0FDEF0BF0600E66
:10179000176E420E186EA20E196E0D0E1A6E84C1CF
:1017A00013F085C114F086C115F087C116F021EC45
:1017B00024F013C0A4F114C0A5F115C0A6F116C001
:1017C000A7F1A4C113F0A5C114F0A6C115F0A7C1DB
:1017D00016F0600E176E420E186EA20E196E0D0EE8
:1017E0001A6E21EC24F013C084F014C085F015C0EB
:1017F00086F016C087F05AEF1CF0CA0E176EF20E74
:10180000186E490E196E710E1A6E84C113F085C1DF
:1018100014F086C115F087C116F021EC24F013C036
:10182000A4F114C0A5F115C0A6F116C0A7F1A4C17A
:1018300013F0A5C114F0A6C115F0A7C116F0CA0E89
:10184000176EF20E186E490E196E710E1A6E21EC9B
:1018500024F013C084F014C085F015C086F016C0C3
:1018600087F05AEF1CF0ABBF43EF0CF0080EA85DF9
:10187000000EA959800EAA593F0EAB59D8A043EFCC
:101880000CF045EF0CF0C0EF0CF07FBF54EF0CF004
:101890007F517E117D1106E17C05D8B052EF0CF02E
:1018A00054EF0CF08AEF0CF0600E176E420E186EBB
:1018B000A20E196E0D0E1A6E84C113F085C114F0BC
:1018C00086C115F087C116F021EC24F013C0A4F1F5
:1018D00014C0A5F115C0A6F116C0A7F1A4C113F05C
:1018E000A5C114F0A6C115F0A7C116F0600E176EC1
:1018F000420E186EA20E196E0D0E1A6E21EC24F017
:1019000013C084F014C085F015C086F016C087F0AF
:101910005AEF1CF0CA0E176EF20E186E490E196EB1
:10192000710E1A6E84C113F085C114F086C115F0D2
:1019300087C116F021EC24F013C0A4F114C0A5F166
:1019400015C0A6F116C0A7F1A4C113F0A5C114F0EB
:10195000A6C115F0A7C116F0CA0E176EF20E186ECA
:10196000490E196E710E1A6E21EC24F013C084F02A
:1019700014C085F015C086F016C087F05AEF1CF031
:1019800070C103F071C104F072C105F073C106F0BB
:10199000000E076E000E086E800E096EBF0E0A6EF6
:1019A000C1EC21F003C0B0F104C0B1F105C0B2F147
:1019B00006C0B3F1000E176E000E186E800E196E81
:1019C0003E0E1A6EB0C113F0B1C114F0B2C115F0E1
:1019D000B3C116F021EC24F013C030F014C031F084
:1019E00015C032F016C033F0AB0E2C6EAA0E2D6E61
:1019F000AA0E2E6E3E0E2F6EBBEC33F02CC0A4F15F
:101A00002DC0A5F12EC0A6F12FC0A7F1B0C117F0CF
:101A1000B1C118F0B2C119F0B3C11AF0B0C113F0DE
:101A2000B1C114F0B2C115F0B3C116F021EC24F02D
:101A300013C058F114C059F115C05AF116C05BF12A
:101A4000B0C117F0B1C118F0B2C119F0B3C11AF0AA
:101A5000A4C113F0A5C114F0A6C115F0A7C116F0DA
:101A600021EC24F013C030F014C031F015C032F076
:101A700016C033F0000E2C6E000E2D6E000E2E6E72
:101A80003F0E2F6EBBEC33F02CC048F12DC049F156
:101A90002EC04AF12FC04BF158C113F059C114F0B8
:101AA0005AC115F05BC116F048C117F049C118F0D2
:101AB0004AC119F04BC11AF021EC24F013C044F1D3
:101AC00014C045F115C046F116C047F1B0C113F07E
:101AD000B1C114F0B2C115F0B3C116F0000E176E0B
:101AE000AA0E186EB80E196E3F0E1A6E21EC24F075
:101AF00013C074F114C075F115C076F116C077F1FA
:101B0000700E176EA50E186EEC0E196E360E1A6E4C
:101B1000B0C113F0B1C114F0B2C115F0B3C116F0E9
:101B200021EC24F013C02CF014C02DF015C02EF0C1
:101B300016C02FF03B0E176EAA0E186EB80E196E57
:101B40003F0E1A6E44C113F045C114F046C115F0A2
:101B500047C116F021EC24F013C030F014C031F06E
:101B600015C032F016C033F0BBEC33F02CC078F166
:101B70002DC079F12EC07AF12FC07BF174C103F032
:101B800075C104F076C105F077C106F078C107F0A1
:101B900079C108F07AC109F07BC10AF0C1EC21F0EB
:101BA00003C080F104C081F105C082F106C083F159
:101BB00080C1B8F181C1B9F182C1BAF183C1BBF171
:101BC000B8C194F1B9C195F1BAC196F1BBC197F111
:101BD000000E01019415B86FF00E9515B96FFF0E48
:101BE0009615BA6FFF0E9715BB6FB8C180F1B9C1DA
:101BF00081F1BAC182F1BBC183F174C130F075C10A
:101C000031F076C132F077C133F080C12CF081C160
:101C10002DF082C12EF083C12FF0BBEC33F02CC02D
:101C200098F12DC099F12EC09AF12FC09BF178C187
:101C30002CF079C12DF07AC12EF07BC12FF098C124
:101C400030F099C131F09AC132F09BC133F0BBEC56
:101C500033F02CC01CF12DC01DF12EC01EF12FC081
:101C60001FF18DEF15F0000E886F000E896F000ECA
:101C70008A6F000E8B6FABBF49EF0EF0AB5107E1DF
:101C8000800EAA5DD8B047EF0EF049EF0EF07CEF62
:101C90000EF070C113F071C114F072C115F073C170
:101CA00016F0000E176E000E186E800E196E4B0E99
:101CB0001A6E21EC24F013C070F114C071F115C03C
:101CC00072F116C073F1E80E01018827FF0E892317
:101CD000FF0E8A23FF0E8B2370C1B8F171C1B9F1D9
:101CE00072C1BAF173C1BBF1B8C1A8F1B9C1A9F110
:101CF000BAC1AAF1BBC1ABF1170E4D6EA8C14EF02F
:101D0000A9C14FF0AAC150F0ABC151F04D668BEFA5
:101D10000EF093EF0EF05134513250324F324E32BA
:101D20004D2E86EF0EF0810E4E24526EFF0E4F2088
:101D3000536EFF0E5020546EFF0E5120556E5250C0
:101D4000010188275350892354508A2355508B23EF
:101D5000FF0EA815AC6FFF0EA915AD6F7F0EAA156B
:101D6000AE6F000EAB15AF6F000EAC11A86F000E7A
:101D7000AD11A96F800EAE11AA6F3F0EAF11AB6F00
:101D8000AFBFD2EF0EF0AF510BE1720EAC5DC40EDF
:101D9000AD591C0EAE59D8B0D0EF0EF0D2EF0EF008
:101DA000DCEF0EF0000EA06F000EA16F000EA26F10
:101DB000000EA36F0EEF0FF0AFBFEEEF0EF0AF51BE
:101DC0000BE1D70EAC5DB30EAD595D0EAE59D8B078
:101DD000ECEF0EF0EEEF0EF0F8EF0EF0010EA06F4C
:101DE000000EA16F000EA26F000EA36F0EEF0FF09A
:101DF000000EA06F000EA16F000EA26F000EA36F69
:101E0000010E8827000E89238A238B23000EA82722
:101E1000000EA923800EAA23FF0EAB23A8C1B8F1A0
:101E2000A9C1B9F1AAC1BAF1ABC1BBF1B8C170F196
:101E3000B9C171F1BAC172F1BBC173F170C12CF0BB
:101E400071C12DF072C12EF073C12FF0A0C14DF001
:101E5000A1C14EF0D8904D364E36D8904D364E3604
:101E6000690E4D24F66E0F0E4E20F76EF86A000EC6
:101E7000F8220900F5CF30F00900F5CF31F0090064
:101E8000F5CF32F00A00F5CF33F0BBEC33F02CC0C5
:101E900074F12DC075F12EC076F12FC077F1000ED0
:101EA000346E000E356E800E366E3F0E376E70C18A
:101EB00007F071C108F072C109F073C10AF0A0C146
:101EC0004DF0A1C14EF0D8904D364E36D8904D36DB
:101ED0004E36690E4D24F66E0F0E4E20F76EF86AE0
:101EE000000EF8220900F5CF03F00900F5CF04F049
:101EF0000900F5CF05F00A00F5CF06F0C1EC21F09E
:101F000003C038F004C039F005C03AF006C03BF019
:101F100036EC26F034C078F135C079F136C07AF16C
:101F200037C07BF174C113F075C114F076C115F0A0
:101F300077C116F078C117F079C118F07AC119F09D
:101F40007BC11AF021EC24F013C054F114C055F1F8
:101F500015C056F116C057F154C16CF155C16DF161
:101F600056C16EF157C16FF16CC1B8F16DC1B9F1D5
:101F70006EC1BAF16FC1BBF1B8C194F1B9C195F1AD
:101F8000BAC196F1BBC197F1000E01019415B86F6B
:101F9000F00E9515B96FFF0E9615BA6FFF0E9715D7
:101FA000BB6FB8C16CF1B9C16DF1BAC16EF1BBC103
:101FB0006FF1A8C14DF0A9C14EF0AAC14FF0ABC15D
:101FC00050F0503450324F324E324D32000E4D14DC
:101FD000516EF00E4E14526EFF0E4F14536EFF0EE4
:101FE0005014546E000E5110946F000E5210956FE5
:101FF000000E5310966F200E5410976FA0C14DF035
:10200000A1C14EF0A2C14FF0A3C150F0150ED8905F
:102010004D364E364F365036E82E07EF10F09451BD
:102020004D24516E95514E20526E96514F20536E55
:1020300097515020546E000E5124B86F000E52205C
:10204000B96F400E5320BA6F000E5420BB6FB8C159
:1020500068F1B9C169F1BAC16AF1BBC16BF1A0C144
:102060004DF0A1C14EF0D8904D364E36D8904D3639
:102070004E36690E4D24F66E0F0E4E20F76EF86A3E
:10208000000EF8220900F5CF30F00900F5CF31F04D
:102090000900F5CF32F00A00F5CF33F068C12CF01B
:1020A00069C12DF06AC12EF06BC12FF0BBEC33F08B
:1020B0002CC098F12DC099F12EC09AF12FC09BF140
:1020C00070C12CF071C12DF072C12EF073C12FF0D0
:1020D00098C130F099C131F09AC132F09BC133F010
:1020E000BBEC33F02CC034F12DC035F12EC036F1ED
:1020F0002FC037F168C117F069C118F06AC119F033
:102100006BC11AF06CC113F06DC114F06EC115F003
:102110006FC116F021EC24F013C030F014C031F080
:1021200015C032F016C033F074C12CF075C12DF01B
:1021300076C12EF077C12FF0BBEC33F02CC098F1B4
:102140002DC099F12EC09AF12FC09BF134C117F028
:1021500035C118F036C119F037C11AF06CC113F04F
:102160006DC114F06EC115F06FC116F021EC24F0B2
:1021700013C030F014C031F015C032F016C033F087
:1021800098C12CF099C12DF09AC12EF09BC12FF06F
:10219000BBEC33F02CC058F12DC059F12EC05AF1D0
:1021A0002FC05BF158C113F059C114F05AC115F09A
:1021B0005BC116F078C117F079C118F07AC119F037
:1021C0007BC11AF021EC24F013C030F114C031F1BE
:1021D00015C032F116C033F154C113F055C114F0DB
:1021E00056C115F057C116F054C117F055C118F07B
:1021F00056C119F057C11AF021EC24F013C08CF12C
:1022000014C08DF115C08EF116C08FF1550E076EFA
:10221000320E086E6C0E096E3E0E0A6E420E176E7E
:10222000F10E186E530E196E3E0E1A6E8CC113F01D
:102230008DC114F08EC115F08FC116F021EC24F081
:1022400013C003F014C004F015C005F016C006F06A
:10225000C1EC21F003C0A4F104C0A5F105C0A6F1B2
:1022600006C0A7F1050E076EA30E086E8B0E096E51
:102270003E0E0A6E8CC117F08DC118F08EC119F098
:102280008FC11AF0A4C113F0A5C114F0A6C115F0B6
:10229000A7C116F021EC24F013C003F014C004F021
:1022A00015C005F016C006F0C1EC21F003C058F1CE
:1022B00004C059F105C05AF106C05BF1AB0E076EC0
:1022C000AA0E086EAA0E096E3E0E0A6E8CC117F099
:1022D0008DC118F08EC119F08FC11AF058C113F0DA
:1022E00059C114F05AC115F05BC116F021EC24F06D
:1022F00013C003F014C004F015C005F016C006F0BA
:10230000C1EC21F003C048F104C049F105C04AF115
:1023100006C04BF1B70E076E6D0E086EDB0E096E30
:102320003E0E0A6E8CC117F08DC118F08EC119F0E7
:102330008FC11AF048C113F049C114F04AC115F019
:102340004BC116F021EC24F013C003F014C004F0CC
:1023500015C005F016C006F0C1EC21F003C038F13D
:1023600004C039F105C03AF106C03BF19A0E076E80
:10237000990E086E190E096E3F0E0A6E8CC117F089
:102380008DC118F08EC119F08FC11AF038C113F049
:1023900039C114F03AC115F03BC116F021EC24F01C
:1023A00013C003F014C004F015C005F016C006F009
:1023B000C1EC21F003C000F104C001F105C002F13D
:1023C00006C003F18CC117F08DC118F08EC119F051
:1023D0008FC11AF08CC113F08DC114F08EC115F0AD
:1023E0008FC116F021EC24F013C004F114C005F1E4
:1023F00015C006F116C007F100C113F001C114F0B9
:1024000002C115F003C116F004C117F005C118F0A0
:1024100006C119F007C11AF021EC24F013C04CF1E9
:1024200014C04DF115C04EF116C04FF130C117F078
:1024300031C118F032C119F033C11AF054C107F09C
:1024400055C108F056C109F057C10AF06CC103F03C
:102450006DC104F06EC105F06FC106F0C1EC21F052
:1024600003C013F004C014F005C015F006C016F048
:1024700021EC24F013C05CF114C05DF115C05EF1D5
:1024800016C05FF14CC103F04DC104F04EC105F020
:102490004FC106F05CC107F05DC108F05EC109F0F4
:1024A0005FC10AF0C1EC21F003C04CF104C04DF152
:1024B00005C04EF106C04FF16CC113F06DC114F0B0
:1024C0006EC115F06FC116F06CC117F06DC118F038
:1024D0006EC119F06FC11AF021EC24F013C08CF119
:1024E00014C08DF115C08EF116C08FF1000E076E6D
:1024F000000E086E400E096E400E0A6E8CC103F08D
:102500008DC104F08EC105F08FC106F0C1EC21F041
:1025100003C05CF104C05DF105C05EF106C05FF16F
:102520005CC103F05DC104F05EC105F05FC106F05F
:102530004CC107F04DC108F04EC109F04FC10AF07F
:10254000C1EC21F003C068F104C069F105C06AF173
:1025500006C06BF168C1B8F169C1B9F16AC1BAF1DD
:102560006BC1BBF1B8C194F1B9C195F1BAC196F193
:10257000BBC197F1000E01019415B86FF00E9515CF
:10258000B96FFF0E9615BA6FFF0E9715BB6FB8C1E6
:1025900068F1B9C169F1BAC16AF1BBC16BF1000E52
:1025A000076E000E086E400E096EC00E0A6E68C1FE
:1025B00003F069C104F06AC105F06BC106F0C1EC1B
:1025C00021F003C03CF104C03DF105C03EF106C05E
:1025D0003FF18CC130F08DC131F08EC132F08FC12E
:1025E00033F03CC12CF03DC12DF03EC12EF03FC177
:1025F0002FF0BBEC33F02CC040F12DC041F12EC0C8
:1026000042F12FC043F14CC12CF04DC12DF04EC111
:102610002EF04FC12FF040C130F041C131F042C126
:1026200032F043C133F0BBEC33F02CC034F12DC099
:1026300035F12EC036F12FC037F16CC113F06DC1EA
:1026400014F06EC115F06FC116F068C117F069C1C2
:1026500018F06AC119F06BC11AF021EC24F013C014
:1026600074F114C075F115C076F116C077F168C128
:1026700017F069C118F06AC119F06BC11AF030C1C6
:1026800013F031C114F032C115F033C116F021EC52
:1026900024F013C003F014C004F015C005F016C0F8
:1026A00006F054C117F055C118F056C119F057C1C2
:1026B0001AF034C113F035C114F036C115F037C12A
:1026C00016F021EC24F013C007F014C008F015C078
:1026D00009F016C00AF0C1EC21F003C078F104C083
:1026E00079F105C07AF106C07BF174C103F075C1C0
:1026F00004F076C105F077C106F078C107F079C122
:1027000008F07AC109F07BC10AF0C1EC21F003C0E6
:102710009CF104C09DF105C09EF106C09FF19CC1D3
:10272000B8F19DC1B9F19EC1BAF19FC1BBF1B8C169
:1027300094F1B9C195F1BAC196F1BBC197F1000E00
:1027400001019415B86FF00E9515B96FFF0E96152F
:10275000BA6FFF0E9715BB6FB8C19CF1B9C19DF15F
:10276000BAC19EF1BBC19FF174C130F075C131F0A7
:1027700076C132F077C133F09CC12CF09DC12DF0B1
:102780009EC12EF09FC12FF0BBEC33F02CC098F10E
:102790002DC099F12EC09AF12FC09BF178C12CF079
:1027A00079C12DF07AC12EF07BC12FF098C130F0A5
:1027B00099C131F09AC132F09BC133F0BBEC33F0D8
:1027C0002CC064F12DC065F12EC066F12FC067F1F9
:1027D0009CC113F09DC114F09EC115F09FC116F06D
:1027E000000E176E400E186E760E196E3F0E1A6EA2
:1027F00021EC24F013C020F114C021F115C022F106
:1028000016C023F14F0E176E380E186E760E196E25
:102810003F0E1A6E64C113F065C114F066C115F065
:1028200067C116F021EC24F013C007F014C008F0C3
:1028300015C009F016C00AF0C60E176E230E186EEA
:10284000F60E196EB80E1A6E9CC113F09DC114F0ED
:102850009EC115F09FC116F021EC24F013C003F0C7
:1028600014C004F015C005F016C006F0C1EC21F04C
:1028700003C05CF104C05DF105C05EF106C05FF10C
:102880005CC103F05DC104F05EC105F05FC106F0FC
:10289000A0C14DF0A1C14EF0D8904D364E36D89023
:1028A0004D364E36010E4D24F66E0F0E4E20F76E4D
:1028B000F86A000EF8220900F5CF07F00900F5CFFD
:1028C00008F00900F5CF09F00A00F5CF0AF0C1ECD5
:1028D00021F003C024F104C025F105C026F106C093
:1028E00027F188C103F089C104F08AC105F08BC1CA
:1028F00006F0010EADEC2BF003C0B0F104C0B1F155
:1029000005C0B2F106C0B3F124C107F025C108F03B
:1029100026C109F027C10AF020C103F021C104F04B
:1029200022C105F023C106F0C1EC21F003C05CF127
:1029300004C05DF105C05EF106C05FF1A0C14DF0BD
:10294000A1C14EF0D8904D364E36D8904D364E3609
:10295000090E4D24F66E0F0E4E20F76EF86A000E2B
:10296000F8220900F5CF07F00900F5CF08F00900BB
:10297000F5CF09F00A00F5CF0AF05CC103F05DC1A4
:1029800004F05EC105F05FC106F0C1EC21F003C0A8
:1029900008F104C009F105C00AF106C00BF108C135
:1029A00003F009C104F00AC105F00BC106F0B0C183
:1029B00007F0B1C108F0B2C109F0B3C10AF0C1EC2F
:1029C00021F003C080F104C081F105C082F106C08E
:1029D00083F180C1B8F181C1B9F182C1BAF183C17B
:1029E000BBF1B8C194F1B9C195F1BAC196F1BBC1BF
:1029F00097F1000E01019415B86FF00E9515B96F9F
:102A0000FF0E9615BA6FFF0E9715BB6FB8C180F118
:102A1000B9C181F1BAC182F1BBC183F1B0C130F05B
:102A2000B1C131F0B2C132F0B3C133F080C12CF08A
:102A300081C12DF082C12EF083C12FF0BBEC33F0A9
:102A40002CC098F12DC099F12EC09AF12FC09BF1A6
:102A5000A0C14DF0A1C14EF0D8904D364E36D89061
:102A60004D364E36090E4D24F66E0F0E4E20F76E83
:102A7000F86A000EF8220900F5CF30F00900F5CF12
:102A800031F00900F5CF32F00A00F5CF33F098C1EC
:102A90002CF099C12DF09AC12EF09BC12FF0BBEC08
:102AA00033F02CC040F12DC041F12EC042F12FC0B7
:102AB00043F120C130F021C131F022C132F023C1F5
:102AC00033F040C12CF041C12DF042C12EF043C182
:102AD0002FF0BBEC33F02CC00CF12DC00DF12EC04B
:102AE0000EF12FC00FF124C12CF025C12DF026C10D
:102AF0002EF027C12FF00CC130F00DC131F00EC106
:102B000032F00FC133F0BBEC33F02CC01CF12DC000
:102B10001DF12EC01EF12FC01FF188C0B8F189C071
:102B2000B9F18AC0BAF18BC0BBF1B8C194F1B9C197
:102B300095F1BAC196F1BBC197F1000E0101941550
:102B4000B86FF00E9515B96FFF0E9615BA6FFF0EA0
:102B50009715BB6FB8C128F1B9C129F1BAC12AF1E3
:102B6000BBC12BF180C117F081C118F082C119F0EF
:102B700083C11AF028C130F029C131F02AC132F0E6
:102B80002BC133F088C02CF089C02DF08AC02EF004
:102B90008BC02FF0BBEC33F02CC013F02DC014F021
:102BA0002EC015F02FC016F021EC24F013C010F148
:102BB00014C011F115C012F116C013F110C103F0C9
:102BC00011C104F012C105F013C106F01CC117F0C9
:102BD0001DC118F01EC119F01FC11AF088C013F0F2
:102BE00089C014F08AC015F08BC016F021EC24F0D7
:102BF00013C007F014C008F015C009F016C00AF0A1
:102C0000C1EC21F003C064F104C065F105C066F1B8
:102C100006C067F128C113F029C114F02AC115F0CC
:102C20002BC116F080C117F081C118F082C119F0D4
:102C300083C11AF021EC24F013C09CF114C09DF163
:102C400015C09EF116C09FF164C103F065C104F088
:102C500066C105F067C106F09CC107F09DC108F090
:102C60009EC109F09FC10AF0C1EC21F003C0B4F18C
:102C700004C0B5F105C0B6F106C0B7F1B4C1B8F1F2
:102C8000B5C1B9F1B6C1BAF1B7C1BBF1B8C1ACF1C8
:102C9000B9C1ADF1BAC1AEF1BBC1AFF10101AFBF76
:102CA0005EEF16F0AC05000EAD59000EAE59430EA6
:102CB000AF59D8A05EEF16F060EF16F096EF16F061
:102CC000CA0E176EF20E186E490E196E710E1A6E3C
:102CD00084C113F085C114F086C115F087C116F0C8
:102CE00021EC24F013C0A4F114C0A5F115C0A6F185
:102CF00016C0A7F1A4C113F0A5C114F0A6C115F028
:102D0000A7C116F0CA0E176EF20E186E490E196E94
:102D1000710E1A6E21EC24F013C084F014C085F0FB
:102D200015C086F016C087F05AEF1CF0430EAF199D
:102D3000AC11AD11AE11D8A4A0EF16F0A2EF16F0B1
:102D400015EF17F09CC130F09DC131F09EC132F0FB
:102D50009FC133F0B4C12CF0B5C12DF0B6C12EF037
:102D6000B7C12FF0BBEC33F02CC034F02DC035F0E0
:102D70002EC036F02FC037F03C0E076EAA0E086E3C
:102D8000380E096E330E0A6E64C103F065C104F09B
:102D900066C105F067C106F0C1EC21F003C038F050
:102DA00004C039F005C03AF006C03BF0C9EC2EF083
:102DB000D8B0DDEF16F0DFEF16F0D7EF17F0CA0E40
:102DC000176EF20E186E490E196E710E1A6E84C1CE
:102DD00013F085C114F086C115F087C116F021ECFF
:102DE00024F013C0A4F114C0A5F115C0A6F116C0BB
:102DF000A7F1A4C113F0A5C114F0A6C115F0A7C195
:102E000016F0CA0E176EF20E186E490E196E710E7C
:102E10001A6E21EC24F013C084F014C085F015C0A4
:102E200086F016C087F05AEF1CF0FF0EAC154D6E01
:102E3000FF0EAD154E6EFF0EAE154F6E7F0EAF1529
:102E4000506E50BE30EF17F04D04000E4E58160E67
:102E50004F58430E5058D8A030EF17F032EF17F00C
:102E600068EF17F0600E176E420E186EA20E196E04
:102E70000D0E1A6E84C113F085C114F086C115F0D1
:102E800087C116F021EC24F013C0A4F114C0A5F101
:102E900015C0A6F116C0A7F1A4C113F0A5C114F086
:102EA000A6C115F0A7C116F0600E176E420E186E7F
:102EB000A20E196E0D0E1A6E21EC24F013C084F0D0
:102EC00014C085F015C086F016C087F05AEF1CF0CC
:102ED000160EAE1909E1C30EAF19AC11AD11D8A48D
:102EE00074EF17F076EF17F0D7EF17F09CC130F0C2
:102EF0009DC131F09EC132F09FC133F0B4C12CF0BE
:102F0000B5C12DF0B6C12EF0B7C12FF0BBEC33F038
:102F10002CC034F02DC035F02EC036F02FC037F065
:102F200064C138F065C139F066C13AF067C13BF061
:102F3000C9EC2EF0D8A09FEF17F0A1EF17F0D7EF54
:102F400017F0600E176E420E186EA20E196E0D0E5F
:102F50001A6E84C113F085C114F086C115F087C1C3
:102F600016F021EC24F013C0A4F114C0A5F115C093
:102F7000A6F116C0A7F1A4C113F0A5C114F0A6C113
:102F800015F0A7C116F0600E176E420E186EA20E55
:102F9000196E0D0E1A6E21EC24F013C084F014C0CB
:102FA00085F015C086F016C087F05AEF1CF0FF0EB2
:102FB0000101AC152C6FFF0EAD152D6FFF0EAE1578
:102FC0002E6F7F0EAF152F6F170E4D6E2CC14EF06A
:102FD0002DC14FF02EC150F02FC151F04D66F3EFCF
:102FE00017F0FBEF17F05134513250324F324E325E
:102FF0004D2EEEEF17F0810E4E240101A06FFF0E53
:103000004F20A16FFF0E5020A26FFF0E5120A36F23
:10301000000E886F000E896F000E8A6F000E8B6F96
:103020002FBF1FEF18F02C05000E2D59000E2E5942
:103030003F0E2F59D8A01FEF18F021EF18F001EF25
:1030400019F0A0C14DF0010E4D26000E4E6E000E7F
:103050004F6E800E506E000E516E4D6632EF18F0BE
:103060003AEF18F05134513250324F324E324D2E29
:103070002DEF18F00101AC514E24886FAD514F2057
:10308000896FAE5150208A6FAF5151208B6F810EE6
:103090004D6EFF0E4E6EFF0E4F6EFF0E506E170EF2
:1030A000516E88C152F089C153F08AC154F08BC16E
:1030B00055F051665EEF18F066EF18F05534553252
:1030C000543253325232512E59EF18F052504D248F
:1030D0000101A06F000E4E20A16F000E4F20A26FC5
:1030E000000E5020A36FA0C14DF0FF0E4E6EFF0EDC
:1030F0004F6E7F0E506E000E516E4D6682EF18F0CF
:103100008AEF18F05134513250324F324E324D2E38
:103110007DEF18F04E1C526E4F1C536E501C546EB7
:10312000511C556E010188515214B86F89515314C6
:10313000B96F8A515414BA6F8B515514BB6FB8C113
:10314000B0F1B9C1B1F1BAC1B2F1BBC1B3F1A05193
:1031500017084D6EFF0E88154E6EFF0E89154F6EC7
:103160007F0E8A15506E000E8B15516E000E4E109C
:10317000526E000E4F10536E800E5010546E000EA3
:103180005110556E4D66C7EF18F0CFEF18F055345B
:1031900055325432533252324D2EC2EF18F052C0D3
:1031A00088F153C089F154C08AF155C08BF10101F7
:1031B000AFBFDFEF18F0DDEF18F0E7EF18F08B1F6F
:1031C0008A1F891F886D000E89238A238B239CC147
:1031D0002CF09DC12DF09EC12EF09FC12FF0B0C1EB
:1031E00030F0B1C131F0B2C132F0B3C133F0BBEC59
:1031F00033F02CC09CF12DC09DF12EC09EF12FC04C
:103200009FF164C103F065C104F066C105F067C1B8
:1032100006F09CC107F09DC108F09EC109F09FC156
:103220000AF0C1EC21F003C0B0F104C0B1F105C057
:10323000B2F106C0B3F1B0C1B8F1B1C1B9F1B2C1D8
:10324000BAF1B3C1BBF1B8C194F1B9C195F1BAC13A
:1032500096F1BBC197F1000E01019415B86F800E75
:103260009515B96FFF0E9615BA6FFF0E9715BB6FC8
:10327000B8C1B0F1B9C1B1F1BAC1B2F1BBC1B3F1DA
:10328000B0C113F0B1C114F0B2C115F0B3C116F062
:10329000000E176E720E186E310E196E3F0E1A6EFA
:1032A00021EC24F013C074F114C075F115C076F14F
:1032B00016C077F19CC130F09DC131F09EC132F053
:1032C0009FC133F0B0C12CF0B1C12DF0B2C12EF0CE
:1032D000B3C12FF0BBEC33F02CC098F12DC099F1A5
:1032E0002EC09AF12FC09BF1180E176E720E186E39
:1032F000310E196E3F0E1A6E98C130F099C131F03F
:103300009AC132F09BC133F064C12CF065C12DF03D
:1033100066C12EF067C12FF0BBEC33F02CC013F068
:103320002DC014F02EC015F02FC016F021EC24F0A3
:1033300013C014F114C015F115C016F116C017F121
:1033400014C103F015C104F016C105F017C106F051
:103350008C0E176EBE0E186EBF0E196E350E1A6EDD
:10336000B0C113F0B1C114F0B2C115F0B3C116F081
:1033700021EC24F013C007F014C008F015C009F0C8
:1033800016C00AF0C1EC21F003C078F104C079F155
:1033900005C07AF106C07BF174C103F075C104F079
:1033A00076C105F077C106F078C107F079C108F061
:1033B0007AC109F07BC10AF0C1EC21F003C0B4F17D
:1033C00004C0B5F105C0B6F106C0B7F174C130F064
:1033D00075C131F076C132F077C133F0B4C12CF051
:1033E000B5C12DF0B6C12EF0B7C12FF0BBEC33F054
:1033F0002CC098F12DC099F12EC09AF12FC09BF1ED
:1034000078C12CF079C12DF07AC12EF07BC12FF05C
:1034100098C130F099C131F09AC132F09BC133F0BC
:10342000BBEC33F02CC044F12DC045F12EC046F169
:103430002FC047F1B4C113F0B5C114F0B6C115F0F7
:10344000B7C116F0B4C117F0B5C118F0B6C119F084
:10345000B7C11AF021EC24F013C0B0F114C0B1F1DF
:1034600015C0B2F116C0B3F10E0E076EEA0E086E6B
:10347000DD0E096EB50E0A6E4C0E176EBB0E186E81
:10348000310E196E330E1A6EB0C113F0B1C114F0C3
:10349000B2C115F0B3C116F021EC24F013C003F053
:1034A00014C004F015C005F016C006F0C1EC21F000
:1034B00003C0A4F104C0A5F105C0A6F106C0A7F1A0
:1034C000550E076EB30E086E8A0E096E380E0A6E20
:1034D000B0C117F0B1C118F0B2C119F0B3C11AF000
:1034E000A4C113F0A5C114F0A6C115F0A7C116F030
:1034F00021EC24F013C003F014C004F015C005F053
:1035000016C006F0C1EC21F003C058F104C059F117
:1035100005C05AF106C05BF1610E076E0B0E086E16
:10352000360E096EBB0E0A6EB0C117F0B1C118F0AD
:10353000B2C119F0B3C11AF058C113F059C114F057
:103540005AC115F05BC116F021EC24F013C003F052
:1035500014C004F015C005F016C006F0C1EC21F04F
:1035600003C048F104C049F105C04AF106C04BF15F
:10357000AB0E076EAA0E086E2A0E096E3E0E0A6E7C
:10358000B0C117F0B1C118F0B2C119F0B3C11AF04F
:1035900048C113F049C114F04AC115F04BC116F0EF
:1035A00021EC24F013C003F014C004F015C005F0A2
:1035B00016C006F0C1EC21F003C038F104C039F1A7
:1035C00005C03AF106C03BF1B4C12CF0B5C12DF0F5
:1035D000B6C12EF0B7C12FF0B0C117F0B1C118F0CD
:1035E000B2C119F0B3C11AF038C113F039C114F0E7
:1035F0003AC115F03BC116F021EC24F013C030F0B5
:1036000014C031F015C032F016C033F0BBEC33F00B
:103610002CC080F12DC081F12EC082F12FC083F12A
:10362000000E076E000E086E000E096EC00E0A6EC8
:1036300080C103F081C104F082C105F083C106F0AE
:10364000C1EC21F003C038F004C039F005C03AF0F5
:1036500006C03BF080C117F081C118F082C119F09B
:1036600083C11AF0B4C113F0B5C114F0B6C115F09E
:10367000B7C116F021EC24F013C034F014C035F0BB
:1036800015C036F016C037F036EC26F034C03CF1E9
:1036900035C03DF136C03EF137C03FF144C107F0BF
:1036A00045C108F046C109F047C10AF044C117F00E
:1036B00045C118F046C119F047C11AF0B4C113F062
:1036C000B5C114F0B6C115F0B7C116F021EC24F065
:1036D00013C003F014C004F015C005F016C006F0C6
:1036E000C1EC21F003C018F104C019F105C01AF1B2
:1036F00006C01BF13CC12CF03DC12DF03EC12EF0A7
:103700003FC12FF018C130F019C131F01AC132F0A9
:103710001BC133F0BBEC33F02CC04CF12DC04DF18C
:103720002EC04EF12FC04FF1B4C130F0B5C131F011
:10373000B6C132F0B7C133F04CC12CF04DC12DF001
:103740004EC12EF04FC12FF0BBEC33F02CC098F1DE
:103750002DC099F12EC09AF12FC09BF1000E2C6E56
:10376000000E2D6E800E2E6E3F0E2F6E98C130F023
:1037700099C131F09AC132F09BC133F0BBEC33F008
:103780002CC0B4F12DC0B5F12EC0B6F12FC0B7F1E9
:10379000B4C1B8F1B5C1B9F1B6C1BAF1B7C1BBF1A5
:1037A000B8C1ACF1B9C1ADF1BAC1AEF1BBC1AFF1B5
:1037B00088C14DF089C14EF08AC14FF08BC150F0E5
:1037C000170ED8904D364E364F365036E82EE1EF74
:1037D0001BF04D500101AC274E50AD234F50AE238E
:1037E0005050AF23170E4D6EACC14EF0ADC14FF02F
:1037F000AEC150F0AFC151F04D6601EF1CF009EFC2
:103800001CF05134513250324F324E324D2EFCEFBB
:103810001BF051BE18EF1CF0515050104F1006E134
:103820004E04D8B016EF1CF018EF1CF030EF1CF06F
:10383000B4C12CF0B5C12DF0B6C12EF0B7C12FF038
:1038400088C130F089C131F092EC29F02CC0B4F17C
:103850002DC0B5F12EC0B6F12FC0B7F140EF1CF06E
:10386000ACC1B8F1ADC1B9F1AEC1BAF1AFC1BBF1F4
:10387000B8C1B4F1B9C1B5F1BAC1B6F1BBC1B7F1C4
:1038800084C113F085C114F086C115F087C116F00C
:10389000B4C117F0B5C118F0B6C119F0B7C11AF02C
:1038A00021EC24F013C084F014C085F015C086F01C
:1038B00016C087F0120015EC35F0000E31EC35F033
:1038C000000E0001A36F680EA46F000EA56FAE0E70
:1038D000A06F690EA16F000EA26F20EEA0F000EEA7
:1038E0001FF0050EDBCFEBFFE806FCE20BEC31F03E
:1038F000950E0001966F0F0E976F8A0E986F0F0E40
:10390000996F000E886F000E896F200E8A6F410E2E
:103910008B6F000E846F000E856F000E866F400E59
:10392000876FCDEC07F084C08EF085C08FF086C025
:1039300090F087C091F0000E346E000E356EA00E30
:10394000366E400E376E8EC038F08FC039F090C0A2
:103950003AF091C03BF036EC26F034C09AF035C016
:103960009BF036C09CF037C09DF0000E00019F6FA9
:10397000000E9E6F20EC35F003C0B6F004C0B7F027
:103980000001B86BB96BB251B625B26FB351B72114
:10399000B36FB451B821B46FB551B921B56F0C0EE6
:1039A000E82EFED700F000019E4B9F2B9FBFE2EF59
:1039B0001CF0E80E9E5D030E9F59D8A0E2EF1CF0AC
:1039C000E4EF1CF0BAEF1CF06F0E176E120E186EBB
:1039D000830E196E3A0E1A6EB2C003F0B3C004F033
:1039E000B4C005F0B5C006F0010EADEC2BF003C07D
:1039F00013F004C014F005C015F006C016F021EC59
:103A000024F013C02CF014C02DF015C02EF016C0F9
:103A10002FF046EC2EF02CC0AEF02DC0AFF02EC033
:103A2000B0F02FC0B1F0000E0001B26F000EB36F06
:103A3000000EB46F000EB56F20EEA0F000EE1FF088
:103A4000050EDBCFEBFFE806FCE2CFEC31F09AC0CD
:103A500017F09BC018F09CC019F09DC01AF0AEC0C2
:103A600003F0AFC004F0B0C005F0B1C006F0010E25
:103A7000ADEC2BF003C013F004C014F005C015F03A
:103A800006C016F021EC24F013C092F014C093F09D
:103A900015C094F016C095F0000E176EC40E186E87
:103AA000060E196E490E1A6E92C013F093C014F0F0
:103AB00094C015F095C016F021EC24F013C034F03A
:103AC00014C035F015C036F016C037F09AC017F0A4
:103AD0009BC018F09CC019F09DC01AF0AEC003F056
:103AE000AFC004F0B0C005F0B1C006F0010EADECFF
:103AF0002BF003C013F004C014F005C015F006C08D
:103B000016F021EC24F013C030F014C031F015C0D1
:103B100032F016C033F0000E2C6E000E2D6EA00E8B
:103B20002E6E400E2F6EBBEC33F02CC038F02DC043
:103B300039F02EC03AF02FC03BF036EC26F034C0FE
:103B4000AAF035C0ABF036C0ACF037C0ADF0000E17
:103B5000346E000E356E7A0E366E440E376EAAC085
:103B600038F0ABC039F0ACC03AF0ADC03BF0C9ECB6
:103B70002EF0D8A0BEEF1DF0C0EF1DF0DAEF1DF063
:103B8000AAC003F0ABC004F0ACC005F0ADC006F0B5
:103B9000000E076E000E086EEB0E096E430E0A6EE5
:103BA000C1EC21F003C0AAF004C0ABF005C0ACF03A
:103BB00006C0ADF0000E346E000E356EFA0E366E95
:103BC000440E376EAAC038F0ABC039F0ACC03AF042
:103BD000ADC03BF0C9EC2EF0D8A0F1EF1DF0F3EF33
:103BE0001DF026EF1EF0000E346E000E356E7A0EBC
:103BF000366E440E376EAAC038F0ABC039F0ACC098
:103C00003AF0ADC03BF0C9EC2EF0D8B00AEF1EF090
:103C10000CEF1EF026EF1EF0AAC013F0ABC014F09C
:103C2000ACC015F0ADC016F09A0E176E990E186E56
:103C3000990E196E3F0E1A6E21EC24F013C0AAF0F3
:103C400014C0ABF015C0ACF016C0ADF0AAC034F093
:103C5000ABC035F0ACC036F0ADC037F0000E386EFA
:103C6000400E396E9C0E3A6E450E3B6EC9EC2EF03E
:103C7000D8B03DEF1EF03FEF1EF072EF1EF0000EC9
:103C8000346E400E356E1C0E366E450E376EAAC071
:103C900038F0ABC039F0ACC03AF0ADC03BF0C9EC85
:103CA0002EF0D8B056EF1EF058EF1EF072EF1EF057
:103CB000AAC013F0ABC014F0ACC015F0ADC016F044
:103CC000CD0E176ECC0E186E8C0E196E3F0E1A6E3E
:103CD00021EC24F013C0AAF014C0ABF015C0ACF076
:103CE00016C0ADF0AAC034F0ABC035F0ACC036F0B1
:103CF000ADC037F0000E386E500E396EC30E3A6EFE
:103D0000480E3B6EC9EC2EF0D8A089EF1EF08BEF69
:103D10001EF0BEEF1EF0000E346E400E356E9C0E8F
:103D2000366E450E376EAAC038F0ABC039F0ACC065
:103D30003AF0ADC03BF0C9EC2EF0D8B0A2EF1EF0C7
:103D4000A4EF1EF0BEEF1EF0AAC013F0ABC014F03B
:103D5000ACC015F0ADC016F0290E176E5C0E186ED3
:103D60008F0E196E3F0E1A6E21EC24F013C0AAF0CC
:103D700014C0ABF015C0ACF016C0ADF0AAC02CF06A
:103D8000ABC02DF0ACC02EF0ADC02FF046EC2EF045
:103D90002FBEDAEF1EF02F500BE1410E2C5C420ECD
:103DA0002D580F0E2E58D8B0D8EF1EF0DAEF1EF0B7
:103DB00041EF1FF0AAC02CF0ABC02DF0ACC02EF02C
:103DC000ADC02FF046EC2EF02FBEF3EF1EF02F50BB
:103DD0002E100BE1E90E2C5C030E2D58D8A0F3EF4A
:103DE0001EF0F5EF1EF041EF1FF0DA0E0001606FDC
:103DF000000E616F900E626F0F0E636FAAC02CF001
:103E0000ABC02DF0ACC02EF0ADC02FF046EC2EF0C4
:103E10002CC064F02DC065F02EC066F02FC067F096
:103E200046EC33F096C017F097C018F020EEA0F0E3
:103E300000EE19F0050EDBCFEBFFE806FCE21CEC10
:103E400032F0DA0E176E000E186E20EEA0F000EEC3
:103E500019F0050EDBCFEBFFE806FCE21CEC32F0BC
:103E600098C017F099C018F020EEA0F000EE19F0FD
:103E7000050EDBCFEBFFE806FCE21CEC32F050EF66
:103E80001FF07D0E176E0F0E186E20EEA0F000EEE4
:103E900019F0050EDBCFEBFFE806FCE21CEC32F07C
:103EA000020E00018D6FE70E8C6F000EE82EFED71C
:103EB0008C2FFCD78D2FFAD700F0B5EF1CF027EF31
:103EC00000F040C068F041C069F042C06AF043C0F1
:103ED0006BF068C080F069C081F06AC082F06BC08E
:103EE00083F0000E00018015446E000E8115456EB2
:103EF000800E8215466E7F0E8315476E800E461823
:103F000009E17F0E471844104510D8A48AEF1FF02E
:103F10008CEF1FF0BAEF1FF040C017F041C018F04F
:103F200042C019F043C01AF040C013F041C014F071
:103F300042C015F043C016F021EC24F013C003F08A
:103F400014C004F015C005F016C006F040C007F01C
:103F500041C008F042C009F043C00AF0C1EC21F0B2
:103F600003C040F004C041F005C042F006C043F079
:103F7000C0EF21F083BFC9EF1FF08351821181117F
:103F800006E18005D8B0C7EF1FF0C9EF1FF005EFBD
:103F900020F0FF0E8015446EFF0E8115456EFF0E5A
:103FA0008215466E7F0E8315476E445045104610AD
:103FB0004710D8A4DEEF1FF0E0EF1FF0EAEF1FF08C
:103FC00040C040F041C041F042C042F043C043F025
:103FD000C0EF21F083BFF1EF1FF0EFEF1FF005EF0F
:103FE00020F0000EBB6F210EBA6F980E036E0F0EFD
:103FF000046EEAEC34F003C040F004C041F005C0A8
:1040000042F006C043F0C0EF21F0170E446E80C0AE
:1040100045F081C046F082C047F083C048F0446656
:1040200014EF20F01CEF20F048344832473246327B
:104030004532442E0FEF20F045C078F046C079F0AD
:1040400047C07AF048C07BF00001785179117A11AD
:104050007B11D8A42EEF20F030EF20F060EF20F09D
:10406000000E646F000E656F000E666F000E676FC6
:1040700045EF20F0D8908037813782378337010EA3
:104080006427000E65236623672382AF4AEF20F082
:104090004CEF20F03AEF20F0FF0E6425446EFF0E47
:1040A0006521456EFF0E6621466EFF0E6721476E45
:1040B0004450785F4550795B46507A5B47507B5B54
:1040C000810E7827FF0E7923FF0E7A23FF0E7B23C4
:1040D000FF0E8015446EFF0E8115456E7F0E821512
:1040E000466E000E8315476E000E4410806F000E62
:1040F0004510816F800E4610826F000E4710836F4F
:1041000078A185EF20F087EF20F08FEF20F080512D
:1041100080278151812382518223835183237B35E0
:104120007B337A33793378338051802781518123EF
:104130008251822383518323000E606F000E616FD2
:10414000000E626F000E636F60C06CF061C06DF0B6
:1041500062C06EF063C06FF0000E7C6F000E7D6F6A
:10416000000E7E6F010E7F6FFEEF20F060517C2508
:10417000706F61517D21716F62517E21726F635149
:104180007F21736F7051805D7151815972518259D5
:104190008351800A446E7351800A4458D8A0D3EFEB
:1041A00020F0D5EF20F0F1EF20F070517C25606F0A
:1041B00071517D21616F72517E21626F73517F2138
:1041C000636F7051805F7151815B7251825B73517B
:1041D000835B7C516C277D516D237E516E237F5113
:1041E0006F23805180278151812382518223835103
:1041F0008323D8907F337E337D337C337C517D1194
:104200007E117F11D8A407EF21F009EF21F0B6EF5E
:1042100020F08051811182118311D8B412EF21F066
:1042200014EF21F075EF21F0000E746F000E756F22
:10423000800E766F3F0E776F74C034F075C035F026
:1042400076C036F077C037F0000E386E000E396E4B
:10425000800E3A6E3F0E3B6EC9EC2EF0D8A033EFC5
:1042600021F035EF21F075EF21F0000E0001746FA1
:10427000000E756F800E766F3F0E776F000E346EF6
:10428000000E356E800E366E3F0E376E74C038F0FD
:1042900075C039F076C03AF077C03BF0C9EC2EF02B
:1042A000D8B055EF21F057EF21F060EF21F0020E6A
:1042B00000016C27000E6D236E236F2375EF21F034
:1042C000010E00016C15446E000E6D15456E000E5A
:1042D0006E15466E000E6F15476E44506C274550A4
:1042E0006D2346506E2347506F236CC044F06DC061
:1042F00045F06EC046F06FC047F047344732463253
:1043000045324432000E44240001806F000E4520E7
:10431000816F000E4620826F3F0E4720836F78C06A
:1043200044F079C045F07AC046F07BC047F0170EE4
:10433000D8904436453646364736E82E98EF21F079
:104340004450802745508123465082234750832381
:1043500080C068F081C069F082C06AF083C06BF0F1
:1043600068C074F069C075F06AC076F06BC077F011
:1043700074C040F075C041F076C042F077C043F0A1
:1043800012000650800B0F6E06500624116E05AE0B
:10439000CCEF21F0CEEF21F0CFEF21F011801150C2
:1043A000D8B4D5EF21F0D7EF21F0ECEF21F01128B0
:1043B000D8A4DDEF21F0DFEF21F0E7EF21F0000ED0
:1043C000036E000E046E000E056E000E066E058E66
:1043D000000E066EF4EF21F0000E036E000E046E68
:1043E000000E056E000E066E0A50800B106E0F5008
:1043F0001018D8B4FEEF21F000EF22F001EF22F008
:104400000F8C0A500A24106E09AE09EF22F00BEF50
:1044100022F00CEF22F010801050D8B412EF22F0EE
:1044200014EF22F029EF22F01028D8A41AEF22F07E
:104430001CEF22F024EF22F0000E076E000E086E33
:10444000000E096E000E0A6E098E000E0A6E31EF24
:1044500022F0000E076E000E086E000E096E000EB0
:104460000A6E1150105CD8B038EF22F03AEF22F00B
:1044700061EF22F00FAC3FEF22F041EF22F043EF6B
:1044800022F0800E0F1A11C012F010C011F012C0ED
:1044900010F003C012F007C003F012C007F004C010
:1044A00012F008C004F012C008F005C012F009C0F4
:1044B00005F012C009F006C012F00AC006F012C0E2
:1044C0000AF0000E126E115010C00BF00C6A0B5E59
:1044D000000E0C5A0CBE76EF22F00C5009E11A0EB9
:1044E0000B5CD8A076EF22F078EF22F0AFEF22F04D
:1044F0000350041005100610D8A481EF22F084EFB9
:1045000022F0010E85EF22F0000E126E000E036EF7
:10451000000E046E000E056E000E066E10C011F047
:10452000B8EF22F012A097EF22F099EF22F09FEF60
:1045300022F0D89012300109126EA1EF22F0D8902B
:10454000123203A0A6EF22F0A8EF22F0A9EF22F08A
:10455000128E06340632053204320332112A10500C
:10456000115CD8A0B6EF22F0B8EF22F092EF22F063
:104570000FBCBDEF22F0BFEF22F0FFEF22F0115091
:10458000D8A4C5EF22F0C7EF22F0D1EF22F0000E41
:10459000036E000E046E000E056E000E066E20EF18
:1045A00024F00750032608500422095005220A501F
:1045B000062206A0DEEF22F0E0EF22F08CEF23F0DF
:1045C00012A0E5EF22F0E7EF22F0EDEF22F0D89015
:1045D00012300109126EEFEF22F0D890123203A0D0
:1045E000F4EF22F0F6EF22F0F7EF22F0128E06340D
:1045F0000632053204320332112A8CEF23F00750C1
:10460000035C08500458095005580650800A0B6E88
:104610000A50800A0B58D8B010EF23F012EF23F0A5
:104620003DEF23F00350075C0B6E045008580C6EEE
:10463000055009580D6E06500A580E6EFF0E0B24D9
:10464000036EFF0E0C20046EFF0E0D20056EFF0E94
:104650000E20066E800E0F1A126C1250D8A433EF83
:1046600023F035EF23F045EF23F0010E0326000E73
:1046700004220522062245EF23F00750035E08506E
:10468000045A0950055A0A50065A035004100510DE
:104690000610D8A44EEF23F050EF23F085EF23F05F
:1046A0001250D8A456EF23F058EF23F085EF23F0F3
:1046B000000E036E000E046E000E056E000E066EF8
:1046C00020EF24F0D890033604360536063612AEB5
:1046D0006CEF23F06EEF23F06FEF23F0038012A056
:1046E00074EF23F076EF23F07AEF23F0D8801236C0
:1046F0007CEF23F0D89012361150D8B482EF23F01B
:1047000084EF23F085EF23F0110605AE8AEF23F046
:104710008CEF23F062EF23F0000E106E12AE93EFD9
:1047200023F095EF23F0ADEF23F012C00BF07F0ED6
:104730000B16D8B49EEF23F0A0EF23F0A4EF23F0E4
:10474000010E106EADEF23F003A0A9EF23F0ABEF45
:1047500023F0ADEF23F0A0EF23F01050D8B4B3EF67
:1047600023F0B5EF23F0E0EF23F0010E0326000E57
:1047700004220522062206A0C0EF23F0C2EF23F098
:10478000E0EF23F003C00BF004C00CF005C00DF007
:1047900006C00EF00E340E320D320C320B320BC04E
:1047A00003F00CC004F00DC005F00EC006F0112897
:1047B000D8B4DDEF23F0DFEF23F0E0EF23F0112A90
:1047C0001128D8B4E6EF23F0E8EF23F0F0EF23F060
:1047D0001150D8A4EEEF23F0F0EF23F002EF24F015
:1047E000000E036E000E046E000E056E000E066EC7
:1047F0001150D8A4FEEF23F000EF24F002EF24F0D4
:10480000000E0F6E11A007EF24F009EF24F00CEF5B
:1048100024F0058E0DEF24F0059ED8901130066E21
:104820000FAE15EF24F017EF24F018EF24F0068EEA
:1048300003C003F004C004F005C005F006C006F094
:1048400012001650800B1F6E16501624256E15AEE2
:104850002CEF24F02EEF24F02FEF24F025802550AC
:10486000D8B435EF24F037EF24F04AEF24F02528B0
:10487000D8A43DEF24F03FEF24F047EF24F0000EE2
:10488000136E000E146E000E156E000E166E158E51
:1048900052EF24F0000E136E000E146E000E156E13
:1048A000000E166E1A50800B1F1A1A501A24246E0E
:1048B00019AE5DEF24F05FEF24F060EF24F0248068
:1048C0002450D8B466EF24F068EF24F07BEF24F096
:1048D0002428D8A46EEF24F070EF24F078EF24F0B1
:1048E000000E176E000E186E000E196E000E1A6E76
:1048F000198E83EF24F0000E176E000E186E000E56
:10490000196E000E1A6E2450D8B489EF24F08BEF84
:1049100024F093EF24F02550D8A491EF24F093EFE6
:1049200024F09DEF24F0000E136E000E146E000EA6
:10493000156E000E166E35EF26F019501302F3CFE8
:104940002AF0F4CF2BF02A50206E216A226A236AC3
:104950002B50266E276A286A296A18501402F3CF52
:104960002AF0F4CF2BF02A502026000E21222222FA
:1049700023222B502626000E2722282229221750D8
:104980001502F3CF2AF0F4CF2BF02A502026000E88
:104990002122222223222B502626000E27222822E3
:1049A000292222C023F021C022F020C021F0206A59
:1049B00017501402F3CF2AF0F4CF2BF02A50202600
:1049C0002B502122000E2222000E23221850130207
:1049D000F3CF2AF0F4CF2BF02A5020262B5021229F
:1049E000000E2222000E232222C023F021C022F03A
:1049F00020C021F0206A17501302F3CF2AF0F4CF21
:104A00002BF02A5020262B502122000E2222000EAD
:104A1000232219501402F3CF2AF0F4CF2BF02A509E
:104A200026262B502722000E2822000E292218505D
:104A30001502F3CF2AF0F4CF2BF02A5026262B5064
:104A40002722000E2822000E292219501502F3CF2A
:104A50002AF0F4CF2BF02A501B6E2B501C6E1D6ACF
:104A60001E6A1DC01EF01CC01DF01BC01CF01B6A7E
:104A70001B5026261C5027221D5028221E5029225A
:104A800020C01BF021C01CF022C01DF023C01EF06E
:104A9000190E50EF25F0D8901E321D321C321B32F9
:104AA000E82E4BEF25F01B5026261C5027221D50C8
:104AB00028221E50292222C023F021C022F020C02B
:104AC00021F0206A245025C01BF01C6A1B26000E12
:104AD0001C22820E1B242A6EFF0E1C202B6E86EFDA
:104AE00025F0D890263627362836293623AE7BEF98
:104AF00025F07DEF25F07EEF25F02680D89020363A
:104B00002136223623362A06D8A02B0628AE8BEF74
:104B100025F08DEF25F071EF25F0000E246E23AE09
:104B200094EF25F096EF25F0BAEF25F0FF0E201454
:104B30001B6EFF0E21141C6EFF0E22141D6E7F0EC5
:104B400023141E6E1B501C101D101E10D8B4ABEF8A
:104B500025F0ADEF25F0B1EF25F0010E246EBAEF90
:104B600025F026A0B6EF25F0B8EF25F0BAEF25F036
:104B7000ADEF25F02450D8B4C0EF25F0C2EF25F0FA
:104B8000E6EF25F0010E2626000E272228222922F4
:104B900029A0CDEF25F0CFEF25F0E6EF25F026C0D8
:104BA0001BF027C01CF028C01DF029C01EF01E34C9
:104BB0001E321D321C321B321BC026F01CC027F0D7
:104BC0001DC028F01EC029F02A4A2B2A2BBEF1EF67
:104BD00025F02B5008E12A28D8A0F1EF25F0F3EFBB
:104BE00025F0FDEF25F0000E266E000E276E800EDC
:104BF000286E7F0E296E2BEF26F02BBE0AEF26F0D3
:104C00002B5006E12A04D8B008EF26F00AEF26F070
:104C100016EF26F0000E266E000E276E000E286E90
:104C2000000E296E000E1F6E2BEF26F02AC025F015
:104C3000FF0E2616FF0E27167F0E2816000E2916C9
:104C400025A025EF26F027EF26F028EF26F0288E66
:104C5000D8902530296E1F50291226C013F027C086
:104C600014F028C015F029C016F012003750800B40
:104C7000446E375037244B6E36AE41EF26F043EF8B
:104C800026F044EF26F04B804B50D8B44AEF26F084
:104C90004CEF26F061EF26F04B28D8A452EF26F017
:104CA00054EF26F05CEF26F0000E346E000E356EE9
:104CB000000E366E000E376E368E000E376E69EFC0
:104CC00026F0000E346E000E356E000E366E000EAD
:104CD000376E3B50800B441A3B503B244C6E3AAE2F
:104CE00074EF26F076EF26F077EF26F04C804C50EC
:104CF000D8B47DEF26F07FEF26F094EF26F04C2815
:104D0000D8A485EF26F087EF26F08FEF26F0000E6F
:104D1000386E000E396E000E3A6E000E3B6E3A8E03
:104D2000000E3B6E9CEF26F0000E386E000E396EC2
:104D3000000E3A6E000E3B6E385039103A103B10A0
:104D4000D8A4A5EF26F0A7EF26F0BFEF26F0000EBF
:104D5000346E000E356E000E366E000E376E800E0D
:104D600036127F0E37124450371234C034F035C03B
:104D700035F036C036F037C037F002EF28F04B5030
:104D8000D8A4C5EF26F0C7EF26F0D1EF26F0000E2D
:104D9000346E000E356E000E366E000E376E02EF6A
:104DA00028F04C504BC03CF03D6A3C5E000E3D5A32
:104DB0007F0E3C24456E000E3D20466E34C040F010
:104DC00035C041F036C042F037C043F0000E346EBB
:104DD000000E356E000E366E000E376E000E476EFA
:104DE000000E486E000E496E000E4A6E000E4C6EAC
:104DF00032EF27F04C50D8B400EF27F002EF27F045
:104E000019EF27F0D8904036413642364336D890D5
:104E100034363536363637364AAE11EF27F013EFD3
:104E200027F014EF27F03480D890473648364936BB
:104E30004A363850405C395041583A5042583B50FD
:104E40004358D8A026EF27F028EF27F031EF27F0BE
:104E50004A8C3850405E3950415A3A50425A3B5081
:104E6000435A4C2A190E4C6438EF27F03AEF27F0DA
:104E7000FAEF26F04050411042104310D8B443EFEF
:104E800027F045EF27F05DEF27F047805DEF27F033
:104E9000D89034363536363637364AAE52EF27F0AC
:104EA00054EF27F055EF27F03480D8904736483636
:104EB00049364A364506D8A0460636AE62EF27F098
:104EC00064EF27F048EF27F0000E4C6E4AAE6BEF10
:104ED00027F06DEF27F091EF27F0FF0E47143C6E9F
:104EE000FF0E48143D6EFF0E49143E6E7F0E4A14AD
:104EF0003F6E3C503D103E103F10D8B482EF27F07B
:104F000084EF27F088EF27F0010E4C6E91EF27F029
:104F100034A08DEF27F08FEF27F091EF27F084EF8B
:104F200027F04C50D8B497EF27F099EF27F0BDEF5A
:104F300027F0010E3426000E35223622372237A004
:104F4000A4EF27F0A6EF27F0BDEF27F034C03CF028
:104F500035C03DF036C03EF037C03FF03F343F3201
:104F60003E323D323C323CC034F03DC035F03EC0B4
:104F700036F03FC037F0454A462A46BEC8EF27F014
:104F8000465008E14528D8A0C8EF27F0CAEF27F01F
:104F9000D5EF27F0000E466E4568000E346E000E09
:104FA000356E000E366E000E376E46BEE2EF27F00D
:104FB000465006E14504D8B0E0EF27F0E2EF27F0D5
:104FC000F0EF27F0000E466E000E456E000E346EB8
:104FD000000E356E000E366E000E376E000E446EFB
:104FE00045C04BF04BA0F7EF27F0F9EF27F0FCEFAF
:104FF00027F0368EFDEF27F0369ED8904B30376E77
:10500000B3EF26F0120040C0D9FF41C0DAFFDECF77
:10501000F6FFDDCFF7FF000EF86E0800F550250A09
:10502000D8A415EF28F017EF28F074EF29F040C04E
:10503000D9FF41C0DAFFDE2A000EDD22000E00019A
:10504000BF6F000EBE6FBEC05AF0BFC05BF0C0693C
:10505000C16940C0D9FF41C0DAFFDECFF6FFDDCF26
:10506000F7FF000EF86E0800F5502A0AD8A43BEFAF
:1050700028F03DEF28F066EF28F040C0D9FF41C08E
:10508000DAFFDE2A000EDD2242C0D9FF43C0DAFF7C
:10509000DFCF44F0020EDE26DFCF45F0000EDD222A
:1050A00044C0D9FF45C0DAFFDECFBEF0DDCFBFF090
:1050B000BFBF5FEF28F05DEF28F09EEF28F05A8029
:1050C000BE6DBF1FD8B0BF2B9EEF28F040C0D9FFE8
:1050D00041C0DAFFDECF0AF0DDCF0BF087EC2CF019
:1050E0000AC0BEF00BC0BFF07DEF28F040C0D9FF72
:1050F00041C0DAFFDE2A000EDD22D00E446EFF0E24
:10510000456E40C0D9FF41C0DAFFDECFF6FFDDCFEC
:10511000F7FF000EF86E0800F550466E476A4450DF
:10512000462645504722475009E10A0E465CD8A062
:105130009CEF28F09EEF28F076EF28F040C0D9FFD2
:1051400041C0DAFFDECFF6FFDDCFF7FF000EF86ECD
:105150000800F550750AD8A4B0EF28F0B2EF28F097
:10516000F3EF28F040C0D9FF41C0DAFFDE2A000E7D
:10517000DD2242C0D9FF43C0DAFFDFCF44F0020E88
:10518000DE26DFCF45F0000EDD2244C0D9FF45C04A
:10519000DAFFDECF46F0DDCF47F046C04AF047C029
:1051A0004BF04C6A4D6A4E6A4F6A506A516A3EC073
:1051B0001EF03FC01FF04AC020F04BC021F04CC091
:1051C00022F04DC023F04EC024F04FC025F050C057
:1051D00026F051C027F0ACEC2AF01EC03EF01FC0F4
:1051E0003FF091EF29F040C0D9FF41C0DAFFDECF98
:1051F00003F0DDCF04F0920E056E0F0E066E000E6A
:10520000086E020E076E4BEC2FF003500410D8A46A
:105210000CEF29F00EEF29F03CEF29F0020E40C010
:10522000D9FF41C0DAFFDE26000EDD2242C0D9FFE1
:1052300043C0DAFFDFCF44F0040EDE26DFCF45F0B7
:10524000000EDD2244C0D9FF45C0DAFFDECF46F0B4
:10525000DECF47F0DECF48F0DECF49F046504A6E51
:1052600047504B6E48504C6E49504D6E4E6A4F6AD7
:10527000506A516AD7EF28F040C0D9FF41C0DAFF29
:10528000DECFF6FFDDCFF7FF000EF86E0800F55019
:10529000250AD8A44EEF29F050EF29F067EF29F046
:1052A00040C0D9FF41C0DAFFDE2A000EDD22000E29
:1052B000046E250E036E3EC005F03FC006F0A6EC5E
:1052C00030F0000E3F6E010E3E6E91EF29F040C0AF
:1052D000D9FF41C0DAFFDE2A000EDD22000E3F6E4C
:1052E000000E3E6E91EF29F040C0D9FF41C0DAFFB9
:1052F000DECFF6FFDDCFF7FF000EF86E0800F550A9
:10530000036E046A3EC005F03FC006F0A6EC30F024
:1053100040C0D9FF41C0DAFFDE2A000EDD2261EF76
:1053200029F012002CC03AF02DC03BF02EC03CF00A
:105330002FC03DF031BEA6EF29F0315009E1800EBB
:10534000305CD8A0A6EF29F0A8EF29F006EF2AF0EC
:105350003AC013F03BC014F03CC015F03DC016F04D
:10536000000E176E000E186E000E196E7F0E1A6E6C
:1053700021EC24F013C03AF014C03BF015C03CF00F
:1053800016C03DF0810E3026FF0E312231BED2EF25
:1053900029F0315009E1800E305CD8A0D2EF29F01D
:1053A000D4EF29F070EF2AF03AC013F03BC014F0AC
:1053B0003CC015F03DC016F0000E176E000E186EC2
:1053C000000E196E7F0E1A6E21EC24F013C03AF015
:1053D00014C03BF015C03CF016C03DF0810E3026E5
:1053E000FF0E312231BEFEEF29F0315009E1800E6F
:1053F000305CD8A0FEEF29F000EF2AF070EF2AF021
:10540000000E316E7F0E306E70EF2AF031AE12EF6B
:105410002AF0820E305CFF0E3158D8B012EF2AF01D
:1054200014EF2AF070EF2AF03AC013F03BC014F0EA
:105430003CC015F03DC016F0000E176E000E186E41
:10544000800E196E0C0E1A6E21EC24F013C03AF087
:1054500014C03BF015C03CF016C03DF0660E30267F
:10546000000E312231AE3EEF2AF0820E305CFF0E8C
:105470003158D8B03EEF2AF040EF2AF070EF2AF012
:105480003AC013F03BC014F03CC015F03DC016F01C
:10549000000E176E000E186E800E196E0C0E1A6E2E
:1054A00021EC24F013C03AF014C03BF015C03CF0DE
:1054B00016C03DF0660E3026000E312231AE6AEF86
:1054C0002AF0820E305CFF0E3158D8B06AEF2AF015
:1054D0006CEF2AF070EF2AF0FF0E316E820E306E04
:1054E0007F0E3024326E000E3120336E346A356AFE
:1054F000170ED8903236333634363536E82E79EFFB
:105500002AF032C036F033C037F034C038F035C03E
:1055100039F036C013F037C014F038C015F039C078
:1055200016F03AC017F03BC018F03CC019F03DC06F
:105530001AF021EC24F013C02CF014C02DF015C08B
:105540002EF016C02FF02CC02CF02DC02DF02EC048
:105550002EF02FC02FF012000001C1BFB2EF2AF0D1
:10556000B4EF2AF0B5EF2AF05A92C1BFC2EF2AF089
:10557000C15106E1C005D8B0C0EF2AF0C2EF2AF051
:10558000C8EF2AF0000E316E010E306ECCEF2AF01B
:10559000C0C030F0C1C031F0BEC032F0BFC033F087
:1055A00020C034F021C035F022C036F023C037F0DF
:1055B00024C038F025C039F026C03AF027C03BF0AF
:1055C000000E3D6E1F0E3C6E000E0101DB6F5FEFA3
:1055D0002BF03C06D8A03D06BC0E3C24D96E010E33
:1055E0003D20DA6E34C003F035C004F036C005F05B
:1055F00037C006F038C007F039C008F03AC009F0EB
:105600003BC00AF00A0E0B6E000E0C6E000E0D6E03
:10561000000E0E6E000E0F6E000E106E000E116E5C
:10562000000E126E3EEC30F003C028F004C029F0EA
:1056300005C02AF006C02BF007C02CF008C02DF0E2
:1056400009C02EF00AC02FF02850300FDF6E300650
:10565000D8A031063206D8A0330634C003F035C0D6
:1056600004F036C005F037C006F038C007F039C086
:1056700008F03AC009F03BC00AF00A0E0B6E000EAB
:105680000C6E000E0D6E000E0E6E000E0F6E000EF4
:10569000106E000E116E000E126EC6EC2FF003C0DD
:1056A00034F004C035F005C036F006C037F007C04E
:1056B00038F008C039F009C03AF00AC03BF03C505D
:1056C0003D10D8B466EF2BF068EF2BF098EF2BF07D
:1056D0003450351036103710381039103A103B104E
:1056E000D8A475EF2BF077EF2BF0E9EF2AF031BE5D
:1056F00084EF2BF0315006E13004D8B082EF2BF06C
:1057000084EF2BF0E9EF2AF033BE8FEF2BF033500C
:1057100008E13204D8A08FEF2BF091EF2BF098EF37
:105720002BF05AB296EF2BF098EF2BF0E9EF2AF01E
:105730001EC013F01FC014F0BC0E3C24156E010EE9
:105740003D20166E32C017F033C018F06EEC31F009
:1057500013C01EF014C01FF012000B6E0B50D8B413
:10576000B4EF2BF0B6EF2BF0D8EF2BF006BEBDEF69
:105770002BF0BBEF2BF0D8EF2BF003C007F004C0E9
:1057800008F005C009F006C00AF0071E081E091E31
:105790000A1E072A000E082209220A2207C00DF05D
:1057A00008C00EF009C00FF00AC010F0E0EF2BF0B7
:1057B00003C00DF004C00EF005C00FF006C010F0DD
:1057C0000350041005100610D8A4E9EF2BF0EBEFFE
:1057D0002BF0F5EF2BF0000E036E000E046E000EA2
:1057E000056E000E066E86EF2CF0960E0C6EFFEF27
:1057F0002BF00C2AD89010320F320E320D32000EE0
:105800000D14076E000E0E14086E000E0F14096EB4
:10581000FE0E10140A6E0750081009100A10D8A4C2
:1058200014EF2CF016EF2CF0F9EF2BF024EF2CF006
:105830000C2A010E0D26000E0E220F221022D890E7
:1058400010320F320E320D32000E0D14076E000EA4
:105850000E14086E000E0F14096EFF0E10140A6E5F
:105860000750081009100A10D8A439EF2CF03BEFAC
:105870002CF018EF2CF043EF2CF00C06D8900D36DE
:105880000E360F3610360FBE48EF2CF04AEF2CF0D4
:1058900052EF2CF0020E0C6050EF2CF052EF2CF077
:1058A0003DEF2CF00CB057EF2CF059EF2CF05AEFE5
:1058B0002CF00F9ED8900C320CC007F0086A096AD1
:1058C0000A6A07C00AF0096A086A076A07500D12D7
:1058D00008500E1209500F120A5010120B50D8B473
:1058E00074EF2CF076EF2CF07EEF2CF006BE7DEFFF
:1058F0002CF07BEF2CF07EEF2CF0108E0DC003F01F
:105900000EC004F00FC005F010C006F01200000E2B
:10591000136E000E126E000E116E000E106E93EFDD
:105920002CF00A4A0B2A0AC0F6FF0BC0F7FF000E44
:10593000F86E0800F550200AD8B4A1EF2CF0A3EFC0
:105940002CF091EF2CF0F70E0C6EFF0E0D6E0AC0CE
:10595000F6FF0BC0F7FF000EF86E0800F5500E6E54
:105960000F6A0C500E260D500F220F5009E1050E44
:105970000E5CD8A0BEEF2CF0C0EF2CF091EF2CF015
:10598000CAEF2CF0000E116E010E106E0A4A0B2A9F
:1059900003EF2DF00AC0F6FF0BC0F7FF000EF86E04
:1059A0000800F5500C6E0D6A0D50000AD8B4DBEFFC
:1059B0002CF003EF2DF00C502B0AD8B4C6EF2CF0CE
:1059C000060AD8B4C2EF2CF003EF2DF012C003F09A
:1059D00013C004F0000E066E0A0E056EC4EC34F01F
:1059E0000AC0F6FF0BC0F7FF000EF86E0800F55076
:1059F000035E000E045A300E0324126E000E0420C3
:105A0000136EC6EF2CF0D00E0C6EFF0E0D6E0AC09A
:105A1000F6FF0BC0F7FF000EF86E0800F5500E6E93
:105A20000F6A0C500E260D500F220F5009E10A0E7E
:105A30000E5CD8A01EEF2DF020EF2DF0E6EF2CF03D
:105A400010501110D8A427EF2DF029EF2DF037EFCB
:105A50002DF012C00CF013C00DF00C1E0D1E0C4AE0
:105A60000D2A0CC00AF00DC00BF03BEF2DF012C058
:105A70000AF013C00BF01200FD0E076EFF0E086E49
:105A8000F00E0514096E000E06140A6E0D0E0912B2
:105A9000000E0A120750091608500A1603C0D9FF53
:105AA00004C0DAFF09C0DEFF0AC0DDFFF90E076E91
:105AB000FF0E086EF00E0514096E000E06140A6E35
:105AC000090E0912000E0A120750091608500A168C
:105AD00020EE02F00350D9260450DA2209C0DEFF7E
:105AE0000AC0DDFFFD0E076EFF0E086E05C009F04F
:105AF00006C00AF0093A0A3AF00E0A1609500F0BCE
:105B00000A12F00E0916F00E0916000E0A160D0EF6
:105B10000912000E0A120750091608500A1620EE44
:105B200004F00350D9260450DA2209C0DEFF0AC06F
:105B3000DDFFF90E076EFF0E086E05C009F006C006
:105B40000AF0093A0A3AF00E0A1609500F0B0A1227
:105B5000F00E0916F00E0916000E0A16090E0912AB
:105B6000000E0A120750091608500A1620EE06F019
:105B70000350D9260450DA2209C0DEFF0AC0DDFF37
:105B80001200FC0E076EFF0E086EF00E0514096E73
:105B9000000E06140A6E0C0E0912000E0A120750AF
:105BA000091608500A1603C0D9FF04C0DAFF09C05D
:105BB000DEFF0AC0DDFFF80E076EFF0E086EF00E66
:105BC0000514096E000E06140A6E080E0912000E66
:105BD0000A120750091608500A1620EE02F0035068
:105BE000D9260450DA2209C0DEFF0AC0DDFFFC0E10
:105BF000076EFF0E086E05C009F006C00AF0093AEC
:105C00000A3AF00E0A1609500F0B0A12F00E091686
:105C1000F00E0916000E0A160C0E0912000E0A12DA
:105C20000750091608500A1620EE04F00350D92632
:105C30000450DA2209C0DEFF0AC0DDFFF80E076E4D
:105C4000FF0E086E05C009F006C00AF0093A0A3ACC
:105C5000F00E0A1609500F0B0A12F00E0916F00E7C
:105C60000916000E0A16080E0912000E0A12075035
:105C7000091608500A1620EE06F00350D9260450E3
:105C8000DA2209C0DEFF0AC0DDFF12002E342F34F5
:105C9000356E3550D8A44FEF2EF051EF2EF05BEF5C
:105CA0002EF0000E2C6E000E2D6E000E2E6E000ECD
:105CB0002F6EC8EF2EF02CC030F02DC031F02EC06A
:105CC00032F02FC033F0200E6BEF2EF0D89033322D
:105CD000323231323032E82E66EF2EF03050346EF0
:105CE0002E8EFF0E2C16FF0E2D16FF0E2E16000EFA
:105CF0002F16960E355E35BE82EF2EF080EF2EF019
:105D000098EF2EF03550800A970FD8B08AEF2EF01A
:105D10008CEF2EF08EEF2EF051EF2EF0D8902F3228
:105D20002E322D322C32353E8EEF2EF0B0EF2EF08B
:105D30001F0E35649EEF2EF0A0EF2EF0A8EF2EF090
:105D400051EF2EF0D8902C362D362E362F363506C4
:105D50003550D8A4AEEF2EF0B0EF2EF0A2EF2EF01B
:105D60003450D8B4B6EF2EF0B8EF2EF0C0EF2EF0CE
:105D70002F1E2E1E2D1E2C6C000E2D222E222F22A9
:105D80002CC02CF02DC02DF02EC02EF02FC02FF0E7
:105D90001200000E34143C6E000E35143D6E800E61
:105DA00036143E6E7F0E37143F6E3C503D103E1051
:105DB0003F10D8A4DEEF2EF0E0EF2EF0E8EF2EF04B
:105DC000000E346E000E356E000E366E000E376E0D
:105DD000000E38143C6E000E39143D6E800E3A14DD
:105DE0003E6E7F0E3B143F6E3C503D103E103F1008
:105DF000D8A4FDEF2EF0FFEF2EF007EF2FF0000EEE
:105E0000386E000E396E000E3A6E000E3B6E37AEE5
:105E10000CEF2FF00EEF2FF017EF2FF0346C351E34
:105E2000D8B0352A361ED8B0362A800E37563BAE4B
:105E30001CEF2FF01EEF2FF027EF2FF0386C391EDC
:105E4000D8B0392A3A1ED8B03A2A800E3B56000EF6
:105E5000341A000E351A000E361A800E371A000E4C
:105E6000381A000E391A000E3A1A800E3B1A3850B2
:105E7000345C395035583A5036583B503758D8B0C2
:105E800044EF2FF046EF2FF049EF2FF0D8904AEF74
:105E90002FF0D880120003C00AF004C00BF005C038
:105EA0000CF006C00DF00706D8A00806072806E18A
:105EB0000828D8A45EEF2FF060EF2FF06DEF2FF0E1
:105EC000000E046E000E036EC5EF2FF00A4A0B2A77
:105ED0000C4A0D2A0706D8A008060AC0F6FF0BC018
:105EE000F7FF000EF86E0800F5500009D8B47BEFFC
:105EF0002FF07DEF2FF0AFEF2FF00CC0F6FF0DC0AD
:105F0000F7FF000EF86E0800F5500009D8B48BEFCB
:105F10002FF08DEF2FF0AFEF2FF007500810D8B40F
:105F200094EF2FF096EF2FF0AFEF2FF00AC0F6FFAF
:105F30000BC0F7FF000EF86E0800F5CF09F00CC09B
:105F4000F6FF0DC0F7FF000EF86E0800F5500918B7
:105F5000D8B4ADEF2FF0AFEF2FF066EF2FF00AC0FF
:105F6000F6FF0BC0F7FF000EF86E0800F5CF09F042
:105F70000CC0F6FF0DC0F7FF000EF86E0800F550DC
:105F8000095C036E046AD8A00406120020EE13F028
:105F9000070EDE6AE806FDE20B500C100D100E1025
:105FA0000F10101011101210D8B4D9EF2FF0DBEF32
:105FB0002FF02DEF30F0010E1B6EE9EF2FF0D8908F
:105FC0000B360C360D360E360F36103611361236AD
:105FD0001B2A12AEEEEF2FF0F0EF2FF0DFEF2FF0D5
:105FE000D890133614361536163617361836193635
:105FF0001A360B50035C0C5004580D5005580E50C7
:1060000006580F5007581050085811500958125090
:106010000A58D8A00EEF30F010EF30F021EF30F03A
:106020000B50035E0C50045A0D50055A0E50065A80
:106030000F50075A1050085A1150095A12500A5A54
:106040001380D8901232113210320F320E320D32CC
:106050000C320B321B2EF0EF2FF013C003F014C0E4
:1060600004F015C005F016C006F017C007F018C000
:1060700008F019C009F01AC00AF012000B500C10F9
:106080000D100E100F10101011101210D8B44BEF8D
:1060900030F04DEF30F095EF30F0010E136E5BEF06
:1060A00030F0D8900B360C360D360E360F361036D3
:1060B00011361236132A12AE60EF30F062EF30F074
:1060C00051EF30F00B50035C0C5004580D50055844
:1060D0000E5006580F5007581050085811500958C4
:1060E00012500A58D8A077EF30F079EF30F089EFEE
:1060F00030F00B50035E0C50045A0D50055A0E50F0
:10610000065A0F50075A1050085A1150095A125087
:106110000A5AD8901232113210320F320E320D322A
:106120000C320B32132E62EF30F003C003F004C0C8
:1061300004F005C005F006C006F007C007F008C06F
:1061400008F009C009F00AC00AF012000550061054
:10615000D8B4ADEF30F0AFEF30F0B8EF30F005501D
:106160000610D8A4B6EF30F0B8EF30F0BDEF30F045
:1061700003503BEC35F00AEF31F020EE09F005500A
:10618000D9260650DA22DE50DE10D8B4CAEF30F03D
:10619000CCEF30F0E7EF30F020EE09F00550D926D3
:1061A0000650DA2210EE03F00550E1260650E222F6
:1061B000DE50E65CE650800A0B6EDE50800A0B581B
:1061C000D8B0E5EF30F0E7EF30F00AEF31F020EE35
:1061D00003F00550D9260650DA22DECF07F0DDCFD6
:1061E00008F005C0D9FF06C0DAFFDECF09F0DDCF29
:1061F0000AF007500924D96E08500A20DA6E03C04D
:10620000DFFF20EE03F00550D9260650DA22DE2A01
:10621000000EDD221200000E186E330E176E20EEF7
:106220001FF000EE19F0050EDBCFEBFFE806FCE2F5
:1062300058EC34F0000E186E320E176E20EE1FF080
:1062400000EE19F0050EDBCFEBFFE806FCE258ECA0
:1062500034F0000E186E280E176E20EE1FF000EEC0
:1062600019F0050EDBCFEBFFE806FCE258EC34F04A
:10627000000E186E0F0E176E20EE1FF000EE19F0D4
:10628000050EDBCFEBFFE806FCE258EC34F0000E25
:10629000186E010E176E20EE1FF000EE19F0050EBD
:1062A000DBCFEBFFE806FCE258EC34F0100E036E97
:1062B000270E046E000E056E000E066E20EE22F014
:1062C00002D86DEF31F00500FA6EDE50FD6EDE5043
:1062D000FE6EDE50FF6EFA50120012005AA073EFED
:1062E00031F075EF31F07FEF31F015C00CF016C0D2
:1062F0000DF013C00EF014C00FF0DEEC33F018BE3A
:1063000084EF31F086EF31F08CEF31F017C01CF0E4
:1063100018C01DF090EF31F0000E1D6E000E1C6EC7
:10632000000E1B6E000E1A6EA2EF31F0000E046E0E
:10633000200E036E13C005F014C006F0A6EC30F07A
:106340001A4A1B2A1C501A5C1B50800A196E1D50D9
:10635000800A1958D8A0AFEF31F0B1EF31F096EFC5
:1063600031F05AB0B6EF31F0B8EF31F0C2EF31F0A2
:1063700015C00CF016C00DF013C00EF014C00FF0D5
:10638000DEEC33F015C003F016C004F074EC34F00A
:106390001C500324136E1D500420146E1200000EB6
:1063A000186E010E176E20EE1FF000EE19F0050EAC
:1063B000DBCFEBFFE806FCE258EC34F0880E036E0E
:1063C000130E046E000E056E000E066E20EE22F017
:1063D00002D8F5EF31F00500FA6EDE50FD6EDE50AA
:1063E000FE6EDE50FF6EFA501200000E186E020EA6
:1063F000176E20EE1FF000EE19F0050EDBCFEBFF5D
:10640000E806FCE258EC34F0100E036E270E046E22
:10641000000E056E000E066E20EE22F002D81BEF75
:1064200032F00500FA6EDE50FD6EDE50FE6EDE507C
:10643000FF6EFA50120012004CEF32F0CA0E036EDB
:10644000000E046E17C0F6FF18C0F7FF000EF86EBE
:106450000E0EF76403D00800F55005D0F6CFE9FF23
:10646000F7CFEAFFEF501F6E1F50056E066A3CEC37
:106470002DF0CA0E0B6E000E0C6E20EE19F000EE21
:106480000DF0050EDBCFEBFFE806FCE2040E136E09
:1064900066EC32F0174A182A17C0F6FF18C0F7FF4B
:1064A000000EF86E0E0EF76403D00800F55005D00C
:1064B000F6CFE9FFF7CFEAFFEF500009D8A463EF6A
:1064C00032F065EF32F01EEF32F01200000E166E61
:1064D0009CEF32F002D884EF32F00500FA6E0D50D6
:1064E000FD6E0E50FE6E0F50FF6EFA501650020DEC
:1064F000F3CF14F0F4CF15F014500B24D96E1550CF
:106500000C20DA6EDF501200E80E036E030E046EEC
:10651000000E056E000E066E20EE10F002D89BEF06
:1065200032F00500FA6EDE50FD6EDE50FE6EDE507B
:10653000FF6EFA501200162A1350165CD8A0A3EF73
:1065400032F0A5EF32F06AEF32F01200000E876EE3
:10655000000E866E000E836E000E846E000E856E39
:10656000070E8C6E8868F00E896E1F0E8A6E8B681F
:106570000F01266921691969070E2E6F1169000E36
:10658000256F000E2D6F000E186F000E106F000E9D
:10659000206F000E2C6F000E0F6F000E176F000E95
:1065A0001F6F000E246F0E6916691E692369070E9E
:1065B0002B6F0D6915691D6922690F0E2A6F120074
:1065C00054C058F055C059F0000E0001BD6F000EC8
:1065D000BC6FFEEF32F052C03EF053C03FF0580E99
:1065E000406E000E416E56C042F057C043F003ECBF
:1065F00028F03E500001BC273F50BD2358C0F6FF95
:1066000059C0F7FF000EF86E0800F5500009D8A435
:106610000CEF33F00EEF33F0EBEF32F0BCC052F082
:10662000BDC053F01200000E6A6E000E6B6E000EBD
:106630006C6E000E6D6E000E686E000E696E000EC0
:10664000666E000E0F015F6F000E5D6F000E5E6FD5
:10665000000E596F000E5A6F000E5B6F000E656ED4
:10666000000E586F000E566F3F0E576FC40E606ECF
:10667000000E5C6F0E01CB91C381780E036E6A0E23
:10668000046E000E056E2AEC35F01200640E000157
:10669000686F000E696F60C06AF061C06BF0000E39
:1066A0006E6F000E6D6F000E746F000E736F6A0ECA
:1066B000526E000E536E62C054F063C055F0680E07
:1066C000566E000E576EE0EC32F000016D51602501
:1066D000D96E6E516121DA6E000EDF6E1200010E6E
:1066E000096E200E03180410D8B479EF33F07BEF55
:1066F00033F094EF33F0F70E056EFF0E066E03C015
:1067000007F004C008F0055007260650082208507C
:1067100009E1050E075CD8A090EF33F092EF33F05B
:1067200094EF33F0000E096E09C003F0046A120002
:106730006E0EF66E6A0EF76E000EF86E00EEE1F069
:1067400010EE04F00900F5CFEEFFE550E150FAE15C
:1067500001EEBCF0200EEE6AE806FDE100EEA6F0C8
:106760003B0EEE6AE806FDE15B6A5A6A5C905C9259
:1067700000015BEF1CF0000E301A000E311A000E03
:10678000321A800E331A2CC003F02DC004F02EC034
:1067900005F02FC006F030C007F031C008F032C05D
:1067A00009F033C00AF0C1EC21F003C02CF004C0A2
:1067B0002DF005C02EF006C02FF01200000E126E54
:1067C000000E116EEFEF33F010C003F0046A0EC03C
:1067D00005F00FC006F0A6EC30F0114A122A115055
:1067E0000C24D96E12500D20DA6EDF50106E10504E
:1067F000D8A4FDEF33F0FFEF33F0E4EF33F01200F5
:10680000000E076E000E086E000E096E000E0A6E76
:1068100010EF34F0010E0726000E082209220A228A
:106820000350075C045008580550095806500A5890
:10683000D8A01DEF34F01FEF34F00AEF34F012004F
:10684000D00E056EFF0E066E03C007F004C008F000
:10685000055007260650082208500AE10A0E075C78
:10686000D8A035EF34F038EF34F0010E39EF34F0C2
:10687000000E036E046A1200035004100510061087
:10688000D8B445EF34F047EF34F04FEF34F0000E5A
:10689000031A000E041A000E051A800E061A03C011
:1068A00003F004C004F005C005F006C006F01200B5
:1068B000D20E036E000E046E17C005F018C006F06D
:1068C000C1EC2DF0D20E0B6E000E0C6E20EE19F006
:1068D00000EE0DF0050EDBCFEBFFE806FCE2040E48
:1068E000136E66EC32F0120003C005F004C006F02F
:1068F0007CEF34F0034A042A03C0D9FF04C0DAFF56
:10690000DF50D8A486EF34F088EF34F07AEF34F01B
:106910000550035C036E06500458046E12000E010D
:10692000CB910001E551E611E711D8B49AEF34F0AC
:106930009CEF34F0A9EF34F002D8A9EF34F0050051
:10694000FA6EE551FD6EE651FE6EE751FF6EFA50AC
:1069500012001200A6C007F0A7C008F0A8C009F0F6
:10696000A9C00AF003C007F004C008F005C009F090
:1069700006C00AF00A9E07C003F008C004F009C070
:1069800005F00AC006F0120003500502F3CF07F02D
