:0400000080EF00F09D
:100008005682FACF03F0FBCF04F00E01C2AB0FEF1C
:1000180000F011EF00F01FEF00F0CAAB16EF00F090
:1000280018EF00F01FEF00F04FEC1AF0010E00017E
:10003800B36F7AEF00F0C2A924EF00F026EF00F0CA
:1000480034EF00F0CAA92BEF00F02DEF00F034EFE9
:1000580000F07AEC19F0010E0001B26F7AEF00F0AF
:10006800F2AC39EF00F03BEF00F07AEF00F0C3A1FB
:1000780040EF00F042EF00F050EF00F0CBA147EF67
:1000880000F049EF00F050EF00F066EC1BF0010EB5
:100098000001B16F7AEF00F0C6A355EF00F057EFFB
:1000A80000F065EF00F0CEA35CEF00F05EEF00F02B
:1000B80065EF00F0DFEC1AF0010E0001B06F7AEF87
:1000C80000F0C6A16AEF00F06CEF00F07AEF00F0E4
:1000D800CEA171EF00F073EF00F07AEF00F00EECB4
:1000E8001AF0010E0001AF6F7AEF00F004C0FBFFB9
:0C00F80003C0FAFF569211005CEF18F0F4
:100F00000000400100543A253364256343202052F9
:100F1000483A2533642563202020202020202020EB
:100F2000202020202020202020202020202020548D
:100F30004C3A25336425634352484C3A25336425A3
:030F40006300004B
:100F44002F50800B386E2F502F243A6E2EAEADEFFB
:100F540007F0AFEF07F0B0EF07F03A803A50D8B49B
:100F6400B6EF07F0B8EF07F0CDEF07F03A28D8A4B2
:100F7400BEEF07F0C0EF07F0C8EF07F0000E2C6ECD
:100F8400000E2D6E000E2E6E000E2F6E2E8E000E95
:100F94002F6ED5EF07F0000E2C6E000E2D6E000E96
:100FA4002E6E000E2F6E3350800B396E3850391868
:100FB400D8B4DFEF07F0E1EF07F0E2EF07F0388C89
:100FC40033503324396E32AEEAEF07F0ECEF07F01A
:100FD400EDEF07F039803950D8B4F3EF07F0F5EFAF
:100FE40007F00AEF08F03928D8A4FBEF07F0FDEF6B
:100FF40007F005EF08F0000E306E000E316E000EA3
:10100400326E000E336E328E000E336E12EF08F025
:10101400000E306E000E316E000E326E000E336E16
:101024003A50395CD8B019EF08F01BEF08F042EFE2
:1010340008F038AC20EF08F022EF08F024EF08F0B5
:10104400800E381A3AC03BF039C03AF03BC039F050
:101054002CC03BF030C02CF03BC030F02DC03BF036
:1010640031C02DF03BC031F02EC03BF032C02EF029
:101074003BC032F02FC03BF033C02FF03BC033F005
:10108400000E3B6E3A5039C034F0356A345E000EBF
:10109400355A35BE57EF08F0355009E11A0E345C65
:1010A400D8A057EF08F059EF08F090EF08F02C5053
:1010B4002D102E102F10D8A462EF08F065EF08F061
:1010C400010E66EF08F0000E3B6E000E2C6E000E53
:1010D4002D6E000E2E6E000E2F6E39C03AF099EF71
:1010E40008F03BA078EF08F07AEF08F080EF08F002
:1010F400D8903B3001093B6E82EF08F0D8903B3228
:101104002CA087EF08F089EF08F08AEF08F03B8EF7
:101114002F342F322E322D322C323A2A39503A5C67
:10112400D8A097EF08F099EF08F073EF08F038BCF7
:101134009EEF08F0A0EF08F0E0EF08F03A50D8A4D2
:10114400A6EF08F0A8EF08F0B2EF08F0000E2C6E3E
:10115400000E2D6E000E2E6E000E2F6E01EF0AF0A3
:1011640030502C2631502D2232502E2233502F2233
:101174002FA0BFEF08F0C1EF08F06DEF09F03BA01E
:10118400C6EF08F0C8EF08F0CEEF08F0D8903B3077
:1011940001093B6ED0EF08F0D8903B322CA0D5EF7C
:1011A40008F0D7EF08F0D8EF08F03B8E2F342F3239
:1011B4002E322D322C323A2A6DEF09F030502C5C4D
:1011C40031502D5832502E582F50800A346E3350DF
:1011D400800A3458D8B0F1EF08F0F3EF08F01EEFAE
:1011E40009F02C50305C346E2D503158356E2E5031
:1011F4003258366E2F503358376EFF0E34242C6E0F
:10120400FF0E35202D6EFF0E36202E6EFF0E37207A
:101214002F6E800E381A3B6C3B50D8A414EF09F0A3
:1012240016EF09F026EF09F0010E2C26000E2D22F0
:101234002E222F2226EF09F030502C5E31502D5AE9
:1012440032502E5A33502F5A2C502D102E102F104E
:10125400D8A42FEF09F031EF09F066EF09F03B5005
:10126400D8A437EF09F039EF09F066EF09F0000E62
:101274002C6E000E2D6E000E2E6E000E2F6E01EFE2
:101284000AF0D8902C362D362E362F363BAE4DEF45
:1012940009F04FEF09F050EF09F02C803BA055EF17
:1012A40009F057EF09F05BEF09F0D8803B365DEFAA
:1012B40009F0D8903B363A50D8B463EF09F065EFA3
:1012C40009F066EF09F03A062EAE6BEF09F06DEF08
:1012D40009F043EF09F0000E396E3BAE74EF09F0EC
:1012E40076EF09F08EEF09F03BC034F07F0E341630
:1012F400D8B47FEF09F081EF09F085EF09F0010E12
:10130400396E8EEF09F02CA08AEF09F08CEF09F00A
:101314008EEF09F081EF09F03950D8B494EF09F059
:1013240096EF09F0C1EF09F0010E2C26000E2D22D4
:101334002E222F222FA0A1EF09F0A3EF09F0C1EF75
:1013440009F02CC034F02DC035F02EC036F02FC07B
:1013540037F03734373236323532343234C02CF049
:1013640035C02DF036C02EF037C02FF03A28D8B44F
:10137400BEEF09F0C0EF09F0C1EF09F03A2A3A28AC
:10138400D8B4C7EF09F0C9EF09F0D1EF09F03A502A
:10139400D8A4CFEF09F0D1EF09F0E3EF09F0000E84
:1013A4002C6E000E2D6E000E2E6E000E2F6E3A5017
:1013B400D8A4DFEF09F0E1EF09F0E3EF09F0000E44
:1013C400386E3AA0E8EF09F0EAEF09F0EDEF09F022
:1013D4002E8EEEEF09F02E9ED8903A302F6E38AE56
:1013E400F6EF09F0F8EF09F0F9EF09F02F8E2CC0B1
:1013F4002CF02DC02DF02EC02EF02FC02FF0120097
:101404001650800B1F6E16501624256E15AE0DEF68
:101414000AF00FEF0AF010EF0AF025802550D8B437
:1014240016EF0AF018EF0AF02BEF0AF02528D8A4DB
:101434001EEF0AF020EF0AF028EF0AF0000E136EF8
:10144400000E146E000E156E000E166E158E33EF20
:101454000AF0000E136E000E146E000E156E000ED0
:10146400166E1A50800B1F1A1A501A24246E19AEC5
:101474003EEF0AF040EF0AF041EF0AF024802450D6
:10148400D8B447EF0AF049EF0AF05CEF0AF02428D9
:10149400D8A44FEF0AF051EF0AF059EF0AF0000E0A
:1014A400176E000E186E000E196E000E1A6E198E4D
:1014B40064EF0AF0000E176E000E186E000E196E1F
:1014C400000E1A6E2450D8B46AEF0AF06CEF0AF0DA
:1014D40074EF0AF02550D8A472EF0AF074EF0AF002
:1014E4007EEF0AF0000E136E000E146E000E156EE1
:1014F400000E166E16EF0CF019501302F3CF2AF0FB
:10150400F4CF2BF02A50206E216A226A236A2B50D2
:10151400266E276A286A296A18501402F3CF2AF023
:10152400F4CF2BF02A502026000E2122222223223F
:101534002B502626000E2722282229221750150276
:10154400F3CF2AF0F4CF2BF02A502026000E2122CC
:10155400222223222B502626000E2722282229224B
:1015640022C023F021C022F020C021F0206A1750AD
:101574001402F3CF2AF0F4CF2BF02A5020262B505C
:101584002122000E2222000E232218501302F3CF30
:101594002AF0F4CF2BF02A5020262B502122000EC3
:1015A4002222000E232222C023F021C022F020C0D8
:1015B40021F0206A17501302F3CF2AF0F4CF2BF056
:1015C4002A5020262B502122000E2222000E2322F4
:1015D40019501402F3CF2AF0F4CF2BF02A50262608
:1015E4002B502722000E2822000E29221850150203
:1015F400F3CF2AF0F4CF2BF02A5026262B502722A3
:10160400000E2822000E292219501502F3CF2AF0C9
:10161400F4CF2BF02A501B6E2B501C6E1D6A1E6AD1
:101624001DC01EF01CC01DF01BC01CF01B6A1B500B
:1016340026261C5027221D5028221E50292220C055
:101644001BF021C01CF022C01DF023C01EF0190E97
:1016540031EF0BF0D8901E321D321C321B32E82EB3
:101664002CEF0BF01B5026261C5027221D5028223D
:101674001E50292222C023F021C022F020C021F0D4
:10168400206A245025C01BF01C6A1B26000E1C2255
:10169400820E1B242A6EFF0E1C202B6E67EF0BF0AC
:1016A400D890263627362836293623AE5CEF0BF041
:1016B4005EEF0BF05FEF0BF02680D89020362136DA
:1016C400223623362A06D8A02B0628AE6CEF0BF060
:1016D4006EEF0BF052EF0BF0000E246E23AE75EF9D
:1016E4000BF077EF0BF09BEF0BF0FF0E20141B6E4B
:1016F400FF0E21141C6EFF0E22141D6E7F0E231488
:101704001E6E1B501C101D101E10D8B48CEF0BF055
:101714008EEF0BF092EF0BF0010E246E9BEF0BF0AB
:1017240026A097EF0BF099EF0BF09BEF0BF08EEFE9
:101734000BF02450D8B4A1EF0BF0A3EF0BF0C7EFDC
:101744000BF0010E2626000E27222822292229A08A
:10175400AEEF0BF0B0EF0BF0C7EF0BF026C01BF0B1
:1017640027C01CF028C01DF029C01EF01E341E32F4
:101774001D321C321B321BC026F01CC027F01DC0BA
:1017840028F01EC029F02A4A2B2A2BBED2EF0BF0D8
:101794002B5008E12A28D8A0D2EF0BF0D4EF0BF09D
:1017A400DEEF0BF0000E266E000E276E800E286E04
:1017B4007F0E296E0CEF0CF02BBEEBEF0BF02B50D1
:1017C40006E12A04D8B0E9EF0BF0EBEF0BF0F7EFEA
:1017D4000BF0000E266E000E276E000E286E000E13
:1017E400296E000E1F6E0CEF0CF02AC025F0FF0EC0
:1017F4002616FF0E27167F0E2816000E291625A082
:1018040006EF0CF008EF0CF009EF0CF0288ED890DE
:101814002530296E1F50291226C013F027C014F05A
:1018240028C015F029C016F01200C0EC1BF0F28E8F
:10183400F28C900E0001976F330E986F000E996F23
:10184400A60E946F370E956F000E966F20EE94F0EF
:1018540000EE21F0050EDBCFEBFFE806FCE258ECCE
:1018640017F01B0E59EC1CF00001B205D8A43DEF93
:101874000CF03FEF0CF0AEEF0CF0000EB26F8FB037
:1018840046EF0CF048EF0CF05EEF0CF0FB0EF02787
:10189400FF0EF123F1BF5AEF0CF0F15107E1140EE2
:1018A400F05DD8B058EF0CF05AEF0CF05EEF0CF08E
:1018B400000EF16F780EF06F8FB263EF0CF065EFEE
:1018C4000CF07BEF0CF0050EF027000EF123F1BFB6
:1018D40075EF0CF0F15109E1790EF05DD8A075EFC8
:1018E4000CF077EF0CF07BEF0CF0000EF16F140EA0
:1018F400F06F8FB480EF0CF082EF0CF091EF0CF0EE
:10190400FB0EEE27FF0EEF23EFBF8DEF0CF08BEFF6
:101914000CF091EF0CF0000EEF6F640EEE6F8FB6CB
:1019240096EF0CF098EF0CF0AEEF0CF0050EEE27EE
:10193400000EEF23EFBFA8EF0CF0EF5109E1650EA5
:10194400EE5DD8A0A8EF0CF0AAEF0CF0AEEF0CF00F
:10195400000EEF6F000EEE6FB305D8A4B4EF0CF0D9
:10196400B6EF0CF0B8EF0CF0000EB36FAF05D8A4CF
:10197400BEEF0CF0C0EF0CF00CEF0DF0000EAF6FEB
:10198400010EF66F200E6F6F010E706F050E716FF2
:101994000F0E726FACC073F0ADC074F0000E766FB2
:1019A400DF0E756FAAC077F0ABC078F0000E7A6FC7
:1019B400250E796FF0C07BF0F1C07CF0000E7E6FD5
:1019C400DF0E7D6FEEC07FF0EFC080F0000E826FFF
:1019D400250E816F28EC19F0200E196E010E1A6E77
:1019E40020EE94F000EE1BF0050EDBCFEBFFE806D3
:1019F400FCE2F7EC18F0000E1A6E020E196E20EEDF
:101A040094F000EE1BF0050EDBCFEBFFE806FCE2E2
:101A1400A8EC1AF00001B005D8A413EF0DF015EFEF
:101A24000DF017EF0DF0000EB06FB105D8A41DEF47
:101A34000DF01FEF0DF060EF0DF0000EB16FAE5121
:101A4400D8A427EF0DF029EF0DF040EF0DF010ECC6
:101A54001CF005C0CEF006C0CFF0010E0001AE6F41
:101A6400609EE80E056E030E066E000E076E000EF5
:101A7400086EC8EC19F0140E59EC1CF00001AE51BC
:101A8400D8B447EF0DF049EF0DF060EF0DF010EC16
:101A94001CF005C0CCF006C0CDF0000E0001AE6F06
:101AA400609EE80E056E030E066E000E076E000EB5
:101AB400086EC8EC19F01B0E59EC1CF00001F60579
:101AC400D8A467EF0DF069EF0DF036EF0CF0000EBF
:101AD400F66F000E176E400E186E4E0E196E430E02
:101AE4001A6ECEC005F0CFC006F0076A086A000E71
:101AF4001FEC11F005C013F006C014F007C015F078
:101B040008C016F002EC0AF013C090F014C091F073
:101B140015C092F016C093F0000E306E800E316E38
:101B2400720E326EC20E336E070E176E200E186ED2
:101B3400800E196E3A0E1A6E90C013F091C014F014
:101B440092C015F093C016F002EC0AF013C02CF00A
:101B540014C02DF015C02EF016C02FF0A2EC07F023
:101B64002CC03CF02DC03DF02EC03EF02FC03FF005
:101B74002EEC15F03CC0ACF03DC0ADF0000E176E7D
:101B8400000E186EFA0E196E420E1A6ECCC005F0D5
:101B9400CDC006F0076A086A000E1FEC11F005C0FC
:101BA40013F006C014F007C015F008C016F002ECDC
:101BB4000AF013C090F014C091F015C092F016C052
:101BC40093F0000E306E000E316E480E326EC10E70
:101BD400336E070E176E200E186E800E196E3A0EB5
:101BE4001A6E90C013F091C014F092C015F093C017
:101BF40016F002EC0AF013C02CF014C02DF015C03E
:101C04002EF016C02FF0A2EC07F02CC03CF02DC033
:101C14003DF02EC03EF02FC03FF02EEC15F03CC03E
:101C2400AAF03DC0ABF036EF0CF080EF00F046C0F8
:101C3400D9FF47C0DAFFDECFF6FFDDCFF7FF000E96
:101C4400F86E0800F550250AD8A42BEF0EF02DEFFE
:101C54000EF091EF0FF046C0D9FF47C0DAFFDE2A3D
:101C6400000EDD22000E516E000E506E50C052F078
:101C740051C053F00001A869A96946C0D9FF47C003
:101C8400DAFFDECFF6FFDDCFF7FF000EF86E0800B7
:101C9400F5502A0AD8A451EF0EF053EF0EF07CEF62
:101CA4000EF046C0D9FF47C0DAFFDE2A000EDD225F
:101CB40048C0D9FF49C0DAFFDFCF4AF0020EDE2662
:101CC400DFCF4BF0000EDD224AC0D9FF4BC0DAFF54
:101CD400DECF50F0DDCF51F051BE75EF0EF073EF53
:101CE4000EF0B4EF0EF05280506C511ED8B0512A51
:101CF400B4EF0EF046C0D9FF47C0DAFFDECF0CF0D8
:101D0400DDCF0DF0BDEC12F00CC050F00DC051F061
:101D140093EF0EF046C0D9FF47C0DAFFDE2A000E6B
:101D2400DD22D00E4A6EFF0E4B6E46C0D9FF47C06F
:101D3400DAFFDECFF6FFDDCFF7FF000EF86E080006
:101D4400F5504C6E4D6A4A504C264B504D224D5026
:101D540009E10A0E4C5CD8A0B2EF0EF0B4EF0EF01D
:101D64008CEF0EF046C0D9FF47C0DAFFDECFF6FF96
:101D7400DDCFF7FF000EF86E0800F550630AD8A413
:101D8400C6EF0EF0C8EF0EF0F0EF0EF046C0D9FF2C
:101D940047C0DAFFDE2A000EDD2248C0D9FF49C061
:101DA400DAFFDFCF4AF0020EDE26DFCF4BF0000E63
:101DB400DD224AC0D9FF4BC0DAFFDF500001686F53
:101DC40044C00EF045C00FF068C010F025EC16F0CA
:101DD4000EC044F00FC045F0AEEF0FF046C0D9FF7F
:101DE40047C0DAFFDECFF6FFDDCFF7FF000EF86E57
:101DF4000800F550640AD8B402EF0FF004EF0FF0B6
:101E040018EF0FF046C0D9FF47C0DAFFDECFF6FF68
:101E1400DDCFF7FF000EF86E0800F550690AD8A46C
:101E240016EF0FF018EF0FF059EF0FF046C0D9FF7F
:101E340047C0DAFFDE2A000EDD2248C0D9FF49C0C0
:101E4400DAFFDFCF4AF0020EDE26DFCF4BF0000EC2
:101E5400DD224AC0D9FF4BC0DAFFDECF60F0DDCF10
:101E640061F00001000E61BFFF0E626F636F646F6B
:101E7400656F666F676F44C020F045C021F060C095
:101E840022F061C023F062C024F063C025F064C076
:101E940026F065C027F066C028F067C029F0AFECD3
:101EA4000FF020C044F021C045F0AEEF0FF046C063
:101EB400D9FF47C0DAFFDECFF6FFDDCFF7FF000E14
:101EC400F86E0800F550250AD8A46BEF0FF06DEFFB
:101ED4000FF084EF0FF046C0D9FF47C0DAFFDE2AC7
:101EE400000EDD22000E066E250E056E44C007F0BE
:101EF40045C008F08FEC16F0000E456E010E446EDE
:101F0400AEEF0FF046C0D9FF47C0DAFFDE2A000E5D
:101F1400DD22000E456E000E446EAEEF0FF046C09B
:101F2400D9FF47C0DAFFDECFF6FFDDCFF7FF000EA3
:101F3400F86E0800F550056E066A44C007F045C007
:101F440008F08FEC16F046C0D9FF47C0DAFFDE2A4E
:101F5400000EDD227EEF0FF0120022C03AF023C003
:101F64003BF024C03CF025C03DF026C03EF027C025
:101F74003FF028C040F029C041F041BEC4EF0FF04B
:101F8400C7EF0FF0010EC8EF0FF0000E386E396A7C
:101F940038503910D8B4D1EF0FF0D3EF0FF0E3EF8E
:101FA4000FF0411E401E3F1E3E1E3D1E3C1E3B1EAA
:101FB4003A6C000E3B223C223D223E223F2240222C
:101FC40041220001A9BFE9EF0FF0EBEF0FF0ECEFB6
:101FD4000FF05292A9BFF9EF0FF0A95106E1A8053D
:101FE400D8B0F7EF0FF0F9EF0FF0FFEF0FF0000E9E
:101FF400356E010E346E03EF10F0A8C034F0A9C0A2
:1020040035F050C036F051C037F038503910D8A4EC
:102014000EEF10F010EF10F017EF10F052A415EFC0
:1020240010F017EF10F01AEF10F03606D8A03706AC
:10203400000E436E1F0E426E000E01011F6F9FEFD4
:1020440010F04206D8A04306000E4224D96E010EB9
:102054004320DA6E3AC005F03BC006F03CC007F0FE
:102064003DC008F03EC009F03FC00AF040C00BF08C
:1020740041C00CF00A0E0D6E000E0E6E000E0F6EB7
:10208400000E106E000E116E000E126E000E136E16
:10209400000E146E72EC13F005C02AF006C02BF08B
:1020A40007C02CF008C02DF009C02EF00AC02FF094
:1020B4000BC030F00CC031F02AC017F02CC018F05F
:1020C4002FEC1AF01750300FDF6E3406D8A0350607
:1020D4003606D8A037063AC005F03BC006F03CC02F
:1020E40007F03DC008F03EC009F03FC00AF040C010
:1020F4000BF041C00CF00A0E0D6E000E0E6E000EB9
:102104000F6E000E106E000E116E000E126E000E99
:10211400136E000E146EF9EC11F005C03AF006C00F
:102124003BF007C03CF008C03DF009C03EF00AC0D7
:102134003FF00BC040F00CC041F043BEAAEF10F0DA
:10214400435008E14204D8A0AAEF10F0ACEF10F01D
:10215400DCEF10F03A503B103C103D103E103F10A5
:1021640040104110D8A4B9EF10F0BBEF10F023EFEA
:1021740010F035BEC8EF10F0355006E13404D8B085
:10218400C6EF10F0C8EF10F023EF10F037BED3EF16
:1021940010F0375008E13604D8A0D3EF10F0D5EF93
:1021A40010F0DCEF10F052B2DAEF10F0DCEF10F0C8
:1021B40023EF10F038503910D8A4E3EF10F0E5EF16
:1021C40010F0ECEF10F052A4EAEF10F0ECEF10F086
:1021D4000AEF11F04206D8A0430638503910D8A4AB
:1021E400F6EF10F0F8EF10F0FEEF10F0000E336E83
:1021F4002B0E326E02EF11F0000E336E2D0E326E86
:10220400000E4224D96E010E4320DA6E32C0DFFF85
:1022140020C015F021C016F0000E4224176E010EE6
:102224004320186E36C019F037C01AF0BBEC17F013
:1022340015C020F016C021F012000D6E0D50D8B458
:1022440026EF11F028EF11F04AEF11F008BE2FEF3E
:1022540011F02DEF11F04AEF11F005C009F006C09E
:102264000AF007C00BF008C00CF0091E0A1E0B1E72
:102274000C1E092A000E0A220B220C2209C00FF0A0
:102284000AC010F00BC011F00CC012F052EF11F0A4
:1022940005C00FF006C010F007C011F008C012F01E
:1022A4000550061007100810D8A45BEF11F05DEF7D
:1022B40011F067EF11F0000E056E000E066E000EB1
:1022C400076E000E086EF8EF11F0960E0E6E71EFA9
:1022D40011F00E2AD8901232113210320F32000E41
:1022E4000F14096E000E10140A6E000E11140B6EFA
:1022F400FE0E12140C6E09500A100B100C10D8A408
:1023040086EF11F088EF11F06BEF11F096EF11F0FA
:102314000E2A010E0F26000E102211221222D8902E
:102324001232113210320F32000E0F14096E000EE9
:1023340010140A6E000E11140B6EFF0E12140C6EA4
:1023440009500A100B100C10D8A4ABEF11F0ADEF2C
:1023540011F08AEF11F0B5EF11F00E06D8900F3698
:1023640010361136123611BEBAEF11F0BCEF11F06F
:10237400C4EF11F0020E0E60C2EF11F0C4EF11F0C1
:10238400AFEF11F00EB0C9EF11F0CBEF11F0CCEFBD
:1023940011F0119ED8900E320EC009F00A6A0B6A31
:1023A4000C6A09C00CF00B6A0A6A096A09500F1218
:1023B4000A5010120B5011120C5012120D50D8B4B6
:1023C400E6EF11F0E8EF11F0F0EF11F008BEEFEFD7
:1023D40011F0EDEF11F0F0EF11F0128E0FC005F0D7
:1023E40010C006F011C007F012C008F01200000E71
:1023F400166E14BE02EF12F000EF12F014EF12F09A
:10240400141E131E121E111E101E0F1E0E1E0D6C06
:10241400000E0E220F221022112212221322142245
:10242400010E166E0CBE1BEF12F019EF12F02DEF19
:1024340012F00C1E0B1E0A1E091E081E071E061E85
:10244400056C000E06220722082209220A220B220A
:102454000C22010E161A20EE17F0070EDE6AE806AB
:10246400FDE20D500E100F10101011101210131069
:102474001410D8B440EF12F042EF12F094EF12F0BF
:10248400010E156E50EF12F0D8900D360E360F3641
:1024940010361136123613361436152A14AE55EF8B
:1024A40012F057EF12F046EF12F0D89017361836A4
:1024B40019361A361B361C361D361E360D50055C71
:1024C4000E5006580F50075810500858115009580C
:1024D40012500A5813500B5814500C58D8A075EFCA
:1024E40012F077EF12F088EF12F00D50055E0E50E7
:1024F400065A0F50075A1050085A1150095A1250D0
:102504000A5A13500B5A14500C5A1780D89014328C
:1025140013321232113210320F320E320D32152EA6
:1025240057EF12F01650D8B49AEF12F09CEF12F055
:10253400ACEF12F01E1E1D1E1C1E1B1E1A1E191EA1
:10254400181E176C000E182219221A221B221C2294
:102554001D221E2217C005F018C006F019C007F08E
:102564001AC008F01BC009F01CC00AF01DC00BF013
:102574001EC00CF01200000E156E000E146E000E3C
:10258400136E000E126EC9EF12F00C4A0D2A0CC025
:10259400F6FF0DC0F7FF000EF86E0800F550200A94
:1025A400D8B4D7EF12F0D9EF12F0C7EF12F0F70E4C
:1025B4000E6EFF0E0F6E0CC0F6FF0DC0F7FF000E7F
:1025C400F86E0800F550106E116A0E5010260F5068
:1025D4001122115009E1050E105CD8A0F4EF12F09D
:1025E400F6EF12F0C7EF12F000EF13F0000E136EC7
:1025F400010E126E0C4A0D2A39EF13F00CC0F6FFCF
:102604000DC0F7FF000EF86E0800F5500E6E0F6A4D
:102614000F50000AD8B411EF13F039EF13F00E5035
:102624002B0AD8B4FCEF12F0060AD8B4F8EF12F073
:1026340039EF13F014C005F015C006F0000E086E53
:102644000A0E076EADEC1BF00CC0F6FF0DC0F7FFD1
:10265400000EF86E0800F550055E000E065A300EA6
:102664000524146E000E0620156EFCEF12F0D00E39
:102674000E6EFF0E0F6E0CC0F6FF0DC0F7FF000EBE
:10268400F86E0800F550106E116A0E5010260F50A7
:102694001122115009E10A0E105CD8A054EF13F076
:1026A40056EF13F01CEF13F012501310D8A45DEF83
:1026B40013F05FEF13F06DEF13F014C00EF015C0BC
:1026C4000FF00E1E0F1E0E4A0F2A0EC00CF00FC084
:1026D4000DF071EF13F014C00CF015C00DF01200E2
:1026E400000E166E0CBE7BEF13F079EF13F08DEF36
:1026F40013F00C1E0B1E0A1E091E081E071E061EC2
:10270400056C000E06220722082209220A220B2247
:102714000C22010E166E14BE94EF13F092EF13F018
:10272400A4EF13F0141E131E121E111E101E0F1EF2
:102734000E1E0D6C000E0E220F22102211221222E8
:10274400132214220D500E100F101010111012101D
:1027540013101410D8B4B1EF13F0B3EF13F0FBEF70
:1027640013F0010E156EC1EF13F0D8900D360E362E
:102774000F3610361136123613361436152A14AEA7
:10278400C6EF13F0C8EF13F0B7EF13F00D50055C6C
:102794000E5006580F500758105008581150095839
:1027A40012500A5813500B5814500C58D8A0DDEF8F
:1027B40013F0DFEF13F0EFEF13F00D50055E0E5042
:1027C400065A0F50075A1050085A1150095A1250FD
:1027D4000A5A13500B5A14500C5AD890143213320C
:1027E4001232113210320F320E320D32152EC8EF62
:1027F40013F01650D8B401EF14F003EF14F013EFF4
:1028040014F00C1E0B1E0A1E091E081E071E061EAF
:10281400056C000E06220722082209220A220B2236
:102824000C2205C005F006C006F007C007F008C07A
:1028340008F009C009F00AC00AF00BC00BF00CC084
:102844000CF01200FD0E096EFF0E0A6EF00E071456
:102854000B6E000E08140C6E0D0E0B12000E0C12F3
:1028640009500B160A500C1605C0D9FF06C0DAFF32
:102874000BC0DEFF0CC0DDFFF90E096EFF0E0A6E01
:10288400F00E07140B6E000E08140C6E090E0B12DA
:10289400000E0C1209500B160A500C1620EE02F012
:1028A4000550D9260650DA220BC0DEFF0CC0DDFF2E
:1028B400FD0E096EFF0E0A6E07C00BF008C00CF087
:1028C4000B3A0C3AF00E0C160B500F0B0C12F00EC8
:1028D4000B16F00E0B16000E0C160D0E0B12000E3E
:1028E4000C1209500B160A500C1620EE04F0055079
:1028F400D9260650DA220BC0DEFF0CC0DDFFF90E2C
:10290400096EFF0E0A6E07C00BF008C00CF00B3AFC
:102914000C3AF00E0C160B500F0B0C12F00E0B169B
:10292400F00E0B16000E0C16090E0B12000E0C12F4
:1029340009500B160A500C1620EE06F00550D92645
:102944000650DA220BC0DEFF0CC0DDFF1200FC0EC5
:10295400096EFF0E0A6EF00E07140B6E000E0814BB
:102964000C6E0C0E0B12000E0C1209500B160A50B2
:102974000C1605C0D9FF06C0DAFF0BC0DEFF0CC081
:10298400DDFFF80E096EFF0E0A6EF00E07140B6ED3
:10299400000E08140C6E080E0B12000E0C120950D7
:1029A4000B160A500C1620EE02F00550D9260650DC
:1029B400DA220BC0DEFF0CC0DDFFFC0E096EFF0E39
:1029C4000A6E07C00BF008C00CF00B3A0C3AF00E7C
:1029D4000C160B500F0B0C12F00E0B16F00E0B1600
:1029E400000E0C160C0E0B12000E0C1209500B16D6
:1029F4000A500C1620EE04F00550D9260650DA22AF
:102A04000BC0DEFF0CC0DDFFF80E096EFF0E0A6E70
:102A140007C00BF008C00CF00B3A0C3AF00E0C1681
:102A24000B500F0B0C12F00E0B16F00E0B16000EC3
:102A34000C16080E0B12000E0C1209500B160A503D
:102A44000C1620EE06F00550D9260650DA220BC0EB
:102A5400DEFF0CC0DDFF12003E343F34456E4550AE
:102A6400D8A437EF15F039EF15F043EF15F0000E49
:102A74003C6E000E3D6E000E3E6E000E3F6EB0EFDB
:102A840015F03CC040F03DC041F03EC042F03FC0B4
:102A940043F0200E53EF15F0D890433242324132C6
:102AA4004032E82E4EEF15F04050446E3E8EFF0E3D
:102AB4003C16FF0E3D16FF0E3E16000E3F16960EF8
:102AC400455E45BE6AEF15F068EF15F080EF15F02E
:102AD4004550800A970FD8B072EF15F074EF15F0D7
:102AE40076EF15F039EF15F0D8903F323E323D3293
:102AF4003C32453E76EF15F098EF15F01F0E456415
:102B040086EF15F088EF15F090EF15F039EF15F01A
:102B1400D8903C363D363E363F3645064550D8A41F
:102B240096EF15F098EF15F08AEF15F04450D8B4ED
:102B34009EEF15F0A0EF15F0A8EF15F03F1E3E1E16
:102B44003D1E3C6C000E3D223E223F223CC03CF028
:102B54003DC03DF03EC03EF03FC03FF01200000ECD
:102B6400876E000E866E000E836E000E846E0F0E4E
:102B7400856E070E8C6EF80E886ED00E896E1F0E51
:102B84008A6E8B680F012669F00E216FCF0E196FC4
:102B9400070E2E6FEF0E116F000E256F000E2D6FB6
:102BA400000E186F000E106F000E206F000E2C6FB9
:102BB400000E0F6F000E176F000E1F6F000E246FB4
:102BC4000E6916691E692369070E2B6F0D69156955
:102BD4001D6922690F0E2A6F1A911A931A951A9772
:102BE4001B811B831B851B871C911C931C951C97A5
:102BF400D00E056E380E066E000E076E44EC1CF007
:102C0400CE0E056E380E066E000E076E3DEC1CF0FF
:102C1400CC0E056E380E066E000E076E36EC1CF0F8
:102C2400CA0E056E380E066E000E076E2FEC1CF0F1
:102C34000E01C2890D0EB76F0F0EF46F040EA46F50
:102C44000C0EB86F120050505110D8A42CEF16F08F
:102C54002EEF16F034EF16F050C014F051C015F0FA
:102C64003AEF16F0FF0E5024146EFF0E5120156E2D
:102C740052A03FEF16F041EF16F04AEF16F010C0E5
:102C840005F0066A0EC007F00FC008F08FEC16F0CE
:102C940015BE4FEF16F051EF16F053EF16F057EF45
:102CA40016F0000E156E000E146E000E136E000E5C
:102CB400126E69EF16F0000E066E200E056E0EC041
:102CC40007F00FC008F08FEC16F0124A132A1450C4
:102CD400125C1350800A116E1550800A1158D8A046
:102CE40076EF16F078EF16F05DEF16F052B07DEF48
:102CF40016F07FEF16F088EF16F010C005F0066AA4
:102D04000EC007F00FC008F08FEC16F0010E12246D
:102D14000E6E000E13200F6E120007500810D8B468
:102D240096EF16F098EF16F0A1EF16F00750081082
:102D3400D8A49FEF16F0A1EF16F0A6EF16F00550F9
:102D440061EC1CF0F3EF16F020EE09F00750D926E1
:102D54000850DA22DE50DE10D8B4B3EF16F0B5EF27
:102D640016F0D0EF16F020EE09F00750D9260850DF
:102D7400DA2210EE03F00750E1260850E222DE507A
:102D8400E65CE650800A0D6EDE50800A0D58D8B01D
:102D9400CEEF16F0D0EF16F0F3EF16F020EE03F0BE
:102DA4000750D9260850DA22DECF09F0DDCF0AF029
:102DB40007C0D9FF08C0DAFFDECF0BF0DDCF0CF07F
:102DC40009500B24D96E0A500C20DA6E05C0DFFFBF
:102DD40020EE03F00750D9260850DA22DE2A000E2E
:102DE400DD2212001A001B001D001E00200021001D
:102DF400230024002600270028002A002B002C0092
:102E04002D002E002F00300031003100320032003E
:102E14003300330033003300330033003300320017
:102E240032003100310030002F002E002D002C0024
:102E34002B002A002800270026002400230021005C
:102E440020001E001D001B001A00180016001500AB
:102E54001300120010000F000D000C000B000900FD
:102E64000800070006000500040003000200020039
:102E7400010001000000000000000000000000004C
:102E8400000001000100020002000300040005002C
:102E940006000700080009000B000C000D000F00DD
:102EA400100012001300150016001800000E1A6E10
:102EB400330E196E20EE21F000EE1BF0050EDBCF71
:102EC400EBFFE806FCE2A8EC1AF0000E1A6E320ED4
:102ED400196E20EE21F000EE1BF0050EDBCFEBFFA8
:102EE400E806FCE2A8EC1AF0000E1A6E280E196E21
:102EF40020EE21F000EE1BF0050EDBCFEBFFE80621
:102F0400FCE2A8EC1AF0000E1A6E0C0E196E20EEFC
:102F140021F000EE1BF0050EDBCFEBFFE806FCE230
:102F2400A8EC1AF0000E1A6E010E196E20EE21F0B4
:102F340000EE1BF0050EDBCFEBFFE806FCE2A8EC8D
:102F44001AF0100E056E270E066E000E076E000EA8
:102F5400086E20EE24F002D8BAEF17F00500FA6EDE
:102F6400DE50FD6EDE50FE6EDE50FF6EFA50120033
:102F7400120052A0C0EF17F0C2EF17F0CCEF17F019
:102F840017C00EF018C00FF015C010F016C011F0E5
:102F9400ECEC19F01ABED1EF17F0D3EF17F0D9EF1C
:102FA40017F019C01EF01AC01FF0DDEF17F0000E65
:102FB4001F6E000E1E6E000E1D6E000E1C6EEFEFD7
:102FC40017F0000E066E200E056E15C007F016C031
:102FD40008F08FEC16F01C4A1D2A1E501C5C1D5074
:102FE400800A1B6E1F50800A1B58D8A0FCEF17F0F4
:102FF400FEEF17F0E3EF17F052B003EF18F005EF10
:1030040018F00FEF18F017C00EF018C00FF015C02D
:1030140010F016C011F0ECEC19F017C005F018C050
:1030240006F0C4EC1AF01E500524156E1F5006203D
:10303400166E1200000E186E52EF18F002D83AEF16
:1030440018F00500FA6E0F50FD6E1050FE6E115010
:10305400FF6EFA501850020DF3CF16F0F4CF17F0AC
:1030640016500D24D96E17500E20DA6EDF50120060
:10307400640E056E000E066E000E076E000E086EDE
:1030840020EE12F002D851EF18F00500FA6EDE506F
:10309400FD6EDE50FE6EDE50FF6EFA501200182AEE
:1030A4001550185CD8A059EF18F05BEF18F020EF1A
:1030B40018F01200E80EF66E2D0EF76E000EF86E84
:1030C40002EE00F010EEC8F00900F5CFEEFFE55077
:1030D400E150FAE1A40EF66E380EF76E000EF86EAB
:1030E40000EEEAF010EE0DF00900F5CFEEFFE5502A
:1030F400E150FAE101EE00F0400EEE6AE806FDE16F
:1031040000EE9AF0360EEE6AE806FDE1536A526A62
:10311400516A506A56905692000117EF0CF06BC03A
:103124004EF06CC04FF0000E0001A76F000EA66FAA
:10313400AFEF18F069C044F06AC045F04E0E466E19
:10314400000E476E6DC048F06EC049F019EC0EF0E9
:1031540044500001A6274550A7234EC0F6FF4FC098
:10316400F7FF000EF86E0800F5500009D8A4BDEF73
:1031740018F0BFEF18F09CEF18F0A6C069F0A7C0D4
:103184006AF01200000E6A6E000E6B6E000E6C6E1A
:10319400000E6D6E000E686E000E696E000E666E97
:1031A400000E0F015F6F000E5D6F000E5E6F000E6C
:1031B400596F000E5A6F000E5B6F000E656E000EA5
:1031C400586F000E566F3F0E576F840E606E000EE0
:1031D4005C6F0E01CB91C381D20E056E380E066E64
:1031E400000E076E4BEC1CF012001BEF19F0BC0E26
:1031F400056E000E066E19C0D9FF1AC0DAFFDF5043
:10320400216E2150076E086A24EC14F0BC0E0D6E7A
:10321400000E0E6E20EE1BF000EE0FF0050EDBCF5D
:10322400EBFFE806FCE2040E156E1CEC18F0194ADC
:103234001A2A19C0D9FF1AC0DAFFDF50D8A425EF23
:1032440019F027EF19F0F9EF18F01200730E0001CE
:10325400836F000E846F6FC085F070C086F0000E1F
:10326400896F000E886F000E8F6F000E8E6F850EB3
:10327400696F000E6A6F71C06BF072C06CF0830EE0
:103284006D6F000E6E6F91EC18F0000188516F2580
:10329400D96E89517021DA6E000EDF6E1200010EB4
:1032A4000B6E200E05180610D8B45BEF19F05DEF15
:1032B40019F076EF19F0F70E076EFF0E086E05C0D1
:1032C40009F006C00AF00750092608500A220A50DD
:1032D40009E1050E095CD8A072EF19F074EF19F03A
:1032E40076EF19F0000E0B6E0BC005F0066A1200A3
:1032F4000F011AA180EF19F082EF19F084EF19F091
:103304004BEC1BF00F011AA38AEF19F08CEF19F0A4
:103314008EEF19F030EC1BF00F011AA594EF19F0A1
:1033240096EF19F098EF19F015EC1BF00F011AA79E
:103334009EEF19F0A0EF19F0A2EF19F0FAEC1AF0D1
:103344001200000ED06E000ED16E040ED26EF80E76
:10335400CE6E6E0ECD6E0E01CE91CD50CECF08F056
:10336400096A08C009F0086A08100001E86F0950EA
:10337400E96F0E01C681C60E056E380E066E000E8C
:10338400076E21EC1CF0310ECF6E1200000E096E98
:10339400000E0A6E000E0B6E000E0C6EDCEF19F0C0
:1033A40000D000D000D000D0010E0926000E0A2261
:1033B4000B220C220550095C06500A5807500B5882
:1033C40008500C58D8A0E9EF19F0EBEF19F0D2EF40
:1033D40019F01200000E146E000E136EFDEF19F0BA
:1033E40012C005F0066A10C007F011C008F08FEC97
:1033F40016F0134A142A13500E24D96E14500F20B9
:10340400DA6EDF50126E1250D8A40BEF1AF00DEFE3
:103414001AF0F2EF19F012000E01CE91E8C001F09B
:10342400E9C002F099EC1BF00001D351D411D5117D
:10343400D8B41FEF1AF021EF1AF02EEF1AF002D8C9
:103444002EEF1AF00500FA6ED351FD6ED451FE6EC4
:10345400D551FF6EFA501200120018BE3CEF1AF05C
:10346400185006E11704D8B03AEF1AF03CEF1AF0FE
:103474004AEF1AF017C019F018C01AF0191E1A1ED4
:10348400194A1A2A19C017F01AC018F04EEF1AF088
:1034940017C017F018C018F012000E01CA9B55503F
:1034A400D46E54C0D3FF0001D951DA11DB11D8B462
:1034B4005EEF1AF060EF1AF06DEF1AF002D86DEFBC
:1034C4001AF00500FA6ED951FD6EDA51FE6EDB5129
:1034D400FF6EFA5012001200040ED66ED468F00E7D
:1034E400D36ED350D4CF08F0096A08C009F0086A33
:1034F4000810546E0950556E0E01CA9BC28BC80E3B
:10350400056E380E066E000E076E28EC1CF0900E49
:10351400D56E1200D00E076EFF0E086E05C009F0BE
:1035240006C00AF00750092608500A220A500AE188
:103534000A0E095CD8A0A1EF1AF0A4EF1AF0010E4C
:10354400A5EF1AF0000E056E066A1200C40E056E91
:10355400000E066E19C007F01AC008F0A9EC14F0AA
:10356400C40E0D6E000E0E6E20EE1BF000EE0FF07A
:10357400050EDBCFEBFFE806FCE2040E156E1CEC37
:1035840018F0120005C007F006C008F0CCEF1AF0DE
:10359400054A062A05C0D9FF06C0DAFFDF50D8A4C1
:1035A400D6EF1AF0D8EF1AF0CAEF1AF00750055CFC
:1035B400056E08500658066E12000E01CE930001E7
:1035C400D051D111D211D8B4EAEF1AF0ECEF1AF0BD
:1035D400F9EF1AF002D8F9EF1AF00500FA6ED0519B
:1035E400FD6ED151FE6ED251FF6EFA5012001200E0
:1035F4000001DC51DD11DE11D8B403EF1BF005EF3F
:103604001BF012EF1BF002D812EF1BF00500FA6E4C
:10361400DC51FD6EDD51FE6EDE51FF6EFA5012007C
:103624000F011A9712000001DF51E011E111D8B423
:103634001EEF1BF020EF1BF02DEF1BF002D82DEF37
:103644001BF00500FA6EDF51FD6EE051FE6EE15194
:10365400FF6EFA5012000F011A9512000001E25198
:10366400E311E411D8B439EF1BF03BEF1BF048EF42
:103674001BF002D848EF1BF00500FA6EE251FD6E14
:10368400E351FE6EE451FF6EFA5012000F011A93DB
:1036940012000001E551E611E711D8B454EF1BF014
:1036A40056EF1BF063EF1BF002D863EF1BF005002D
:1036B400FA6EE551FD6EE651FE6EE751FF6EFA506B
:1036C40012000F011A9112000E01CB910001D65184
:1036D400D711D811D8B471EF1BF073EF1BF080EF42
:1036E4001BF002D880EF1BF00500FA6ED651FD6E78
:1036F400D751FE6ED851FF6EFA5012001200030E1D
:10370400BF6E000EBE6E000EC06E630EBC6E000E69
:10371400BB6E0E01CE93C683C40E056E380E066EC4
:10372400000E076E1AEC1CF0E00EBD6E1200CFA462
:103734009EEF1BF0A0EF1BF0A8EF1BF0CF90025000
:10374400CE6E01C0CDFFCF80ACEF1BF00250CE6E29
:1037540001C0CDFF120005500702F3CF09F0F4CFEA
:103764000AF005500802F3500A2606500702F350E7
:103774000A2609C005F00AC006F012005FEC1CF02E
:10378400F6EC1BF0E6EC1BF0B1EC15F004EC1CF0CD
:10379400C4EC18F081EC1BF0A3EC19F06EEC1AF0F9
:1037A4001200076E07380F0B0F0B8E6E07C005F063
:1037B400070E0516050E066ED8900536062EDEEFAA
:1037C4001BF005508F6E12000D0E0E01B76F0C0E1C
:1037D400B86F0F0EF46F400E956E000E966E010ECC
:1037E400936E899A969A1200000E0E01E16F000EF4
:1037F400E26F000EE36F000EE46F000EE56F000E43
:10380400E66F1200600E0E01D86F000EDA6F000E24
:10381400DC6F060EDE6F000EDD6F12006450086E62
:10382400076A63500724056E000E0820066E120016
:1038340005C0D0F006C0D1F007C0D2F0120005C018
:10384400D3F006C0D4F007C0D5F0120005C0D9F0FB
:1038540006C0DAF007C0DBF0120005C0DCF006C0D9
:10386400DDF007C0DEF0120005C0DFF006C0E0F0B6
:1038740007C0E1F0120005C0E2F006C0E3F007C0A3
:10388400E4F0120005C0E5F006C0E6F007C0E7F07A
:10389400120005C0D6F006C0D7F007C0D8F0120059
:0D38A4000720803A4600190025DF141B01A3
:1038B200056E05C05FFF608E60801200F29A1200F2
:1038C2001200120012001200120012001200120066
:0238D2001200E2
:020000040020DA
:10000000FF0FFF0FFF0FFF0FFF0FFF0FFF0FFF0F80
:020000040030CA
:0C000000ECFFFFFF9FFFFFFFFFFFFFFF73
:00000001FF
