:0400000069EF00F0B4
:100008000C82FACF02F0FBCF03F0F2AC0EEF00F057
:1000180010EF00F063EF00F00E01C6A316EF00F03A
:1000280018EF00F063EF00F0CEA31DEF00F01FEF14
:1000380000F063EF00F01CEC01F08EBA26EF00F040
:1000480028EF00F049EF00F00A06D8A00B060A5086
:100058000B10D8A432EF00F034EF00F049EF00F0B5
:10006800030E0B6EE80E0A6E84B83DEF00F040EF09
:1000780000F0010E41EF00F0000EFF0A016E013A98
:1000880084500118EF0B0118846E8EAA4EEF00F011
:1000980050EF00F063EF00F084B655EF00F058EF32
:1000A80000F0010E59EF00F0000EFF0A016E014644
:1000B8000146014684500118F70B0118846E03C0ED
:1000C800FBFF02C0FAFF0C921100D5EF00F0000E02
:1000D800876E000E866E000E836E000E846E000E14
:1000E800856E070E8C6E8868E70E896E8A688B6845
:1000F8000F0126692169C70E196F070E2E6F116946
:10010800000E256F000E2D6F000E186F000E106F79
:10011800000E206F000E2C6F000E0F6F000E176F71
:10012800000E1F6F000E246F0E6916691E69236981
:10013800070E2B6F0D6915691D6922690F0E2A6F4D
:100148001200020EBF6E200EBE6E000EC06EF90EBB
:10015800BC6E000EBB6E0E01CE93C6834C0E046EB1
:10016800020E056E000E066E15EC01F0A00EBD6EB7
:100178001200075008100910D8B4C5EF00F0C7EFF7
:1001880000F0D4EF00F002D8D4EF00F00500FA6ECA
:100198000750FD6E0850FE6E0950FF6EFA501200AF
:1001A80012004A0EF66E020EF76E000EF86E090087
:1001B800F5CF0AF00900F5CF0BF00C900C92000176
:1001C8000BEF01F0000E0E01E16F000EE26F000E62
:1001D800E36F000EE46F000EE56F000EE66F12008D
:1001E800620E0E01D86F000EDA6F000EDC6F050E7E
:1001F800DE6F000EDD6F120023EC01F0E6EC00F07C
:100208006BEC00F0F4EC00F0A5EC00F0120000EC50
:1002180001F0F28EF28C21EC01F011EF01F069EFA0
:1002280000F004C007F005C008F006C009F012008D
:100238000E01CE93BDEC00F01200BD8E1200F29AB2
:060248001200E8031200A1
:020000040020DA
:10000000FF0FFF0FFF0FFF0FFF0FFF0FFF0FFF0F80
:020000040030CA
:0C000000ECFFFFFF9FFFFFFFFFFFFFFF73
:00000001FF
